:100000000C94F6040C942E050C942E050C94DD2C07
:100010000C942E050C942E050C942E050C942E0594
:100020000C942E050C942E050C9413270C94CF26BB
:100030000C947A280C942E050C942E050C942E0505
:100040000C942E050C942E050C942E050C942E0564
:100050000C942E050C9456280C942E050C942E0509
:100060000C942E050C942E050C942E050C942E0544
:100070000C942E050C942E050C942E050C942E0534
:100080000C942E050C942E050C942E050C942E0524
:100090000C942E050C942E050C942E050C942E0514
:1000A0000C942E050C942E050C942E0514001A00A9
:1000B00008001500000016001B2400000E000F00B1
:1000C00000000C00120000000A00170000000800E9
:1000D0000700000010000E003700000009001900A2
:1000E000000019000500000036000E0000000C00A2
:1000F0000E0000001500090000001A0016000000A4
:100100000A000500000015001700000009000A00A1
:1001100000001B24190000000600190000001B2429
:10012000060000000700190000001B240700000063
:100130000D00100000000700060000001D221B2417
:1001400000002C42835200001600090000000B0042
:100150000D00000007000900000016000700000065
:100160000631FF0974A1010975150026FF009520CD
:1001700075088102C005010902A10185020901A1DA
:100180000005091901290815002501950875018147
:10019000020501093009311581257F950275088115
:1001A0000609381581257F950175088106050C0A19
:1001B00038021581257F950175088106C0C00501AB
:1001C0000980A101850319012AB700150126B7008E
:1001D000950175108100C0050C0901A10185041964
:1001E000012AA002150126A002950175108100C008
:1001F00005010906A101050719E029E715002501F8
:10020000950875018102950175088101050719009E
:1002100029FF150026FF00950675088100050819BD
:1002200001290515002501950575019102950175B6
:10023000039101C064796E616D6963206D616372C1
:100240006F207265636F7264696E673A20737461C0
:10025000727465640D0A000102E3010124000102C9
:10026000E3010123000102E3010122000102E30195
:100270000121000102E3010120000102E301011F4D
:10028000000102E301011E000102E00102E101019F
:100290002B0103E1000102E001012B000102E20158
:1002A000012B010150000103E10103D3000102E130
:1002B000010431357C0102D3000101D10104313543
:1002C0007C0101D1000102E12C0103E133000102B4
:1002D000E30102E001014F0103E00103E300010239
:1002E000E30102E00101500103E00103E300010327
:1002F000E200010128000102E2000102E06C0103BA
:10030000E000010150010150010150003D667261A1
:10031000630102E6370103E60102E6300103E6016C
:1003200002E6370103E60102E6300103E6000101BF
:1003300050010150007072696E740102E13832326E
:10034000390103E1006D37373634380048766120D3
:1003500069206661656E31003436333630363931A6
:10036000005363686F706D65696572004A616E2045
:100370004572696B20006A616E2E6572696B0102BD
:10038000E6320103E67363686F706D656965722E0E
:10039000636F6D006D656E790072656D61006B69EC
:1003A00077690062756E6E707269730044454255DC
:1003B000473A2064697361626C65642E0A004445A3
:1003C0004255473A20656E61626C65642E0A004FA3
:1003D0006E6573686F743A206163746976653A205C
:1003E00025640A004F6E6573686F743A2074696DF6
:1003F000656F75740A000A002530325820006B655D
:1004000079626F6172645F7265706F72743A2025F1
:10041000303258207C2000000014001A000900131C
:10042000000500000004211500160017000A000056
:10043000001D221B24060007001900000000000117
:100440007C007CA25281520D000F0018001C00336A
:100450000000000E00110008000C00122100001026
:10046000000B0036003700382200002C4283520077
:100470007C017C0000000000001E021F02200221FF
:1004800014220200001E001F002000210022000094
:1004900000E1005A7E3000597E310000000000006B
:1004A0000000004C0001002302240225022602273E
:1004B0000200002300240025002600270000002E53
:1004C000002D0001000100010000000100010000FA
:1004D000000000000000000000AA00AC00AE00AB6D
:1004E00000A90000005B7E5C7E5D7E5E7E5F7E001C
:1004F00000E100E200607E617E407E0000000000BE
:100500000000002A004C00A800241425022602271F
:100510001400004A00500152004F014D00000058E5
:100520007E500051004F00E30000000100645200C3
:1005300000000000000000000035001F14201421FE
:1005400002221400003A003B003C003D003E000047
:100550000040004100420043004400000000000051
:100560000000002A014C014600537C25142614305B
:100570000200003F00567C64006402310200004526
:1005800000507E4B7E497E301400000000010000C8
:10059000000000000000000000007C417E437E421D
:1005A0007E447E00000000000052000000000000B9
:1005B000000000500051004F006452000000000095
:1005C0000000002A00010053005F00600061005439
:1005D0000000002B005C005D005E00570000000082
:1005E0000059005A005B005800000062003700000C
:1005F00000000000000000000000000000070800EC
:10060000000000000000000000D900000000000011
:10061000000000DB00DA00DC006552000000000092
:1006200000000065526552000000002B0800000029
:1006300000000000000000CD0000000000000000ED
:1006400000CF00CE00D000000000006552655200CF
:1006500000000000000000000014001A000800154F
:10066000001700000004211600070009000A00001E
:10067000001D221B240600190005000000000000D8
:10068000000000A25281521C0018000C001200133E
:100690000000000B000D000E000F003321000011C0
:1006A00000100036003700382200002C4283520030
:1006B0000000000000000054617267657420636FE1
:1006C0006E6E65637465640D0A00546172676574CB
:1006D00020646973636F6E6E65637465642C207447
:1006E00068726F74746C696E6720636F6E6E656399
:1006F00074696F6E20617474656D7074730D0A0097
:100700004661696C656420746F20657865637574F3
:10071000652025730A000103E20103E00103E30001
:1007200073757370656E64696E67206B6579626F4F
:100730006172640D0A000A0025303862003A200018
:1007400025303258000A722F63203031323334356D
:1007500036370A006C65645F7461736B3A2025302C
:1007600032580A0064796E616D6963206D6163724D
:100770006F3A20736C6F7420256420706C6179620D
:1007800061636B0A0064796E616D6963206D6163FA
:10079000726F3A20736C6F742025642073617665E4
:1007A000642C206C656E6774683A2025640A0064C6
:1007B000796E616D6963206D6163726F3A20747246
:1007C000696D6D696E67206120747261696C696E14
:1007D00067206B65792D646F776E206576656E7422
:1007E0000D0A00290A002575002F002575005D28D7
:1007F00000256400200025640020002564002000FE
:100800002564007C0025303258006D6F7573656B70
:100810006579205B62746E7C782079207620685D33
:10082000287265702F61636C293A205B005B435D21
:10083000005B445D005B535D005B575D005B525D98
:100840000009025400030100A0FA0904000001039A
:100850000101000921110100012244000705810363
:100860000800010904010001030000000921110131
:100870000001227B00070582032000010904020019
:1008800001030000000921110100012215000705E4
:1008900083032000011201000200000008736A01B6
:1008A000000001010200010E036500720067006F85
:1008B0000034003400000028034A0061006E00206C
:1008C000004500720069006B00200053006300685F
:1008D000006F0070006D0065006900650072000027
:1008E000000403090464796E616D6963206D6163BE
:1008F000726F3A20736C6F74202564206C656E678C
:1009000074683A2025642F25640A0064796E616D4D
:100910006963206D6163726F3A2069676E6F7269F7
:100920006E672061206C656164696E67206B657914
:100930002D7570206576656E740D0A00000000004C
:1009400000000000000000000000000000000000A7
:100950000000000000000000000000000000000097
:100960007E0F00D4FFFFFFC70000007800000000EA
:10097000000000002A2B28000000000000000000FA
:100980000000000000000029000000002C1E3420A0
:10099000212224342627252E362D3738271E1F20C6
:1009A0002122232425263333362E37381F0405060B
:1009B0000708090A0B0C0D0E0F101112131415164F
:1009C0001718191A1B1C1D2F3130232D350405064D
:1009D0000708090A0B0C0D0E0F101112131415162F
:1009E0001718191A1B1C1D2F3130354C11241FBE2E
:1009F000CFEFDAE0DEBFCDBF04B603FE18C08091B2
:100A0000710890917208A0917308B09174088730B2
:100A1000904BA740B04B59F4109271081092720895
:100A20001092730810927408E0E0F8E3099512E060
:100A3000A0E0B1E0E4EAFEE502C005900D92A63622
:100A4000B107D9F728E0A6E6B2E001C01D92A137B0
:100A5000B207E1F70E94A1280C94F02E0C9400003C
:100A6000FF93EF93E0916602F0916702309709F0EF
:100A70000995EF91FF910895FC018591803011F067
:100A8000EFDFFBCF0895FF27E0E230E247FF0CC025
:100A9000419597FF09C0EDE260957095809590951E
:100AA000611D711D811D911D27FF02C0219530E33D
:100AB00050E2AA27660F771F881F991FAA1FA41745
:100AC00010F0A41B63955A95A9F7AA3008F0A95F06
:100AD000A05DAF93F395611571058105910541F70F
:100AE000ED3211F4EF93F395F21718F43F93F39569
:100AF000FBCF8F91B5DFFA95E1F70895E991F99170
:100B00008591803021F0853219F0AADFF9CF089560
:100B100020E0E89455915532C1F3503311F46894B4
:100B200055915A3348F4505390F3220F022E220F5E
:100B3000220F200D250FF4CF0EF421958991999164
:100B4000533619F3533729F1533559F1BC0188272E
:100B50009927E8945C3621F489919991689455918C
:100B6000543639F446EF7EF077FF0DC08FEF9FEFDC
:100B70000AC055374AE039F0583540E121F0523685
:100B800042E009F00895FF93EF937DDFEF91FF912D
:100B9000B7CFFF93EF93FC0181918030B9F360DF11
:100BA000FBCFFF93EF9368DFF1CFDF93CF93CDB708
:100BB000DEB72596A3DFCF91DF910895482F2091CE
:100BC0006A089091210859E0291302C080E0089535
:100BD00030E0529FF001539FF00D1124EE5DF74F6E
:100BE0008181681306C08081481303C0858181110B
:100BF000EECF2F5F3F4F2770E7CFFC01AC014C5F7A
:100C00005F4F8FEF91E32191822728E030E087FF4B
:100C100009C0880F892721503109C9F7E417F50762
:100C200091F70895880FF7CFE8EDF0E080818E7F8F
:100C300080831092E2001092DA001092E100A0EEA0
:100C4000B0E08C9181608C9380818F77808319BC18
:100C5000A7EDB0E08C918E7F8C9380818F7E808316
:100C600010920A0808952091E4003091E50095E67D
:100C7000A9012091EC00822F817020FF06C0809195
:100C8000E80080FF06C080E008952091E80022FD82
:100C90001AC080911708882389F0853089F08091E7
:100CA000EB0085FD0FC02091E4003091E500421774
:100CB0005307F9F29150E1F684E0089582E0089537
:100CC00083E0089581E008958091190887FF13C09B
:100CD0008091E80082FF06C08091E8008B778093C6
:100CE000E80004C0809117088111F2CF0895809127
:100CF00017088823D9F38091E80080FFF8CF80910E
:100D0000E8008E77ECCF982F9093E900242F762F70
:100D100050E0891731F07091EC002091ED00509176
:100D2000F00021FD07C09F5F973071F78093E900C5
:100D300081E008953091EB003E7F3093EB003091DD
:100D4000ED003D7F3093ED003091EB00316030934A
:100D5000EB007093EC002093ED005093F000209195
:100D6000EE0027FDE0CF80E00895B0E0A0E0EBEBDF
:100D7000F6E00C94032EC8EDD0E088818F7E888346
:100D8000E7EDF0E080818160808384E082BF81E0D4
:100D900080930A0888818E7F888302EE10E0F80134
:100DA00010821092DA0081EEC82ED12CF60110824A
:100DB00088818F77888388818068888388818F7D08
:100DC000888319BC10921708109218081092160800
:100DD0001092150890EEE92EF12CF70180818B7F9F
:100DE000808388818160888342E060E080E00E94A7
:100DF0008306F60180818E7F8083F8018081816087
:100E00008083808188608083F70180818E7F8083EA
:100E1000888180618883CDB7DEB7E8E00C941F2E0F
:100E2000FC0180911F089091200886179707A0F079
:100E30006115710529F49091E8009E779093E80080
:100E400090E06115710551F4911108C08091E8009E
:100E500082FF34C080E00895BC01F2CF8091170872
:100E60008823C1F18530C1F18091E80083FD30C055
:100E70008091E80082FDEACF8091E80080FFE1CF19
:100E80008091F3002091F200382F6115710519F05F
:100E90002830310558F091E02830310509F090E014
:100EA0002091E8002E772093E800CBCF81918093AA
:100EB000F100615071092F5F3F4FE7CF8091170814
:100EC000882341F0853041F08091E80083FFBECF58
:100ED00081E0089582E0089583E008950895809167
:100EE0000C0808959C014FB7F894809103089091E5
:100EF0000408A0910508B09106084FBF821B930B10
:100F000008952FB7F89460910308709104088091B8
:100F10000508909106082FBF08952FB7F894809187
:100F2000030890910408A0910508B09106082FBF0E
:100F300008959C01FC0132969FEF80E04191461795
:100F400051F09F3F19F4411101C0982F8F5F8630F7
:100F5000A9F79F3F09F40895290F311D97FD3A9590
:100F6000F90162830895A3E0B0E0E9EBF7E00C94A7
:100F7000092E209100083091010828173907A1F0A7
:100F80009093010880930008E091FE07F091FF071D
:100F9000309751F024E029839B838A830084F18574
:100FA000E02DCE01019609952396E2E00C94252EC2
:100FB000A3E0B0E0EEEDF7E00C94092E2091FC07E1
:100FC0003091FD0728173907A1F09093FD07809312
:100FD000FC07E091FE07F091FF07309751F023E006
:100FE00029839B838A830084F185E02DCE010196BD
:100FF00009952396E2E00C94252E8091FA07882328
:1010000059F0E091FE07F091FF07309729F0019029
:10101000F081E02D0995089580E0089587FD27C0AF
:1010200067FF14C0062E000C770B6F5F7F4F93EFA6
:10103000969F9001979F300D112437FF02C02150D9
:101040003F4F632F811111C0862F089581110BC06E
:101050006623D1F323EF6203B0011124672F87FFCA
:10106000F3CF6150F1CF68327CF76F5FEDCF16168A
:101070008CF3693D4CF3F5CF9091EE07892F817089
:1010800090FD19C091FD16C092FD12C08091ED0730
:10109000882381F08F3F61F023E0829FC0011124FB
:1010A0006FEF70E00E943C2E862F672B19F0089599
:1010B00083E0089581E008958823C9F04091EC070A
:1010C0008091EB079091E8079230B0F491E0909313
:1010D000E807880F990B81382FEF920714F481E805
:1010E0009FEF8038910514F08FE790E008954091CC
:1010F000EA078091E907E6CF842F042E000C990BB4
:10110000982F80E068E270E00E943C2E9B01DB019A
:101110000E94562EBB2797FDBA95A92F982F872F8F
:10112000FC0147FF0EC0EE27FF27E81BF90B21E06B
:1011300030E0411102C030E020E0319521953109C5
:1011400004C021E030E0442391F348E24E9FC00107
:101150004F9F900D1124892F990F990B820F931F88
:10116000BACFDC016091E2078091E307962F8913E3
:1011700001C00895292F30E0F901EE0FFF1FE6525C
:10118000F84F408151814A175B07A1F487E08A9F9D
:10119000A0018B9F500D11244F5C5E4F81E0FA013E
:1011A00084839613E6CF2F5F3F4F2370332720931E
:1011B000E20708952F5F3F4F922F9370D8CF109280
:1011C0006E0710926D07E1E3F1E08CEF91E025816D
:1011D000211102C01482168237968E179F07B9F725
:1011E0000895F894E82FE295EF70F0E031A1282FF0
:1011F0002F7081E090E001C0880F2A95EAF7982FC0
:101200009095932391A392A1892B82A3789408951A
:101210000F931F938091FA07882329F00E9481077A
:101220001F910F9108950E94810700914807109126
:10123000490720914A0730914B07600F711F821FA9
:10124000931FEECF9091560792FF10C041E0282FD8
:101250002471243009F040E031E0282F2871283033
:1012600009F030E0431711F02CE0822793FF10C003
:1012700041E0282F2471243109F040E031E0282F8B
:101280002871283109F030E0431711F02CE0822753
:101290003091570730FF10C051E0282F21712130C5
:1012A00009F050E041E0282F2871283009F040E093
:1012B000541711F029E0822731FF10C041E0282F98
:1012C0002171213109F040E031E0282F28712831C7
:1012D00009F030E0431711F029E0822794FD877E62
:1012E000089582389105B9F1B0F48133910509F47C
:1012F0007DC048F48932910509F46DC08A329105A8
:1013000009F47BC008958533910509F45FC08933E2
:10131000910509F10895833E9105D9F138F4803E95
:10132000910529F1823E910579F10895863E910556
:10133000D9F1873E910509F43EC0843E910541F5FF
:101340002091570721FF24C08091560784FD19C0C2
:1013500087EE90E0089520915607237009F05AC057
:101360002091570723FF14C089E290E0089520914F
:10137000560720FD38C03091570730FF09C024FFC1
:1013800043C090E080E008952091560722FDF7CFFA
:1013900008952091560722FD3AC03091570730FD3D
:1013A00039C024FFF5CFEDCF2091560723FFF0CFB2
:1013B00024FDE7CFCDCF2091560723FD2EC03091DD
:1013C000570731FFEECF84EE90E008952091560745
:1013D00025FFDECFC9CF2091560725FD21C02091E2
:1013E000570723FFD5CF89E390E0D2CF209156074E
:1013F00026FFCECF8AE290E008952091560726FF7F
:10140000C7CF81E390E0089583EE90E0089582EEE7
:1014100090E0089580EE90E0089586EE90E00895C3
:1014200085E390E00895972F7830B8F46630A8F4FB
:101430008730B0F470E026E0929F600D711D11249A
:10144000FB0190E3899FE00DF11D1124EE0FFF1FBA
:10145000E95EFB4F85919491089580E090E00895B6
:1014600081E0FCCF1F93CF93DF930E947109EC01C1
:10147000C11580E5D807F0F5C11580E4D80708F05C
:101480009CC0C03ED10520F5CD3CD10508F082C0FE
:10149000C83AD10578F4C53AD10508F073C0C13017
:1014A000D10519F1209709F1C430D105F0F4D0E04D
:1014B000C0E01BC0C33CD105D0F7C85AD0E0CC0F68
:1014C000DD1FC15EDD4F0990D881C02DD4640DC0F1
:1014D000C11580E2D80708F0D1C0C11581E0D80756
:1014E00008F05AC0C83ED10510F7CE01DF91CF9168
:1014F0001F910895C03682E5D80718F5C03482E5FB
:10150000D80708F06BC0C03282E5D80708F05FC08A
:10151000C11582E5D80708F497C02C2F269526958B
:1015200080E2289F900111248C2F8370C1E0D0E0CD
:1015300002C0CC0FDD1F8A95E2F7C22BD32BDD68EA
:10154000D4CFC03A82E5D80760F4C03882E5D80726
:1015500008F459C0CF71D0E0DC2FCC27C46FD06A1B
:10156000C4CFC03C82E5D80708F462C0C03E82E523
:10157000D80708F09CCFDC2FCC27CC27DF71C06FB9
:10158000D06AB3CFC55AD0E0C45EDD4FC881D0E089
:10159000D064ABCFD065A9CF8D2F0E942209182F20
:1015A000CE0199270E947109C12FD0E0DC2FCC27F2
:1015B000CC27DF71C82BD92B98CFCE0199270E9459
:1015C0007109CC27DF70C82BD92BD06A8ECFCF7191
:1015D000D0E0DC2FCC27C16FD06A87CF2C2F269587
:1015E0002695277080E2289F900111248C2F83700C
:1015F000C1E0D0E002C0CC0FDD1F8A95E2F7C22B1C
:10160000D32BDC6872CF2C2F26952695277080E28D
:10161000289F900111248C2F8370C1E0D0E002C07C
:10162000CC0FDD1F8A95E2F7C22BD32BDA685DCF92
:101630008C2F8F710E942209C82FD0E0DC2FCC277D
:10164000CC27DF71D06251CF8C2F8F710E9422097D
:1016500055E0D695C7955A95E1F7CF70D0E0DC2FCD
:10166000CC27282F30E084FF05C044E0220F331F31
:101670004A95E1F7C22BD32BD06937CF8D2F8F71CD
:101680000E942209182FCE0199270E947109C12FAB
:10169000D0E0DC2FCC27CC27DF71C82BD92BD2CFC1
:1016A00080912307882331F010922307109222079C
:1016B00010922107089580916C0781110FC010923C
:1016C00069070E94500B0E948D0788579C4E90938B
:1016D0006B0780936A0781E080936C07089590916F
:1016E0002307292F282361F08095892380932307DE
:1016F000882339F00E948D07909322078093210759
:10170000089590E080E0F8CF809590916907982344
:101710009093690708951092180710921707109276
:101720001607089590911507292F282321F08095F9
:10173000892380931507089580916A089091210864
:10174000981301C008958F5F8770FACFB0E0A0E0D2
:10175000ECEAFBE00C94022E7C010091E60710916C
:10176000E7078091240790912507082B192BCFE0DC
:10177000D0E0CC24C394D12CBC2EC6010C2E02C0C8
:10178000880F991F0A94E2F780239123892B49F44B
:10179000219790F7B12C8B2DCDB7DEB7E9E00C94F3
:1017A0001E2EB7018C2F0E94130A0E94320A019745
:1017B00079F3F1CFCF93DF93EC010E94A60BBE012A
:1017C0000E94130A0E94320ADF91CF910895983047
:1017D00078F5863068F5E82FF0E086E0989FE00D18
:1017E000F11D11249E2F977083E0F695E7958A9559
:1017F000E1F7EE0FFF1FEE0FFF1FEC50F94F50E027
:1018000040E080E0219130E0092E02C03695279516
:101810000A94E2F721703327042E01C0220F0A94A4
:10182000EAF7822B4F5F5F4F4430510559F7089517
:1018300080E00895983098F5863088F5E82FF0E03C
:1018400086E0989FE00DF11D11248E2F877041E0F6
:1018500001C0440F8A95EAF783E0F695E7958A95EB
:10186000E1F7EE0FFF1FEE0FFF1FEC50F94F30E0D6
:1018700020E070E05191DF011197CB01022E02C0F0
:10188000969587950A94E2F7817081958527842340
:1018900085278C932F5F3F4F2430310559F70895EA
:1018A00090932507809324070895FC018481882361
:1018B000F9F087819085009791F00E94320A929505
:1018C0009F709630B9F080F4925F9F70923080F4F0
:1018D000803F19F058F4883E58F481E008958081E3
:1018E00091810E94DA0BEBCF9A5FEFCF843FA9F38F
:1018F00080E00895883E88F3813FD1F7EECF82954E
:1019000090E09C01220F331F220F331F2C7C9595F2
:101910008795959587958373282B30E0C901880FAB
:10192000991F8A7A359527952575822B0895A6E00B
:10193000B0E0EDE9FCE00C94082E9C01FC018781ED
:1019400090850097E1F486E0DE01119601900D92FA
:101950008A95E1F7F901258189819A81222399F0FD
:10196000662389F00E94A60B182F682F89819A811F
:101970000E941A0C69817A81812F0E94130A26968F
:10198000E3E00C94242E0E94E70B182FF3CF9FB7AF
:10199000F894109208089FBF90911708943009F0AE
:1019A00048C02091E9002F703091EC00932F917086
:1019B00030FD90E8922B23E02093E9002091EB008A
:1019C00020FF34C02091EE0027FF30C0209107088F
:1019D000222321F02091E80025FF28C0109207085B
:1019E00026E03091E80035FF14C08093F10080912B
:1019F000E80085FD27C08091E80080FFFCCF809142
:101A0000E8008E778093E8009F709093E90080E073
:101A1000089530911708343049F43091EB0035FDCA
:101A200005C0215041F481E0809307089F70909396
:101A3000E9008FEF0895EFE9FFE03197F1F700C07B
:101A40000000CFCF8FB7F89421E0209308088FBF14
:101A5000DBCF0F931F93CF93DF938B01EA0190911C
:101A60001708943061F58093E9008FEF9091E800BA
:101A7000815095FD06C095ED9A95F1F70000811112
:101A8000F5CF8091E80085FF1AC00E9433068111CE
:101A900011C08091E80085FD06C08091E8008E7736
:101AA0008093E800F2CFF80181918F018093F100DB
:101AB000219779F78091E8008E778093E800DF9195
:101AC000CF911F910F91089543E050E0BC0182E057
:101AD0000E94290D089546E050E0BC0182E00E947A
:101AE000290D0895CF93DF93EC0148E050E0BC014D
:101AF00081E00E94290D88E0FE01ADE0B8E0019090
:101B00000D928A95E1F7DF91CF91089581E080935E
:101B1000E00080E28093D8001092C9008FE19EE43B
:101B20000197F1F700C0000087E090EBDC018093A3
:101B3000710890937208A0937308B093740888E1B9
:101B40009CE00FB6F894A895809360000FBE909328
:101B50006000FFCF0F931F93CF93DF93EC01F90148
:101B6000A0916B08B0916C0890916D08917085817F
:101B7000811112C0CA17DB0779F4992341F08BE079
:101B800099E09F938F930E94D5050F900F90DF915E
:101B9000CF911F910F91089589E04802800111248F
:101BA0009D01201B310B6217730779F089E00190CA
:101BB0000D928A95E1F720916B0830916C08200F07
:101BC000311F30936C0820936B08992301F3E42FA5
:101BD000042E000CFF0B6C1B7D0BA9E3BEE86A9F73
:101BE000C0016B9F900D7A9F900D11248E9F9001E4
:101BF0008F9F300D9E9F300D11242F5F3F4F80919E
:101C00006B0890916C088C1B9D0B8A9FE0018B9F49
:101C1000D00D9A9FD00D1124CE9FB001CF9F700D93
:101C2000DE9F700D112482E0413009F481E03F9382
:101C30002F937F936F931F928F9385EE98E09F93DE
:101C40008F930E94D5058DB79EB708960FB6F8946E
:101C50009EBF0FBE8DBF9BCF80916D0883FF96C046
:101C60008AE098E09F938F930E94D5058091F507B5
:101C70001F928F9385E098E09F938F930E94D505E4
:101C800083E098E09F938F930E94D5058091F6079B
:101C9000282F082E000C330B3F938F9380E098E0A1
:101CA0009F938F930E94D5058EEF97E09F938F931C
:101CB0000E94D5058091F707282F082E000C330BC2
:101CC0003F938F938BEF97E09F938F930E94D5055F
:101CD00089EF97E09F938F930E94D5058091F80735
:101CE000282F082E000C330B3F938F9386EF97E03D
:101CF0009F938F930E94D50584EF97E09F938F93D6
:101D00000E94D5058091F907282F082E000C330B6F
:101D10003F938F9381EF97E09F938F930E94D50518
:101D20008EEE97E09F938F930E94D5058DB79EB757
:101D300080960FB6F8949EBF0FBE8DBF8091EF07BF
:101D40001F928F938BEE97E09F938F930E94D50500
:101D500089EE97E09F938F930E94D5058091EE07BF
:101D60001F928F9386EE97E09F938F930E94D505E5
:101D700083EE97E09F938F930E94D5058DB79EB712
:101D80000C960FB6F8949EBF0FBE8DBF0E948D07B4
:101D90009C019091F6078091F707982B21F03093E2
:101DA000F3072093F2079091F8078091F907982B99
:101DB00021F03093F1072093F007E091FE07F091B6
:101DC000FF07309749F082E08093F4070680F7819F
:101DD000E02D84EF97E009950895662309F46DC01E
:101DE00093E3980F923098F48E3C79F08FEF8093C4
:101DF000EB078091E807823028F481E00E945C08BC
:101E00008093F7070E942C0E089581E0F0CF91E3B4
:101E1000980F923088F4803D69F08FEF8093E90746
:101E20008091E807823070F780E00E945C08809320
:101E3000F607E8CF81E0F2CF893D29F40E943C0803
:101E40008093F807DFCF8A3D21F40E943C088195FA
:101E5000F7CF8B3D31F40E943C0881958093F907C0
:101E6000D1CF8C3D19F40E943C08F8CF9FE2980F27
:101E7000983070F4815D990B21E030E001C0220FB1
:101E80008A95EAF78091F507822B8093F507BACF00
:101E90008D3D31F48091EE0781608093EE07B2CFE3
:101EA0008E3D21F48091EE078260F7CF8F3D09F0DF
:101EB000A9CF8091EE078460F0CF8D3CC1F4809172
:101EC000EB07181614F01092EB078091F60790912B
:101ED000F707892B11F41092EF078091F807909182
:101EE000F907892B09F08ECF1092ED078BCF8E3C2E
:101EF00029F48091EB0787FFE6CFE7CF8F3C39F4D9
:101F00008091E90718160CF31092E907DECF803DA7
:101F100029F48091E90787FFF7CFD7CF9091F80791
:101F2000893D29F419168CF61092F807CECF8A3D18
:101F300019F497FFCACFF8CF9091F9078B3D29F498
:101F400097FFC3CF1092F907C0CF8C3D19F4191633
:101F5000CCF3BBCF9FE2980F983090F4815D990B42
:101F600021E030E0A90102C0440F551F8A95E2F735
:101F7000CA0180959091F50789238093F507A5CF35
:101F80008D3D31F48091EE078E7F8093EE079DCFDB
:101F90008E3D21F48091EE078D7FF7CF8F3D09F0C4
:101FA00094CF8091EE078B7FF0CFB0E0A0E0EBED17
:101FB000FFE00C94FE2D8C01EB01742E690167EF9C
:101FC0004602500111248FEAE82E87E0F82E809116
:101FD0006D088170C017D10739F04E018A0C9B1C27
:101FE000F4019581911130C0882331F19E01201BAD
:101FF000310B89E39EE8289FA001299F500D389F4F
:10200000500D1124672D64039001659F300D11243C
:1020100081E0781619F182E03F932F931F928F93FE
:1020200085E897E09F938F930E94D5050F900F90BE
:102030000F900F900F900F90F601D183C083CDB712
:10204000DEB7EDE00C941A2E882331F0FF92EF9268
:102050000E94D5050F900F90E401B9CF81E0DCCF4D
:10206000B0E0A0E0E6E3F0E10C94FE2D7C015B0122
:10207000842E752E69018091320701E010E08A30CC
:1020800010F40AE010E0C1E0D0E0B501C701F601AC
:102090000995982E811114C021960C171D07B4F4D0
:1020A00080916D0880FF0CC07F928F9280E097E056
:1020B0009F938F930E94D5050F900F900F900F90D4
:1020C000892DCDB7DEB7EDE00C941A2ECC9F900190
:1020D000CD9F300D300D112490E080E045E34A950E
:1020E000F1F70000019628173907C1F7CECFA4E019
:1020F000B0E0EDE7F0E10C94082E409144075091D8
:10210000450760914607709147072FB7F894809173
:10211000030890910408A0910508B09106082FBF0C
:10212000841B950BA60BB70B11E084369105A10516
:10213000B10570F10E9408096E5F7F4F8F4F9F4F6E
:1021400069837A838B839C8380911501909116011A
:10215000855C984F4091140150E04530510510F0D6
:1021600044E050E0BE016F5F7F4F0E94E72E82E0A7
:1021700090E00E94832D182F882351F00E94810740
:1021800060934407709345078093460790934707F1
:10219000812F2496E3E00C94242EEF92FF921F935C
:1021A000CF93DF9300D000D00F92CDB7DEB77B0185
:1021B00090E080E00E94832D182F882309F487C0C7
:1021C0004091070150E04115510511F041E050E008
:1021D0006091080170910901655C784FCE01059608
:1021E0000E94E72E409137075091380760913907D8
:1021F00070913A072FB7F8948091030890910408E2
:10220000A0910508B09106082FBF841B950BA60B63
:10221000B70B84369105A105B10540F48CE397E036
:102220000E94FD059D81891709F451C081E090E06D
:102230000E94832D81111AC010E080913307909184
:102240003407A0913507B0913607F7018083918359
:10225000A283B383812F0F900F900F900F900F9058
:10226000DF91CF911F91FF90EF90089540910F0162
:1022700050E04530510510F044E050E0609110010D
:1022800070911101655C784FCE0101960E94E72E96
:102290008CE397E00E94FD059D818913CDCF0E94BC
:1022A00081076093370770933807809339079093BD
:1022B0003A0789819A81AB81BC81809333079093DF
:1022C0003407A0933507B093360711E0B6CF80915D
:1022D0003C0790913D07A0913E07B0913F0789834D
:1022E0009A83AB83BC831111E4CFA7CFACE0B0E0FD
:1022F000ECE7F1E10C94FE2D8E010F5F1F4F88E09B
:10230000D8011D928A95E9F78CE1882E81E0982EFC
:1023100092E2E92E91E0F92E77247394CC24C394B1
:10232000D12C36E2A32E31E0B32EF40181914F017E
:102330008F3F09F443C0F894E82FE295EF70F0E086
:1023400021A18F70A60102C0440F551F8A95E2F7A4
:10235000CA01922F982B91A392A18095892382A3E1
:10236000789400C062E271E0F801472D4095DB01EE
:102370009D91BD0180819F3F09F490C0292F229536
:102380002F7030E0D90190962C9130E09F7002C000
:10239000359527959A95E2F720FD80C0872980839F
:1023A0003196A616B70619F7F401319780818F3F51
:1023B00011F00E94F108B0EABA95F1F7770CE81431
:1023C000F90409F0B2CF48E050E0B8018CE497E09E
:1023D0000E94DA2E009741F028E0F801ACE4B7E063
:1023E00001900D922A95E1F70091550710E0085AE7
:1023F000184F892B09F454C081E080932A070E946A
:102400008D079093290780932807E12CF090FA0715
:10241000FF2009F4B8C019861A861B861C86D09046
:102420003207E9E0ED1508F45FC02DEC30E144E03F
:1024300052E0BE01675F7F4FC8010E9430108823C1
:1024400009F477C027E730E141E152E0BE01675F60
:102450007F4FC8010E943010882309F46AC029E028
:102460002D1508F483C0109232078091540790E034
:1024700044E050E0BE01675F7F4F885A984F0E944A
:10248000DA2E21E020933107892B09F044C0F12C8A
:102490008F2D8E292C96EDE00C941A2E84237FCF5D
:1024A000E0902A07EE2009F4B0CF809128079091A0
:1024B00029070E947207059708F4A7CF44E050E06F
:1024C0006CE477E0C8010E94DA2E892B59F084E091
:1024D000ECE4F7E0D80101900D928A95E1F71092B3
:1024E0002A0794CFE12CFBCF80912B0790912C07EA
:1024F0000E947207843F914008F097CF8091310786
:10250000882329F2FE01399684E0DF011D928A9525
:10251000E9F710923107E0915407F0E0E85AF84FDC
:1025200089859A85AB85BC8580839183A283B3839B
:10253000AFCF809132078F3F31F08F5F80933207AA
:102540008A3008F492CF0E948D0790932C078093D5
:102550002B0780916D0880FFD1CF8AEC96E09F9386
:102560008F930E94D5050F900F90C8CF80916D0872
:1025700080FF79CF87EB96E09F938F930E94D505DC
:102580000F900F9070CF84E0F801ACE3B7E00190BA
:102590000D928A95E1F78CE397E00E94FD05809308
:1025A0003B078090400790904107A0904207B09071
:1025B000430780912D0790912E07A0912F07B0918E
:1025C000300788169906AA06BB0609F461CF8092E7
:1025D0002D0790922E07A0922F07B09230070E94ED
:1025E0008107861A970AA80AB90A8092480790922A
:1025F0004907A0924A07B0924B074ACF0F931F9307
:10260000CF93DF93C091690780916F07C82B8091AA
:102610002307882359F10E948D07209121073091CB
:102620002207821B930B8835924070F080916D08D1
:1026300080FF08C084EE93E09F938F930E94D5059E
:102640000F900F900E94500B80912307C82B20E021
:102650008AE692E0FC013191CF0131112F5FF2E067
:1026600080379F07B9F721110E94500BC093680271
:1026700048E050E069E177E088E692E00E94DA2ED7
:10268000892B09F44DC088E0E8E6F2E0A9E1B7E063
:1026900001900D928A95E1F7E091FE07F091FF0716
:1026A0003097F1F10280F381E02D88E692E0099500
:1026B00080916D0882FF34C080FF0EC08091680257
:1026C0001F928F938EEF93E09F938F930E94D50577
:1026D0000F900F900F900F90C8E6D2E008EF13E034
:1026E00080916D0880FF0BC08A811F928F931F938A
:1026F0000F930E94D5050F900F900F900F90219689
:1027000022E0CE36D20761F780916D0880FF08C0C5
:1027100086EF93E09F938F930E94D5050F900F90C3
:10272000DF91CF911F910F910895CF931092690778
:10273000C6E0EAE6F2E0DF018C2F1D928A95E9F708
:1027400090E080E00E94D80790E080E00E94B3070C
:1027500010926F070E94FE12E4EFF7E0DF011D9276
:10276000CA95E9F71092EF071092ED071092EE0765
:102770001092E8071092EA071092EC071092E9070E
:102780001092EB070E942C0ECF910895AAE2B0E0C0
:10279000ECECF3E10C94082E89E198E02091F10033
:1027A000DC012D93CD01B8E081329B07B9F7809110
:1027B0001A08833009F470C0B8F4813009F447C0B6
:1027C000823009F4B1C08091E80083FF84C2809117
:1027D000190890911A089A3008F07DC2E92FF0E0AC
:1027E000EE50F14D0C94502E8A3009F48CC08B3091
:1027F00009F46FC0893039F780911908813219F7CF
:1028000080911D0890911E080297E8F68091E800DB
:10281000877F8093E8008091E80082FF38C0909124
:10282000F3008091F200029731F48091F100813041
:1028300011F0863021F48091F10080930C08809192
:10284000E8008B778093E8000E946406BCCF8091FB
:102850001908813A09F0B7CF8091E800877F80930B
:10286000E80080911D0890911E08892B61F468E0B2
:102870008DE098E070E00E9410078091E8008B776F
:102880008093E800A0CF60E090E080E0F3CF8091FB
:1028900017088111C0CF97CF80911908813A09F0AC
:1028A00092CF80911D0890911E08892B09F08BCF43
:1028B0008091E800877F8093E8008091E80080FFA6
:1028C000FCCF8091FD018093F1008091E8008E772C
:1028D000B9CF80911908813209F075CF80911D0818
:1028E00090911E08892B09F06ECF8091E800877FB8
:1028F0008093E8000E94640680911B088093FD018C
:102900000E94951360CF80911908813209F05BCF46
:102910008091E800877F8093E8000E9464068091A0
:102920001C0880930B084FCF80911908813A09F059
:102930004ACF8091E800877F8093E8008091E8008B
:1029400080FFFCCF80910B08BECF803899F0823891
:1029500009F0C1C180911D088F70873008F0BBC19C
:102960008093E9008091EB0085FB882780F9109225
:10297000E90006C0809115089091160891118260B7
:102980009091E800977F9093E8008093F100109277
:10299000F1008091E8008E779AC1882309F488C1FC
:1029A000823009F098C180911B0881118BC1809100
:1029B0001D088F702FEF280F263008F08CC18093F0
:1029C000E9002091EB0020FF7DC1933031F480912C
:1029D000EB0080628093EB0075C19091EB009061F9
:1029E0009093EB0021E030E001C0220F8A95EAF7D6
:1029F0002093EA001092EA008091EB008860EACF11
:102A0000811169C110911B081F778091E3008078C4
:102A1000812B8093E3008091E800877F8093E8001A
:102A20000E9464068091E80080FFFCCF8091E30063
:102A300080688093E30082E0111183E0809317089F
:102A40004AC18058823008F046C120911B0830915D
:102A50001C082C3DE3E03E07A1F583E08A838AE26F
:102A600089834FB7F894DE01139620E03EE051E2EF
:102A7000E32FF0E050935700E49120FF03C0E2956C
:102A8000EF703F5FEF708E2F90E0EA30C0F0C79696
:102A90008D939D932F5F243159F74FBF8091E800AC
:102AA000877F8093E8006AE270E0CE0101960E9481
:102AB00010078091E8008B778093E8000CC1C096E6
:102AC000E7CF80911D0890911E08432F5527433072
:102AD000510509F44AC078F54130510509F47AC02E
:102AE00084E590E0E1E4F8E04230510509F0F3C0FC
:102AF0002091E800277F2093E80020911F08309163
:102B000020088217930708F49C0140E02115310545
:102B100009F065C0411163C08091E80082FDC9CF12
:102B200080911708882329F2853019F28091E800F6
:102B300083FFF2CFBECF4132510509F43CC042328F
:102B4000510509F0C8C08330910508F0C4C0FC01EC
:102B5000EE0FFF1FE65AFD4F0190F081E02D895ADC
:102B60009D4FDC018C9190E01AC033272130310554
:102B7000D1F02115310561F02230310509F0ABC0EB
:102B8000E7EAF8E0E4918E2F90E0E7EAF8E007C08A
:102B9000E1EEF8E0E4918E2F90E0E1EEF8E00097AE
:102BA00009F499C0A5CFE7EBF8E0E4918E2F90E00F
:102BB000E7EBF8E0F4CF8330910508F08CC0880F84
:102BC000991FFC01E05AFD4F0190F081E02D89E052
:102BD00090E08ECF82E190E0E5E9F8E089CF809146
:102BE0001708882309F465CF853009F462CF8091F6
:102BF000E80083FD5ECF8091E80082FD8DCF80915B
:102C0000E80080FF83CF9091F3008091F2002115BE
:102C1000310519F08830910550F041E0089709F02E
:102C200040E08091E8008E778093E8006FCF449178
:102C30004093F1003196215031090196E8CF803858
:102C400009F049C08091E800877F8093E800809177
:102C500018088093F1009DCE81113DC010911B0892
:102C60001230C8F58091E800877F8093E8001093C8
:102C700018080E946406112311F084E005C08091B9
:102C8000E30087FDFACF81E08093170842E061EC12
:102C900081E00E94830642E261EC82E00E948306AA
:102CA00042E261EC83E00E9483068091170813C022
:102CB00080911B08813079F481E0933009F080E045
:102CC000809316081092E9008091E800877F809336
:102CD000E8000E9464068091E80083FF0AC08091AA
:102CE000E800877F8093E8008091EB00806280930A
:102CF000EB00AA96E3E00C94242E0E9495132FEF8C
:102D000084E39CE0215080409040E1F700C0000047
:102D100088E19CE00FB6F894A895809360000FBE00
:102D200090936000FFCF80916C07882349F08091D9
:102D30006F078D7D80936F070E94FE1210926C07C3
:102D40000895882321F00E94840B0E94FE120895AA
:102D5000882339F090916907982B909369070E9416
:102D6000FE1208958823D1F19CEF980F913A78F4E0
:102D7000EAE6F2E09191891303C0DF0111971C92FA
:102D800092E0E037F907B1F70E94FE12089590E251
:102D9000980F983050F4877091E001C0990F8A9590
:102DA000EAF7892F0E94840BEFCF9BE5980F9330B1
:102DB00028F490E080E00E94D807089598E5980FE5
:102DC0009B3128F490E080E00E94B307089593E3DC
:102DD000980F933118F460E00E94ED0E0895CF93A0
:102DE000C82F8823B1F08CEF8C0F813A00F5EAE60A
:102DF000F2E080E792E0DF012D91C21761F08A17BF
:102E00009B07D1F76C2F88E692E00E9499070E94F9
:102E1000FE12CF9108952191C21303C0DF011197D3
:102E20001C928E179F07B9F70E94FE12EBCF80E22B
:102E30008C0F883068F4C77021E030E001C0220FA9
:102E4000CA95EAF780916907822B80936907DFCFE3
:102E5000EBE5EC0FE33040F4F0E0E45EFD4F808101
:102E600090E00E94D807D5CFE8E5EC0FEB3150F4A5
:102E7000F0E0EE0FFF1FE15EFD4F808191810E9427
:102E8000B307C7CF83E38C0F833118F661E08C2F33
:102E90000E94ED0EBECF1F93CF93DF93182FEB014F
:102EA0000E94EF16209739F4812F0E94B216DF910D
:102EB000CF911F9108958FE99FE00197F1F700C02E
:102EC00000002197EFCF0F931F93CF93DF93C62F6F
:102ED000D42F022FFC0185818823A9F0609370080C
:102EE0000E948D0790936F0880936E08C77081E0F1
:102EF00001C0880FCA95EAF70E94A816DF91CF910A
:102F00001F910F91089580917008681334C08091CB
:102F10006E0890916F080E9472078C3D910558F5DC
:102F200010E21D0FCD17B9F080E28C0F883040F40D
:102F3000C77081E001C0880FCA95EAF70E94A11608
:102F4000183048F481E09D2F977001C0880F9A9542
:102F5000EAF70E94A81670E060E0802F0E944B17ED
:102F6000183060F6D77081E001C0880FDA95EAF773
:102F70000E94A116C3CFC77081E001C0880FCA9517
:102F8000EAF7F6CFB0E0A0E0E8ECF7E10C94012E10
:102F9000EC018AE0A82EFE012491222309F4A1C0AD
:102FA000213009F044C031968491813061F4229639
:102FB000FE01849170E060E0893311F460E570E017
:102FC0000E944B1707C0823039F42296FE0184918B
:102FD0000E94EF162196DFCF833031F42296FE0156
:102FE00084910E94B216F6CF843009F078C0229600
:102FF000FE01249190E080E0FE0131962053330BD6
:103000002A30310548F0019728F3EFE9FFE03197C6
:10301000F1F700C00000F7CFA89EA001A99E500DB7
:103020001124C901840F951F2491EF01E5CFE22FF0
:10303000F0E0E459F64FB490822F869586958695F8
:1030400090E0FC01E45AF64FE4902770F12C022E38
:1030500002C0F594E7940A94E2F731E0E322FF24FA
:10306000FC01E45BF64FC490D12C022E02C0D59433
:10307000C7940A94E2F7E1E0CE22DD24FC01E45C8F
:10308000F64F049110E002C0159507952A95E2F7D6
:1030900001701127E114F10419F081EE0E94EF167E
:1030A000C114D10419F086EE0E94EF1670E060E0C2
:1030B0008B2D0E944B17C114D10419F086EE0E948B
:1030C000B216E114F10419F081EE0E94B216011556
:1030D000110509F47FCF70E060E08CE271CFEF0161
:1030E00079CFCDB7DEB7EAE00C941D2ECF93DF93F6
:1030F000EC01009711F080FF04C086E197E00E9488
:10310000C217D093E707C093E607DF91CF910895E8
:1031100021E030E002C0220F331F8A95E2F72095AC
:1031200030958091E6079091E707822393230E94D0
:103130007618089590911807809589238093180731
:10314000282F277069F4891759F09091570792FF3B
:1031500007C08695869586950E9488180E948B0BDD
:103160000895CF93C82F8091570782FB992790F934
:103170009C17F9F0C0FB82F98093570760915607BE
:103180007091570784E090E00E94C42E82E00E9474
:103190009A1880916D0880FF0CC01F92CF938FEC1E
:1031A00093E09F938F930E94D5050F900F900F90FF
:1031B0000F90CF91089521E030E002C0220F331F1D
:1031C0008A95E2F78091E6079091E707822B932B8F
:1031D0000E94761808959091570792FF10C098E0CA
:1031E000899F90011124622B609318070E94DB18BD
:1031F0000E948D07909317078093160708950E94E9
:10320000DB1808951F93CF93DF93182FC1E0D0E010
:1032100002C0CC0FDD1F8A95E2F78091F1069091F4
:10322000F2068C239D23892BD1F480911807869573
:1032300086958695181302C00E948B0B812F0E94E1
:10324000DB188091F1069091F206C827D927D09318
:10325000F206C093F106DF91CF911F910895812F5F
:103260000E948818EECFA8E0B0E0E9E3F9E10C9401
:10327000092E66EE7EEF90E080E00E94C42E60E0B2
:1032800082E090E00E94A62E81E090E090932507D6
:103290008093240761E083E090E00E94A62E60E026
:1032A00074E184E090E00E94C42E60E086E090E04B
:1032B0000E94A62E60E087E090E00E94A62E40E0EB
:1032C00050E0BA0188E090E00E94B82E60E084E20D
:1032D00090E00E94A62E60E087E190E00E94A62E7A
:1032E00060E08CE090E00E94A62E60E08DE090E02F
:1032F0000E94A62E19821A821B821C821D821E82A7
:103300001F82188648E050E068E170E0CE01019627
:103310000E94962E40E050E0BA0180E290E00E94C8
:10332000B82E40E050E0BA018FE090E00E94B82E45
:1033300040E050E0BA0183E190E00E94B82E289668
:10334000E2E00C94252EB0E0A0E0E9EAF9E10C946B
:10335000022E8C01FC018481882309F498C061E06D
:10336000C8010E94970CEC018091F0068111B8C051
:10337000F801858181110CC0C435FCE7DF0709F431
:103380008BC008F048C0C3353CE7D30709F455C0EB
:103390002091E6073091E7078091F1069091F206BF
:1033A000A9014095509548235923452B31F082239C
:1033B00093239093F2068093F106C034FEE7DF0773
:1033C00009F0D6C0F8018581882309F451C0832F04
:1033D0009927009709F4CAC09C0188E0A90174E00C
:1033E000569547957A95E1F74115510511F08C5F97
:1033F0009A01A9015695479556954795411551054E
:1034000011F08E5F9A0136952795232B09F08F5F77
:103410000E9402192DC0C6358CE7D80709F456C0A2
:10342000C7359CE7D90709F0B3CF609100017091CF
:1034300001014FEF87EE96E050C080916D0880FF4C
:1034400008C084E392E09F938F930E94D5050F906C
:103450000F900E94951390E080E00E94761880E71C
:1034600092E090936C0880936B0881E08093F00663
:1034700080911807877059F0F8018581882339F009
:103480008091570782FF03C082E00E949A18CDB74F
:10349000DEB7E9E00C941E2E80916D0880FF08C015
:1034A00084E392E09F938F930E94D5050F900F9035
:1034B0000E94951390E080E00E94761887EE96E0D7
:1034C00090936C0880936B0882E0D0CF60910201EA
:1034D0007091030141E080E792E00E94D820C8CFBC
:1034E0009E0123553C472330310538F591E0C53521
:1034F000DC4709F490E0F8012581291709F4B8CFD9
:10350000813029F0823079F01092F006B1CF6091CD
:103510006B0870916C0822E031E041E080E792E0B6
:103520000E94D50FF1CF60916B0870916C0820E07C
:1035300031E04FEF87EE96E0F3CF813061F08230DB
:1035400009F026CF609102017091030198014FEFBD
:1035500087EE96E008C0609100017091010198012A
:1035600041E080E792E00E94AA0D12CF80E036CFC2
:10357000C115F2E5DF07A0F4C11520E5D207A8F5D3
:10358000C11530E4D30708F051C0FE01E154FE47F5
:10359000E132F10508F08FC1E450F14D0C94502E4A
:1035A000C03282E5D80788F3C03492E5D90728F005
:1035B000CE01805C9245809740F78C2F8F7121E07F
:1035C00030E0082E02C0220F331F0A94E2F7409128
:1035D000F1065091F20624233523232BB1F2F80192
:1035E0009581992309F444CF13CFCE0145E09695F8
:1035F00087954A95E1F78F7021E030E0082E02C0F0
:10360000220F331F0A94E2F74091F1065091F2061F
:1036100024233523232B09F4B8CFF8019581911188
:10362000F7CE109269070E94FE1222CFF801868120
:10363000807F09F0AACF85818111A7CF2D2F2F7010
:1036400081E090E002C0880F991F2A95E2F720914F
:10365000F1063091F20682239323892B09F495CF4A
:1036600007CFF8018581882321F083EA93E00E9447
:10367000C217F090230780916907F82A80916C07A0
:10368000882309F42CC10E948D0788579C4E909383
:103690006B0780936A07F8018581882309F426C1A6
:1036A0008F2D8D7909F06FC1C034F2E5DF0708F086
:1036B00042C1C11522E5D20708F018C1C11530E496
:1036C000D30708F01EC1C11580E2D80708F050C129
:1036D000C63ED10509F40AC1CE011EC1F80185819B
:1036E000882339F28EE993E0C2CFF80185818823DF
:1036F00009F4BFCF89E993E0BACFF8018581882327
:1037000009F4B7CF84E993E0B2CFF801858188232B
:1037100009F4AFCF86E793E0AACFF801858188232B
:1037200009F4A7CF8CE693E0A2CFF8018581882326
:1037300009F49FCF81E693E09ACFF8018581882331
:1037400009F497CF88E593E092CFF801858188232B
:1037500009F48FCF8CE493E08ACFF8018581882328
:1037600009F487CF85E493E082CFF801858188232F
:1037700009F47FCF85E393E00E94C2178EE293E0C5
:1037800076CFF8018581882309F473CF8CE093E02C
:103790000E94C21782E093E06ACFF80185818823F6
:1037A00009F467CF8AEF92E00E94C21786EF92E099
:1037B0000E94C21782EF92E00E94C2178EEE92E042
:1037C00056CFF8018581882309F453CF8EED92E01E
:1037D0004ECFF8018581882309F44BCF8EEC92E01F
:1037E00046CFF8018581882309F443CF85EC92E028
:1037F0003ECFF8018581882309F43BCF89EB92E025
:1038000036CFF8018581882319F08DEA92E02FCF19
:1038100086EA92E02CCFF8018581882309F429CF2C
:103820008CE992E024CFF8018581882309F421CF27
:1038300085E992E01CCFF8018581882309F419CF2E
:1038400088E892E014CFF8018581882309F411CF2C
:1038500081E892E00CCFF8018581882309F409CF33
:103860008AE792E004CFF8018581882309F401CF2B
:1038700083E792E0FCCEF8018581882309F4F9CE34
:103880008CE692E0F4CEF8018581882309F4F1CE2C
:1038900085E692E0ECCEF8018581882309F4E9CE33
:1038A0008EE592E0E4CEF8018581882309F4E1CE2B
:1038B00087E592E0DCCEC337FCE7DF0709F0D9CE1D
:1038C000F8018581882309F4D3CD80916C07882382
:1038D00019F00E949316CCCD0E945B0BC9CDF2E289
:1038E000FF1204C00E945B0B10927008FE01E851A9
:1038F000FC47E730F10508F07FC0E35EF04D0C9423
:10390000502EC11590E5D90708F0E6CEF801868162
:10391000807F61F3CE01992710926F07883291055D
:10392000E8F58E31910508F03FC0049760F182E020
:1039300080936F0739C0C03EE2E5DE0790F4C03CDB
:10394000F2E5DF0798F6C03622E5D20708F4C4CEC8
:10395000C03A32E5D30750F2C43B82E5D80731F2D2
:10396000BBCECE0187579C47029708F0B5CEBECF9D
:10397000F8018681807F71F68D2F8F71823159F029
:1039800028F4823041F00E949316B0CF843109F4BC
:10399000ADCF8631C1F710926F07F5CF8D3291050B
:1039A00031F228F48A9779F70E94FE129FCF8C3467
:1039B0009105D1F38D329240B9F3E5CF26E241EE85
:1039C00061EEC8010E94631753CD27E245EE65EE14
:1039D000F8CF26E241EE60EEF4CF27E245EE64EE4A
:1039E000F0CF26E241EE62EEECCF27E245EE66EE46
:1039F000E8CF28E241E0EBCFF8018581882309F484
:103A000092C310927008CE019057839708F077C345
:103A100084E090E00E94902E909357078093560781
:103A2000FE01E150F047E232F10520F4EC5DF04D8B
:103A30000C94502E8091560781608093560795C054
:103A4000809157078860809357078FC080915607F1
:103A50008260F3CF809156078460EFCF8091560744
:103A60008860EBCF809157078160EDCF8091570739
:103A70008260E9CF809156078061DFCF8091560741
:103A80008062DBCF809156078064D7CF0E94951368
:103A9000809156078068D1CF809156078C60CDCF3A
:103AA000809157078360CFCF809156078E7FC5CF17
:103AB00080915707877FC7CF809156078D7FBDCFF5
:103AC000809156078B7FB9CF80915607877FB5CFFE
:103AD000809157078E7FB7CF809157078D7FB3CFE7
:103AE000809156078F7EA9CF809156078F7DA5CFF5
:103AF000809156078F7BA1CF0E9495138091560726
:103B00008F779BCF80915607837F97CF8091570700
:103B10008C7F99CF8091560782FB992790F921E0FD
:103B2000922790FB82F990FB83F987CF809157070A
:103B3000982F909591708E7F892B90FB81F983CF80
:103B400090915607892F8F7B96FF806476CF0E94D5
:103B5000951390915607892F97FB87F980586DCF61
:103B600061E08EE090E00E94A62E60915607709171
:103B7000570784E090E00E94C42E0E94951378CCF1
:103B800060E0EFCF90915607892F8F7E94FF806180
:103B900054CF90915607892F8E7F90FF81604DCF33
:103BA00090915707892F877F93FF88604CCF85E3DB
:103BB000C3C290916D08892F8E7F90FF81608093A2
:103BC0006D0880FF09C08EEB93E09F938F930E9456
:103BD000D5050F900F904CCC8CEA93E0F6CF6FEFA9
:103BE0007FEF90E080E00E94C42E0E947D168091BD
:103BF000570782FB882780F991E089270E94B11836
:103C0000F80187819085009709F43FC00E94320A2D
:103C1000D82FC92FF801E580D680D2943FE0D32277
:103C200080911807877001F1CE2CEE20F1F0892FDA
:103C3000807F803461F080E28D0F8830A8F0892F7A
:103C4000807E803221F4D23078F0DD2069F08091DE
:103C5000570782FF09C082E00E949A1880911807D6
:103C60008770CC24C3948111C12CBC2EB2942FE058
:103C7000B222FBE0FB1508F47FC0EB2DF0E0EA5B1D
:103C8000F04D0C94502E80E0B9CF8581C081D18158
:103C9000882369F0CE010E94A60BF82E682FCE0172
:103CA0000E941A0CBE018F2D0E94130AAFCFCE01C5
:103CB0000E94E70BF82EF6CF2C2F2F70F22EC07F2C
:103CC00019F0F29490EFF922EE20B9F0FF2069F09C
:103CD00080E28D0F883010F0D11109C08091690702
:103CE000F82AF09269070E94FE128D2F43C080913E
:103CF0006F07F82AF0926F07F6CF8D2F0E94B21649
:103D0000FF20D1F180E28D0F883010F0D11104C076
:103D10008F2D0E94840B06C0F09480916F07F822CB
:103D2000F0926F070E94FE1227C03C2F3F70F32EC7
:103D3000C07FC03219F0F29480EFF822DD2351F0F9
:103D4000D13009F487C0EE2009F493C0DD2009F4D6
:103D500041C0CBCF8091570782FD38C0EE2081F162
:103D6000FF2039F080916907F82AF09269070E94D4
:103D7000FE1280E00E94EF162B2D2850330B2430CA
:103D8000310510F40E94FD07CC20A9F0809118079E
:103D900080FD11C0F80115828695869586950E9452
:103DA000DB18C8010E94A319809118078695869593
:103DB00086950E94881860E0C8010E94970C67CB26
:103DC00080E00E94B216FF20B9F2A2CFEE2069F186
:103DD000D11004C08F2D0E94A816CECF81E0D8123A
:103DE00010C0C09123078F2D8C23F81629F20E9452
:103DF0008D079093220780932107FC2AF0922307D6
:103E0000BBCF93E0D912B8CF8F2D0E94A8168F2D6B
:103E10000E946F0B809115079F2D9823F91609F4C6
:103E2000ABCFF82AF0921507A7CFD1100AC08F2D7B
:103E30000E94A1168F2D0E946F0B8F2D0E94920B56
:103E40009BCFE1E0DE1298CF809169078F2109F4C2
:103E500093CFEDCFEE2029F0F3E0FD1508F48CCFE1
:103E6000B9CF22E02D1508F487CF8F2D0E94A1161F
:103E700083CFDD20D1F3D93349F43FEF87EE93E0D0
:103E8000315080409040E1F700C000008D2F0E942B
:103E9000B21672CF8C2F86958695837069F081302B
:103EA00009F06ACF8D2F9C2F9370E11002C080E043
:103EB00090E00E94B30760CF8D2F9C2F9370E1108C
:103EC00002C080E090E00E94D80756CF6E2D8D2F63
:103ED0000E94ED0E51CF8C2F837009F03FC0E1108E
:103EE0004BCF4D2F429546954770440F440F2D2FD1
:103EF0002F7030E0042E02C0220F331F0A94E2F725
:103F000090E080E0D4FF09C08FE090E002C0880F0D
:103F1000991F4A95E2F780959095C695C695C3700E
:103F2000C23099F078F44091240750912507C130B0
:103F300039F0822B932B842395230E94500C1CCFA5
:103F4000242B352B822B932BF8CF822B932B209174
:103F500024073091250782279327EFCF8695EE20FF
:103F600011F08C2F8170882309F406CF4D2F4295D4
:103F700046954770440F440F2D2F2F7030E0042ECC
:103F800002C0220F331F0A94E2F790E080E0D4FFD2
:103F900009C08FE090E002C0880F991F4A95E2F7B0
:103FA00080959095C695C695C370C23099F078F407
:103FB0004091E6075091E707C13039F0822B932BEF
:103FC000842395230E947618D7CE242B352B822B61
:103FD000932BF8CF822B932B2091E6073091E707A4
:103FE00082279327EFCFCF70EE2029F08C2F0E94ED
:103FF000DB188D2FF0CE8D2F0E94A1168C2F0E94E2
:104000008818BACED23F71F160F4D03FB9F0D13FF9
:1040100081F0EE2009F463C0D11067CE8C2F8F7130
:1040200025C0D33F31F1D43FA1F78091570782FDDE
:104030002EC08C2F8F71EE2011F318C0EE2069F086
:10404000E2E0ED1508F498CECF7181E090E002C077
:10405000880F991FCA95E2F7BFCFF3E0FD1508F46A
:104060008BCEF2CF8C2F8F71E110C9CF0E94DB185D
:1040700083CE90E080E0EE2009F4A4CFCF7181E000
:1040800090E002C0880F991FCA95E2F79BCFEE20FF
:10409000C9F0809118078770843041F40E948B0B1F
:1040A0008C2F8F710E948818C12C66CE22E02D15AE
:1040B000D8F3CF718C2F0E94DB1863E08C2F0E9405
:1040C000EB18F2CF32E03D1530F40E948B0B64E028
:1040D0008C2F8F71F4CF81E00E949A18E5CFDD20FC
:1040E00059F0D93309F0D2CE8FEF97EEE3E081504B
:1040F0009040E040E1F7C8CE8C2F8F7180CFC63161
:10410000FCE7DF0739F5809169078A7A91E009F4C5
:1041100090E09093F30669E2811165E388E692E00E
:104120000E94990780CAC631DC4709F069CD8091A9
:10413000F30681113CCD89E2EAE6F2E020E732E0C5
:104140009191891303C0DF0111971C922E173F072D
:10415000B9F769CAC3303CE7D30709F440CDC0F4CE
:10416000C1309CE7D90709F440CD08F022CDC11534
:10417000DC4709F045CD0E949513FFEF24E33CE0B6
:10418000F15020403040E1F700C000000E94860D51
:10419000CB352CE7D20709F476CDCC353CE7D307F5
:1041A00009F425CDCA35DC4709F02ACD81E026CDBA
:1041B000B0E0A0E0EEEDF0E20C94032EEC017B0108
:1041C000042F80916D0880FF10C082E0413009F417
:1041D00081E01F928F9384E697E09F938F930E94D4
:1041E000D5050F900F900F900F90C090E607D090DC
:1041F000E7070E94951390E080E00E94761829E07E
:10420000020280011124CE15DF0551F40E9495139E
:10421000C6010E947618CDB7DEB7E8E00C941F2ED9
:10422000CE010E94A319C00FD11F8FEF90E722E0AB
:10423000815090402040E1F700C00000E4CFCF93D0
:10424000DF9380911207807F09F04DC080911107A4
:10425000882309F448C0E0916A0850912108C09170
:104260000D07D0910C0760910E0770910F0749E080
:104270005E17C9F18E2F90E0E49FF0011124EE5DEE
:10428000F74F2481222391F1489FF001499FF00DBF
:104290001124DF01AE5DB74F11962C9111972C13AD
:1042A00025C02C912D1322C015962C911597211104
:1042B0001DC012962D913C91261B370B2C3D3105CC
:1042C000A8F4809112078F70806180931207E85DD7
:1042D000F74F80818F70806180838CE097E00E942F
:1042E000A3190E949C0BDF91CF910895FC01319698
:1042F000E770BECFA8E1B0E0E0E8F1E20C94FE2D5B
:104300008C0186E0F801DE01539601900D928A95AA
:10431000E1F7F801F480E5808CE0882E87E0982EA4
:104320008091100781112AC0F11003C0FF24F3947B
:104330001CC0EE20F9F0C8010E94550CF82E88230D
:10434000C9F089E0F801ACE0B7E001900D928A95E0
:10435000E1F780911007813031F480910C07909142
:104360000D070E94DA0B0E941F218F2D6896EDE049
:104370000C941A2EC8010E94A319D8CF7080A18076
:10438000C280D38060E08CE097E00E94970CB090F0
:10439000110780910E0790910F07BB2009F414C1FB
:1043A0009601281B390B2C3D310508F0B6C0FF20C3
:1043B00009F4BCCF20910D07F8019181809112077B
:1043C000382F307F09F05AC0FE2C29131DC02091D0
:1043D0000C079081291318C04091130750911407BE
:1043E000278130854217530779F4E1103AC18F7065
:1043F0008061809312078CE097E00E94A31980915E
:104400001207F8018683B1CFE1102BC16A2D872DE9
:104410000E94DE056A2D872D0E94DE05E82E81119F
:10442000A4CF7B8AAC8A8B899C890E94DA0B292FC6
:1044300022952F70243058F49F70223088F09923F1
:1044400099F0F8019681907F79F4FE2C8ECF2A5F47
:104450002F70223068F0C8010E94A319EB2CF5CF11
:10446000992311F0882389F3805E883070F3F3CFAD
:10447000803F58F3815F833070F7E7CF29131EC068
:1044800020910C079081291319C040911307509176
:104490001407278130854217530781F4E1100EC0BD
:1044A0008683C8010E94A31989E0F801ACE0B7E057
:1044B00001900D928A95E1F7FB2C57CFC8010E941D
:1044C000550C882309F456CFEE2009F453CF809180
:1044D00012078032B8F020910C0730910D073B870E
:1044E0002A87DD86CC86909110079E871F86888B51
:1044F00080911307909114079A8B898BCE010A96AD
:104500000E94A31989E0F801ACE0B7E001900D9298
:104510008A95E1F70E941F2109CF80911207982FF9
:10452000907F59F48CE097E00E94A31989E0F40190
:1045300011928A95E9F7F12C18CFFF2009F4F6CEF5
:1045400020910D07F801918129131AC020910C07C1
:104550009081291315C040911307509114072781AA
:1045600030854217530761F4E1100AC08683C80101
:104570000E94A31989E0F40111928A95E9F79CCF72
:10458000C8010E94550C882309F4F4CEEE2009F4EA
:10459000F1CE80911207803208F4B4CF20910C073D
:1045A00030910D073A832983DC82CB8290911007EA
:1045B0009D831E828F8380911307909114079987A2
:1045C0008887CE0101969CCFC81AD90AFCEDCF1678
:1045D000D10408F0ABCFFF2009F4A8CEFE2CEE20CA
:1045E00009F4C8CE90910D07F801818198132BC072
:1045F00090910C078081981326C020911307309169
:1046000014078781908528173907E9F490911207DC
:1046100090FD10C0907F71F0809112078683903FCB
:1046200031F0982F907F905F8F70892B8683C8011F
:104630000E94A31989E0F801ACE0B7E001900D9267
:104640008A95E1F792CEC8010E94550C81115ACF8C
:1046500080911207816080931207C8010E94A319FC
:1046600084CE8091120781608093120764CFA2E10B
:10467000B0E0EDE3F3E20C94072E0A871B872C874A
:104680003D874E875F87688B798B8A8BCE010A9630
:104690000E947A2181110CC089E0FE013A96DE0168
:1046A000119601900D928A95E1F78E8581110BC0CC
:1046B00019E080916A0890912108891331C06296AF
:1046C000E4E00C94232E2091210830E0C9010196EA
:1046D0008770992740916A084817190699F099E060
:1046E000929FD001939FB00D1124AE5DB74FFE0194
:1046F000319601900D929A95E1F7809321080E94DE
:104700009C0BD6CF0E9495131092210810926A0834
:1047100089E0ECE0F7E0DF011D928A95E9F7C8CF68
:10472000819FC00111248E5D974F0E947A218823BA
:1047300031F280916A0890E0019687709927809302
:104740006A08B7CFEF92FF920F931F93CF93DF9337
:1047500080917107882361F0E09170078DE0F82E59
:1047600080917107E81748F0109271071092700756
:10477000CDB7DEB7E6E00C94212EEE24E394EE0EE6
:10478000E0927007CE2FD0E0EF9DF0011124EE589B
:10479000F84F84818823E9F087819085892B21F463
:1047A00081859285019659F400811181228133819E
:1047B000448155816681778180850E943723FC9EE4
:1047C000F001FD9EF00D1124EE58F84F1482109266
:1047D0006F07EE2DC5CF1092E5071092E4071092F7
:1047E000FC018091E3078093E2070E94DF080E94AA
:1047F000A2230895B0E0A0E0E0E0F4E20C94F92DEB
:10480000C091E207E7E0FE2E01E010E0FDE02F2E70
:10481000EE24E3948091E3078C1309C00E94A22345
:104820000E94DF08CDB7DEB7E2E10C94152ED0E090
:10483000FE01EE0FFF1FE652F84F80819181F89E36
:10484000F001F99EF00D1124EF5CFE4F248121113F
:104850005AC030907107A2E7B7E030E020E0412C69
:104860005F01231508F04DC01B966D907C901C973E
:10487000F501808091804FEF5FEF512CC52CD12C3A
:10488000F601EE0FFF1FE80DF91D65917491661694
:10489000770609F4A601672B11F05394EFCF4F3F31
:1048A0005407B9F1B80102C0660F771F4A95E2F7C5
:1048B000462AA801052C02C0440F551F0A94E2F7AE
:1048C000415051094416150609F5229EF001239E18
:1048D000F00D1124EE58F84FF89ED001F99EB00D5E
:1048E0001124AF5CBE4F12962D913C9113973087E7
:1048F000278374E0748310821182928781871596D2
:10490000EC920E94B1082196C37084CF14961C9239
:1049100014972F5F3F4F1D96A4CFAEE1B0E0E3E9BF
:10492000F4E20C94F92D4B8B5C8B6D8B7E8B8F8B13
:10493000988F911110926F07188A198A1A8A86E047
:10494000FE017396DE011A9601900D928A95E1F7A9
:104950008091570782FF1CC00E948D072091160787
:1049600030911707821B930B8835924020F080917D
:10497000180782FFECC10E948D072091210730911A
:104980002207821B930B8835924010F00E94500B37
:104990008E85882379F061E0CE010A960E94970CFB
:1049A00080354CE7940791F48F85882321F181E0CD
:1049B0008093FC010A851B852C853D854E855F858E
:1049C000688979898A890E943723CEC081355CE75E
:1049D000950731F48F85882371F00E94EB23EACF8D
:1049E00082359C4741F48F85882329F08091FC0112
:1049F0008111F3CFDCCF6A857B8586E00E94130AA4
:104A00004C01F1E3EF2EF1E0FF2E512CD12CC12C03
:104A1000AA24A394B12CB7E04B2E9E012F5F3F4FE9
:104A20003A8F298F33243394F701408151816624D2
:104A30006A94762C60E0262F30E0F901EE0FFF1F1C
:104A4000E40FF51F859194918816990609F43901B0
:104A5000892B11F06F5FEFCF10E0FFEF6F167F062D
:104A600009F443C0F70144811091FC01812F4111E9
:104A700080E0182F1170F701258086819F8599238A
:104A800009F4F2C0112309F4EFC0211014C09501FC
:104A9000062C01C0220F0A94EAF7822B86838091AC
:104AA0006D0790916E07CC9730F42CE330E0309393
:104AB0006E0720936D07C50102C0880F991F6A9584
:104AC000E2F70197F70126812817190671F4809102
:104AD000E4079091E507009709F44AC00E94720725
:104AE000CD9708F445C0F7013482512AFFEFCF1A61
:104AF000DF0A27E0E20EF11C3DE1C316D10409F004
:104B000093CF8F85882309F40EC1552009F40BC17A
:104B10000E948D079093E5078093E40780917107C9
:104B2000883010F591E0980F9093710799E0FE019D
:104B30003A96DE01119601900D929A95E1F74DE0BB
:104B4000849FC00111248E58984F29E0FE013196B0
:104B5000DC0101900D922A95E1F72FEF3FEFFC0168
:104B600032872187948683866E96E2E10C94152E17
:104B70008091E2076091E307982FF0E0E0E0861370
:104B800014C09093E207EE16FF0609F4AECF90E052
:104B9000FC01EE0FFF1FE652F84FD182C082019652
:104BA000837099278093E307A0CF682E712CF301BF
:104BB000EE0FFF1FE652F84F20813181429ED00157
:104BC000439EB00D1124AF5CBE4F2D913C911197C7
:104BD0003E8F2D8F00E070E0212CE22DF0E0EE0FF3
:104BE000FF1F2D8D3E8DE20FF31F2591349121156E
:104BF0003105E1F0F7010190F081E02DFC8FEB8FA2
:104C000070E005C02417350709F4012F7F5FE72FF7
:104C1000F0E0EE0FFF1F4B8D5C8DE40FF51F45910B
:104C200054914115510571F72394D7CF0023C9F052
:104C3000F701721508F0FD013482EE16FF0621F42B
:104C40009093E207102F51CF891305C0AE17BF070D
:104C500011F49F5F937093012F5F3F4F822F8370FA
:104C60008ECFF0E0E0E0F7CF90E021101FC095017B
:104C700002C0220F331F6A95E2F72150310928172D
:104C8000390731F4442309F44CC0C6010E94B1082D
:104C9000C501062C01C0880F0A94EAF7982F909559
:104CA000F701868189238683122D1FCFAC01062C44
:104CB00002C0559547950A94E2F7BA0161707727CB
:104CC0009C012150310982239323892B31F5672BD5
:104CD00021F1F70182819381892BE1F0E98DFA8D31
:104CE000242D11922A95E9F70E948D07282F8B8396
:104CF0009C8334E03D83F70182819381782F8887FC
:104D0000998709811A813C8144E05E816F81892FF6
:104D10000E943723F7011582BBCFF42FF1702F2E9D
:104D2000B7CF212EB5CF9091E2078091E307981776
:104D300029F00E94FA23511017CF3CCE0E94A223E3
:104D40001092E5071092E4070E94DF08F4CF82E09A
:104D50000E949A1810CEA6E0B0E0E1EBF6E20C94C7
:104D6000072E0E948D078C018091260790912707BE
:104D70008017910781F019821A820E948D07682F8F
:104D800049815A81792F80E090E00E948D24109310
:104D90002707009326072696E4E00C94232E1F9203
:104DA0000F920FB60F9211242F933F934F935F935F
:104DB0006F937F938F939F93AF93BF93CF93DF9323
:104DC000EF93FF93D091E900DF708091EC00C82F42
:104DD000C17080FDC0E81092E9008091F000877FEB
:104DE0008093F00078940E94C6131092E90080919D
:104DF000F00088608093F000CD2BCF70C093E90065
:104E0000FF91EF91DF91CF91BF91AF919F918F91E2
:104E10007F916F915F914F913F912F910F900FBEB6
:104E20000F901F9018951F920F920FB60F9211249A
:104E30002F933F934F935F936F937F938F939F93A2
:104E4000AF93BF93EF93FF938091E10082FF15C072
:104E50008091E20082FF11C08091E1008B7F8093FE
:104E6000E100209109082F5F822F62E30E94302E1B
:104E7000992309F4D0C0209309088091DA0080FFBB
:104E80002CC08091D80080FF28C08091DA008E7FEE
:104E90008093DA008091D90080FFF3C080E189BD62
:104EA00082E189BD09B400FEFDCF81E0809317083F
:104EB0008DE298E09F938F930E94D50580910A0818
:104EC0000F900F90811109C00E9414060E94B50630
:104ED0008091E20084608093E2008091E10080FF95
:104EE0001FC08091E20080FF1BC08091E2008E7F96
:104EF0008093E2008091E20080618093E2008091E3
:104F0000D80080628093D80019BC85E08093170890
:104F100085E398E09F938F930E94D5050F900F90A3
:104F20008091E10084FF33C08091E20084FF2FC0B4
:104F300080E189BD82E189BD89B5982F917080FF9C
:104F4000FBCF8091D8008F7D8093D8008091E100C5
:104F50008F7E8093E1008091E2008F7E8093E2005B
:104F60008091E20081608093E2008091180888239C
:104F700009F495C084E08093170889E398E09F9333
:104F80008F930E94D505809117080F900F90809104
:104F9000E10083FF2FC08091E20083FF2BC080914E
:104FA000E100877F8093E10082E0809317081092F0
:104FB00018088091E1008E7F8093E1008091E200EB
:104FC0008E7F8093E2008091E20080618093E20016
:104FD00042E060E080E00E9483068091F0008860FB
:104FE0008093F0008DE398E09F938F930E94D50506
:104FF0000F900F90FF91EF91BF91AF919F918F9183
:105000007F916F915F914F913F912F910F900FBEC4
:105010000F901F9018951092090880910808882316
:1050200009F42BCF809117088430C1F49091E900E6
:105030009F702091EC00822F817020FD80E8892BE9
:1050400093E09093E9009091EB0090FF04C0909161
:10505000EE0097FD08C08F708093E9001092080859
:105060000CCF1092F1009091E80095FDFACF90914D
:10507000E80090FFF0CF9091E8009E779093E800D1
:10508000EACF19BC1092170881E398E09F938F93A1
:105090000E94D50510920A080F900F901ECF8091A4
:1050A000E30087FD93E09093170867CF78941F92F1
:1050B0001FB61F9211248F939F93AF93BF9380913C
:1050C000030890910408A0910508B0910608019684
:1050D000A11DB11D8093030890930408A0930508B7
:1050E000B0930608BF91AF919F918F911F901FBE03
:1050F0001F9018951F921FB61F9211248F939F9394
:10510000AF93BF9380910208811113C0809103086F
:1051100090910408A0910508B09106084196A11D40
:10512000B11D8093030890930408A0930508B093E1
:105130000608BF91AF919F918F911F901FBE1F9046
:105140001895CDB7DEB72C970FB6F894DEBF0FBE1B
:10515000CDBF85B7806885BF85B7806885BF84B7B8
:10516000877F84BF0FB6F894A8958091600088610E
:1051700080936000109260000FBE80E890E00FB650
:10518000F89480936100909361000FBE87EC9CE0DF
:1051900090936702809366020E9414060E94B506EF
:1051A0008091E20084608093E200789480911708F7
:1051B0008823A1F01091E9001F709091EC00892FD5
:1051C000817090FD80E8182B1092E9008091E80032
:1051D00083FD0E94C6131F701093E90082E084BD16
:1051E00093E095BD9AEF97BD80936E0010924807AB
:1051F0001092490710924A0710924B0788EC90E0F2
:105200001091E300111F1127111F61F4AFE3BCE9F6
:105210001197F1F700C00000019791F70E94140662
:10522000109217081093FA0790E080E00E94902EE9
:10523000863E9E4F11F00E9433198EE090E00E944E
:10524000882E91E0811101C090E09093FB0790932C
:1052500026018091FA0781110E94972C80912601E6
:10526000811120C080EF8093220181EF8093230180
:1052700084EF8093240185EF8093250186E0EEEF93
:10528000F1E0DE01119601900D928A95E1F7FE01A1
:105290003196ACE1B1E0CE01079621912D938E17A6
:1052A0009F07D9F78091260194E0811190E09093B7
:1052B000550784E0891B809354070CE111E072E2EA
:1052C000E72E71E0F72EF80181918F018F3F11F0E9
:1052D0000E94F108E016F106B1F702E211E0D801F0
:1052E0008D918D018F3F11F00E94F108B1E00632DF
:1052F0001B07A9F788E0E8E5F7E0DF01282F1D92FA
:105300002A95E9F7ECE4F7E0DF011D928A95E9F7C9
:1053100090E080E00E94902E863E9E4F11F00E9409
:10532000331982E090E00E94882E80936D0884E01B
:1053300090E00E94902E90935707809356070E940A
:105340007611EFEFF6E721E0E150F0402040E1F781
:1053500000C000000E9476118091FB07E4E08111FB
:10536000E0E0F0E0E85AF84F808181FF08C06FEF7D
:105370007FEF90E080E00E94C42E0E94860D83E0C3
:1053800090E00E94882E90E00E94500C8091E607E9
:105390009091E707009711F080FF04C086E197E045
:1053A0000E94C2178091FA07811102C00E949A2CB4
:1053B00087E291E09093FF078093FE0780911708A2
:1053C0008530B9F480916D0880FF08C080E297E0D5
:1053D0009F938F930E94D5050F900F9000E112E1EB
:1053E00080911708853009F454C00E9495130E94DB
:1053F000FD070E94761150E6452E57E0552E68E5D0
:10540000262E67E0362ED101F20191918D9147E071
:10541000E836F40709F476C09817B9F380916D085F
:1054200081FDB0C1C090FA0710E0D1010D911D01BE
:10543000F201D1902F01D01631F1D026F12CEE24BB
:10544000E3948E2D8D21B9F0CC20A9F0FF8218872E
:105450000E948D079A878987F1E0FB8791E08E2D66
:10546000802309F490E09C874F81588569857A856F
:105470008B850E948D24F394EE0C26E0F212E1CF8E
:10548000F201319700831F5F183079F60E940809F6
:105490003DC080911708843021F110920208E8E1A4
:1054A000F0E020E40FB6F894A895E09360000FBEFA
:1054B0002093600083B7817F846083BF83B781605E
:1054C00083BF7894889583B78E7F83BF0FB6F89497
:1054D000A8958091600088618093600010926000C0
:1054E0000FBE80911608882309F47ACF0E947611A6
:1054F000E8E5F7E081918111A0C137E0E036F307DC
:10550000C9F76ECF98138ACF0E94AB268091FA0715
:105510008823A9F18091FC01882301F18091E4079F
:105520009091E5070097D1F00E94720720916D07D6
:1055300030916E072817390788F49091E20780911F
:10554000E307981709F460C10E94FA2310926E07CE
:1055500010926D071092E5071092E40780916C0796
:10556000882369F00E948D0720916A0730916B07AC
:10557000821B930B8F3F9F4710F40E94931686E087
:10558000E4EFF7E0DE01119601900D928A95E1F7C4
:105590009090F507F090F6071091F707C090F80784
:1055A0000091F9071092F6071092F7071092F8078A
:1055B0001092F907E090E807EE20E1F18091F20700
:1055C0009091F3070E94720741E024E630E04E1507
:1055D00010F420E130E02817390760F5A090E907C2
:1055E000B090EC07E090EB076091EA078A2D0E94EB
:1055F0000E08D82E8093EA076B2D8E2D0E940E0880
:10560000B82E8093EC0780E00E945C088093F60738
:1056100081E00E945C088093F707DA2809F4F12CF6
:10562000EB2809F410E08091E807823018F48F5FCE
:105630008093E8078091E9079091EB07892B90917F
:10564000EA07892B9091EC07892B21F41092E80747
:1056500010E0F12C8C2D802B09F44DC08091F007C7
:105660009091F1070E9472079C019091ED07992398
:1056700009F4FEC02D33310508F43DC09F3F19F0F9
:105680009F5F9093ED07CC2059F00E943C089FEF5C
:105690001C140CF491E0899F802D11248093F8074D
:1056A000002359F00E943C0891E010160CF09FEF87
:1056B000899F802D11248093F9073091F8073323B7
:1056C000D1F02091F9072223B1F045EB3403C0015A
:1056D000112497FFA2C080589109892F8093F80761
:1056E00035EB2303C001112497FF9EC08058910918
:1056F000892F8093F9078091F507981217C0809140
:10570000F607882311F08F1111C02091F70722238B
:1057100011F021130BC09091F907992311F0901308
:1057200005C03091F807332309F49DC00E942C0E68
:10573000FB821C8386E0FE013196A4EFB7E0019066
:105740000D928A95E1F70E94FD07182F8091680756
:10575000181709F433CE109368070E9481078091CF
:105760006D088570853009F029CE1F921F9384E55E
:1057700097E09F938F930E94D5050F900F900F9005
:105780000F901CCE85E497E09F938F930E94D505E0
:105790000F900F9088E5C82E87E0D82E10E000E02B
:1057A00090E4892E97E0992E2DE3A22E27E0B22EC9
:1057B00038E3E32E37E0F32E46E3642E47E0742E01
:1057C0001F930F939F928F920E94D505BF92AF9225
:1057D0000E94D505F60181916F010E947F0C1F92F6
:1057E0008F93FF92EF920E94D5057F926F920E9455
:1057F000D5050F5F1F4F0FB6F894DEBF0FBECDBFAC
:1058000008301105E9F60ECE0E94A2231092E5079A
:105810001092E4070E94DF08A1CE80589F4F892F85
:1058200091115CCF81E05ACF80589F4F892F911101
:1058300060CF41E04093F9075ECF09BD19BD09B4BF
:1058400000FEFDCF8091D8008F7D8093D80080919D
:10585000E00082608093E0008091E00081FDFCCF59
:105860000E949513BDCD822B892B09F461CF5ECFA9
:10587000253B310508F004CF3ECF8EE14A9B02C0A4
:105880008150E1F74A9BFECF08955A9880E28A95AD
:10589000F1F75A9A0895FC013BE03A95F1F798E048
:1058A00020E080E031E040E14A95F1F7880F4A9B23
:1058B00002C08160232742E04A95F1F7000040E1F1
:1058C0004A95F1F7915079F790E19A95F1F799B1EE
:1058D00032E03A95F1F7000040E14A95F1F792FB8A
:1058E000992790F992272081920F90830895A1E043
:1058F000B0E0EDE7FCE20C94052E19828C017C01EE
:10590000E60EF11C0E151F0541F481E099819111FD
:1059100080E02196E6E00C94212E0E943D2CCE01E1
:1059200001960E944B2CF80181938F01EBCF529A84
:105930005A9A089552985A9AEA9AE9E6F0E08081D4
:105940008F7C808308956150770B91E001C0990F9F
:105950006A95EAF720E031E0911108C0222391F026
:105960005A9A80E28A95F1F75A980895492F482368
:1059700039F05A9A232740E24A95F1F79695ECCFF1
:105980005A98F9CF5A98EDCFFF920F931F93CF9368
:10599000DF93EC018C01060F111DC017D10729F40C
:1059A000CDB7DEB7E5E00C94222EF9900E94452C8D
:1059B00068E08F2D0E94A32CF0CF1F920F920FB69C
:1059C0000F9211240F931F932F933F934F935F9345
:1059D0006F937F938F939F93AF93BF93EF93FF93B7
:1059E000CF93DF930F92CDB7DEB719820E943D2C83
:1059F000CE0101960E944B2C082F06950695069520
:105A0000282F22952570902F9570290F922F937033
:105A100026952695920F982797708981982B09F0E3
:105A20005CC0043008F059C080E18A95F1F75A9AB9
:105A3000529A82E08A95F1F700C05A9888E0089F50
:105A400080011124D801AC5FBE4F1696ED91FC91F8
:105A500017973097A9F060915502709156021496ED
:105A60002D913C911597260F371F11968D919C9182
:105A70001297680F791F13964C9113978C91099583
:105A8000F801EC5FFE4F6381662351F020915502CF
:105A90003091560284819581820F931F0E94C42CFD
:105AA0000E94452C80E18A95F1F75A9852985A9AAB
:105AB00080E18A95F1F7F801EC5FFE4F6081662383
:105AC00051F0209155023091560281819281820FCE
:105AD000931F0E94772C0E943D2C0F90DF91CF9155
