:100000000C94F4040C942C050C942C050C94412FA6
:100010000C942C050C942C050C942C050C942C059C
:100020000C942C050C942C050C9435280C94F12779
:100030000C949C290C942C050C942C050C942C05E8
:100040000C942C050C942C050C942C050C942C056C
:100050000C942C050C9478290C942C050C942C05EC
:100060000C942C050C942C050C942C050C942C054C
:100070000C942C050C942C050C942C050C942C053C
:100080000C942C050C942C050C942C050C942C052C
:100090000C942C050C942C050C942C050C942C051C
:1000A0000C942C050C942C050C942C0515000900BF
:1000B00000001A00160000002A00815200002602EB
:1000C000250200002414250200000700060000009D
:1000D0000A0017000000AE00D90000000800070069
:1000E00000000D00100000000700190000001B2494
:1000F000070000001B241900000006001900000082
:100100001B24060000000900190000000A00050079
:1001100000002C4283520000190005000000150069
:100120001700000009000A0000001D001B0000006D
:100130001600090000000E000F0000000C00120065
:1001400000000B000D000000070009000000160071
:10015000070000000631FF0974A10109751500268A
:10016000FF00952075088102C005010902A10185E3
:10017000020901A1000509190129081500250195A9
:1001800008750181020501093009311581257F9526
:10019000027508810609381581257F95017508814A
:1001A00006050C0A38021581257F95017508810620
:1001B000C0C005010980A101850319012AB70015F6
:1001C0000126B700950175108100C0050C0901A139
:1001D00001850419012AA002150126A002950175C6
:1001E000108100C00660FF0961A1010962150026A7
:1001F000FF009520750881020963150026FF009510
:100200002075089102C005010906A101050719E042
:1002100029E71500250195087501810295017508EA
:1002200081010507190029FF150026FF00950675B5
:100230000881000508190129051500250195057596
:10024000019102950175039101C00103E20103E0F0
:100250000103E30064796E616D6963206D6163720F
:100260006F207265636F7264696E673A20737461A0
:10027000727465640D0A000102E3010124000102A9
:10028000E3010123000102E3010122000102E30175
:100290000121000102E3010120000102E301011F2D
:1002A000000102E301011E000102E00102E101017F
:1002B0002B0103E1000102E001012B000102E20138
:1002C000012B010150000102E001011B0103E000CC
:1002D0000102E00101190103E000636F70790A0077
:1002E0000102E00101060103E0000103E10103D383
:1002F000000102E1010431357C0102D3000101D18A
:10030000010431357C0101D1000102E12C0103E13E
:1003100033000102E30102E001014F0103E00103A8
:10032000E3000102E30102E00101500103E00103E7
:10033000E3000103E200010128000102E2000102E2
:10034000E06C0103E0000101500101500101500087
:100350003D667261630102E6370103E60102E630A1
:100360000103E60102E6370103E60102E63001037C
:10037000E600010150010150007072696E740102C3
:10038000E1383232390103E1006D37373634380055
:100390004D3737363438004876612069206661650C
:1003A0006E31003436333630363931005363686F7E
:1003B000706D65696572004A616E204572696B20D7
:1003C000006A616E2E6572696B0102E6320103E616
:1003D0007363686F706D656965722E636F6D00720F
:1003E000656D61006B6977690062756E6E70726928
:1003F000730044454255473A2064697361626C65F5
:10040000642E0A0044454255473A20656E61626C8D
:1004100065642E0A004F6E6573686F743A206163DD
:10042000746976653A2025640A004F6E6573686FBB
:10043000743A2074696D656F75740A000A0025307E
:10044000325820006B6579626F6172645F7265700B
:100450006F72743A2025303258207C20005461722B
:1004600067657420636F6E6E65637465640D0A0062
:1004700054617267657420646973636F6E6E65633F
:100480007465642C207468726F74746C696E672074
:10049000636F6E6E656374696F6E20617474656DF1
:1004A0007074730D0A004661696C656420746F2076
:1004B000657865637574652025730A0073757370BC
:1004C000656E64696E67206B6579626F6172640D39
:1004D0000A000A0025303862003A200025303258E0
:1004E000000A722F632030313233343536370A0038
:1004F0006C65645F7461736B3A20253032580A0072
:10050000000014001A00080015001700D100042193
:100510001600070009000A0046001D221B240600E1
:100520001900050000000000017C007CA2528152ED
:100530001C0018000C0012001300D2000B000D006C
:100540000E000F0033210552110010003600370055
:100550003822D3002C428352567C577C0000000086
:1005600001001E021F0220022114220201001E00AF
:100570001F002000210022000100E100587E300011
:10058000577E310000000000010001002A00010038
:100590002302240225022602270201002300240050
:1005A00025002600270001002E002D00010001007B
:1005B00001000052010001000100010000000000E4
:1005C0000100AA00AC00AE00AB00A900517E597E2C
:1005D0005A7E5B7E5C7E5D7E0100E100E2005E7E15
:1005E0005F7EA80000000000010001002A004C000E
:1005F0000100241425022602271401004A0050019C
:1006000052004F014D000100567E500051004F0036
:10061000E30000520100045201000100000000004C
:10062000010035001F1420142102221401003A0099
:100630003B003C003D003E000052400041004200B3
:100640004300440000000000010001002A004C00AB
:10065000537C547C25142614300201003F00010015
:10066000640064023102010045004E7E497E477EEF
:1006700030140052000001000000000000000000E3
:10068000007C007C407E427E417E00000000000035
:100690000000520000000000000000005000510067
:1006A0004F000052000000002800E3002A00010073
:1006B00053005F0060006100540055002B005C0097
:1006C0005D005E0057005600000059005A005B00B4
:1006D00058000052010062006300010000000000A9
:1006E0000000000000000708000000000052D400D5
:1006F000D100D900D200D5000052D300DB00DA00CF
:10070000DC00005200000000005200520052005273
:1007100000004B7E2B084C7E000000000000000013
:10072000CD000000000000520000CF00CE00D0003D
:10073000000000520052005200520052000000001F
:1007400064796E616D6963206D6163726F3A2073C5
:100750006C6F7420256420706C61796261636B0A30
:100760000064796E616D6963206D6163726F3A2018
:10077000736C6F742025642073617665642C206C23
:10078000656E6774683A2025640A0064796E616D4D
:100790006963206D6163726F3A207472696D6D696F
:1007A0006E67206120747261696C696E67206B6589
:1007B000792D646F776E206576656E740D0A002959
:1007C0000A002575002F002575005D2800256400AE
:1007D0002000256400200025640020002564007CA2
:1007E0000025303258006D6F7573656B6579205B3D
:1007F00062746E7C782079207620685D287265703E
:100800002F61636C293A205B005B435D005B445DB4
:10081000005B535D005B575D005B525D0009027435
:1008200000040100A0FA090400000103010100090D
:10083000211101000122440007058103080001097C
:10084000040100020300000009211101000122221D
:1008500000070582032000010705030320000109AA
:100860000402000103000000092111010001227BA4
:1008700000070584032000010904030001030000B0
:100880000009211101000122150007058503200040
:10089000011201000200000008736A01000001015A
:1008A0000200010E036500720067006F003400341F
:1008B00000000028034A0061006E0020004500721D
:1008C0000069006B0020005300630068006F007037
:1008D000006D0065006900650072000000040309F6
:1008E0000464796E616D6963206D6163726F3A2093
:1008F000736C6F74202564206C656E6774683A2091
:1009000025642F25640A0064796E616D6963206D2A
:100910006163726F3A2069676E6F72696E672061FA
:10092000206C656164696E67206B65792D75702038
:100930006576656E740D0A0000000000000000007E
:1009400000000000000000000000000000000000A7
:100950000000000000000000000000007E0F00D436
:10096000FFFFFFC70000007800000000000000004B
:100970002A2B2800000000000000000000000000FA
:1009800000000029000000002C1E34202122243405
:100990002627252E362D3738271E1F2021222324D7
:1009A00025263333362E37381F0405060708090A73
:1009B0000B0C0D0E0F101112131415161718191A0F
:1009C0001B1C1D2F3130232D350405060708090A8D
:1009D0000B0C0D0E0F101112131415161718191AEF
:1009E0001B1C1D2F3130354C11241FBECFEFDAE018
:1009F000DEBFCDBF04B603FE18C08091660890919B
:100A00006708A0916808B09169088730904BA740AB
:100A1000B04B59F41092660810926708109268085B
:100A200010926908E0E0F8E3099512E0A0E0B1E077
:100A3000EEEDF3E602C005900D92A436B107D9F7AA
:100A400028E0A4E6B2E001C01D92A636B207E1F7A5
:100A50000E94C3290C945B310C940000FF93EF9328
:100A6000E0916402F0916502309709F00995EF91E9
:100A7000FF910895FC018591803011F0EFDFFBCFED
:100A80000895FF27E0E230E247FF0CC0419597FF51
:100A900009C0EDE26095709580959095611D711D7E
:100AA000811D911D27FF02C0219530E350E2AA2746
:100AB000660F771F881F991FAA1FA41710F0A41B89
:100AC00063955A95A9F7AA3008F0A95FA05DAF9386
:100AD000F395611571058105910541F7ED3211F42A
:100AE000EF93F395F21718F43F93F395FBCF8F91A3
:100AF000B5DFFA95E1F70895E991F9918591803094
:100B000021F0853219F0AADFF9CF089520E0E894AA
:100B100055915532C1F3503311F4689455915A33BD
:100B200048F4505390F3220F022E220F220F200D73
:100B3000250FF4CF0EF4219589919991533619F32D
:100B4000533729F1533559F1BC0188279927E89487
:100B50005C3621F48991999168945591543639F411
:100B600046EF7EF077FF0DC08FEF9FEF0AC055373D
:100B70004AE039F0583540E121F0523642E009F0C0
:100B80000895FF93EF937DDFEF91FF91B7CFFF9330
:100B9000EF93FC0181918030B9F360DFFBCFFF93CD
:100BA000EF9368DFF1CFDF93CF93CDB7DEB7259614
:100BB000A3DFCF91DF910895482F20915F08909196
:100BC000160859E0291302C080E0089530E0529FD2
:100BD000F001539FF00D1124E95EF74F81816813F6
:100BE00006C08081481303C085818111EECF2F5F3D
:100BF0003F4F2770E7CFFC01AC014C5F5F4F8FEF99
:100C000091E32191822728E030E087FF09C0880F17
:100C1000892721503109C9F7E417F50791F708959D
:100C2000880FF7CFE8EDF0E080818E7F808310920F
:100C3000E2001092DA001092E100A0EEB0E08C9198
:100C400081608C9380818F77808319BCA7EDB0E0A1
:100C50008C918E7F8C9380818F7E80831092FF0792
:100C600008952091E4003091E50095E6A9012091D6
:100C7000EC00822F817020FF06C08091E80080FF89
:100C800006C080E008952091E80022FD1AC08091FE
:100C90000C08882389F0853089F08091EB0085FD70
:100CA0000FC02091E4003091E50042175307F9F29C
:100CB0009150E1F684E0089582E0089583E008957C
:100CC00081E0089580910E0887FF13C08091E800AD
:100CD00082FF06C08091E8008B778093E80004C013
:100CE00080910C088111F2CF089580910C0888231F
:100CF000D9F38091E80080FFF8CF8091E8008E77EB
:100D0000ECCF982F9093E900242F762F50E089178D
:100D100031F07091EC002091ED005091F00021FD38
:100D200007C09F5F973071F78093E90081E00895D5
:100D30003091EB003E7F3093EB003091ED003D7F32
:100D40003093ED003091EB0031603093EB00709305
:100D5000EC002093ED005093F0002091EE0027FD71
:100D6000E0CF80E00895B0E0A0E0E9EBF6E00C947D
:100D70006730C8EDD0E088818F7E8883E7EDF0E0B2
:100D800080818160808384E082BF81E08093FF075F
:100D900088818E7F888302EE10E0F8011082109225
:100DA000DA0081EEC82ED12CF601108288818F776F
:100DB000888388818068888388818F7D888319BC37
:100DC00010920C0810920D0810920B0810920A084D
:100DD00090EEE92EF12CF70180818B7F8083888152
:100DE0008160888342E060E080E00E948106F60135
:100DF00080818E7F8083F801808181608083808103
:100E000088608083F70180818E7F80838881806104
:100E10008883CDB7DEB7E8E00C948330FC01809185
:100E200014089091150886179707A0F061157105B1
:100E300029F49091E8009E779093E80090E0611586
:100E4000710551F4911108C08091E80082FF34C00F
:100E500080E00895BC01F2CF80910C088823C1F195
:100E60008530C1F18091E80083FD30C08091E800B9
:100E700082FDEACF8091E80080FFE1CF8091F3000E
:100E80002091F200382F6115710519F028303105D5
:100E900058F091E02830310509F090E02091E80009
:100EA0002E772093E800CBCF81918093F1006150A1
:100EB00071092F5F3F4FE7CF80910C08882341F0E5
:100EC000853041F08091E80083FFBECF81E0089536
:100ED00082E0089583E008950895809101080895BF
:100EE0009C014FB7F8948091F8079091F907A09171
:100EF000FA07B091FB074FBF821B930B08952FB7E2
:100F0000F8946091F8077091F9078091FA07909131
:100F1000FB072FBF08952FB7F8948091F8079091A1
:100F2000F907A091FA07B091FB072FBF08959C0124
:100F3000FC0132969FEF80E04191461751F09F3FB0
:100F400019F4411101C0982F8F5F8630A9F79F3F98
:100F500009F40895290F311D97FD3A95F90162832F
:100F60000895A3E0B0E0E7EBF7E00C946D3020913A
:100F7000F5073091F60728173907A1F09093F60787
:100F80008093F507E091F307F091F407309751F063
:100F900024E029839B838A830084F185E02DCE01A0
:100FA000019609952396E2E00C948930A3E0B0E025
:100FB000ECEDF7E00C946D302091F1073091F207E1
:100FC00028173907A1F09093F2078093F107E09179
:100FD000F307F091F407309751F023E029839B83C6
:100FE0008A830084F185E02DCE0101960995239630
:100FF000E2E00C9489308091EF07882359F0E0916A
:10100000F307F091F407309729F00190F081E02D7B
:101010000995089580E0089587FD27C067FF14C0F3
:10102000062E000C770B6F5F7F4F93EF969F90011A
:10103000979F300D112437FF02C021503F4F632F7F
:10104000811111C0862F089581110BC06623D1F341
:1010500023EF6203B0011124672F87FFF3CF6150A4
:10106000F1CF68327CF76F5FEDCF16168CF3693DD8
:101070004CF3F5CF9091E307892F817090FD19C053
:1010800091FD16C092FD12C08091E207882381F085
:101090008F3F61F023E0829FC00111246FEF70E069
:1010A0000E94A030862F672B19F0089583E00895E1
:1010B00081E008958823C9F04091E1078091E0071D
:1010C0009091DD079230B0F491E09093DD07880FA6
:1010D000990B81382FEF920714F481E89FEF803845
:1010E000910514F08FE790E008954091DF0780911B
:1010F000DE07E6CF842F042E000C990B982F80E09A
:1011000068E270E00E94A0309B01DB010E94C130C8
:10111000BB2797FDBA95A92F982F872FFC0147FF72
:101120000EC0EE27FF27E81BF90B21E030E041114C
:1011300002C030E020E031952195310904C021E062
:1011400030E0442391F348E24E9FC0014F9F900D41
:101150001124892F990F990B820F931FBACFDC01AD
:101160006091D8078091D907962F891301C00895FF
:10117000292F30E0F901EE0FFF1FE053F84F4081B7
:1011800051814A175B07A1F487E08A9FA0018B9FDA
:10119000500D11244F5C5E4F81E0FA018483961359
:1011A000E6CF2F5F3F4F237033272093D807089552
:1011B0002F5F3F4F922F9370D8CF109264071092F9
:1011C0006307E1E3F1E085EF91E02581211102C0A1
:1011D0001482168237968E179F07B9F70895F894F0
:1011E000E82FE295EF70F0E031A1282F2F7081E019
:1011F00090E001C0880F2A95EAF7982F90959323E5
:1012000091A392A1892B82A3789408950F931F93A1
:101210008091EF07882329F00E947F071F910F918B
:1012200008950E947F0700913E0710913F0720918B
:10123000400730914107600F711F821F931FEECF4F
:1012400090914C0792FF10C041E0282F2471243068
:1012500009F040E031E0282F2871283009F030E013
:10126000431711F02CE0822793FF10C041E0282F94
:101270002471243109F040E031E0282F2871283111
:1012800009F030E0431711F02CE0822730914D0730
:1012900030FF10C051E0282F2171213009F050E0BB
:1012A00041E0282F2871283009F040E0541711F050
:1012B00029E0822731FF10C041E0282F2171213120
:1012C00009F040E031E0282F2871283109F030E0A2
:1012D000431711F029E0822794FD877E0895823814
:1012E0009105B9F1B0F48133910509F47DC048F45A
:1012F0008932910509F46DC08A32910509F47BC0E9
:1013000008958533910509F45FC08933910509F18A
:101310000895833E9105D9F138F4803E910529F175
:10132000823E910579F10895863E9105D9F1873E77
:10133000910509F43EC0843E910541F520914D0789
:1013400021FF24C080914C0784FD19C087EE90E0F6
:10135000089520914C07237009F05AC020914D0741
:1013600023FF14C089E290E0089520914C0720FDEE
:1013700038C030914D0730FF09C024FF43C090E0D2
:1013800080E0089520914C0722FDF7CF0895209129
:101390004C0722FD3AC030914D0730FD39C024FF83
:1013A000F5CFEDCF20914C0723FFF0CF24FDE7CF01
:1013B000CDCF20914C0723FD2EC030914D0731FF3A
:1013C000EECF84EE90E0089520914C0725FFDECF0C
:1013D000C9CF20914C0725FD21C020914D0723FF47
:1013E000D5CF89E390E0D2CF20914C0726FFCECF16
:1013F0008AE290E0089520914C0726FFC7CF81E351
:1014000090E0089583EE90E0089582EE90E00895D4
:1014100080EE90E0089586EE90E0089585E390E0F8
:1014200008951F93CF93DF930E946F09EC01C115BC
:1014300080E5D807F0F5C11580E4D80708F09CC016
:10144000C03ED10520F5CD3CD10508F082C0C83A98
:10145000D10578F4C53AD10508F073C0C130D10583
:1014600019F1209709F1C430D105F0F4D0E0C0E0C3
:101470001BC0C33CD105D0F7C85AD0E0CC0FDD1F4C
:10148000C85EDD4F0990D881C02DD4640DC0C11550
:1014900080E2D80708F0D1C0C11581E0D80708F074
:1014A0005AC0C83ED10510F7CE01DF91CF911F91F0
:1014B0000895C03682E5D80718F5C03482E5D8070C
:1014C00008F06BC0C03282E5D80708F05FC0C115D4
:1014D00082E5D80708F497C02C2F2695269580E240
:1014E000289F900111248C2F8370C1E0D0E002C0AE
:1014F000CC0FDD1F8A95E2F7C22BD32BDD68D4CF4A
:10150000C03A82E5D80760F4C03882E5D80708F40D
:1015100059C0CF71D0E0DC2FCC27C46FD06AC4CFC4
:10152000C03C82E5D80708F462C0C03E82E5D80717
:1015300008F09CCFDC2FCC27CC27DF71C06FD06A9E
:10154000B3CFC55AD0E0CB5EDD4FC881D0E0D064C8
:10155000ABCFD065A9CF8D2F0E942009182FCE01C7
:1015600099270E946F09C12FD0E0DC2FCC27CC2710
:10157000DF71C82BD92B98CFCE0199270E946F0914
:10158000CC27DF70C82BD92BD06A8ECFCF71D0E09B
:10159000DC2FCC27C16FD06A87CF2C2F26952695BC
:1015A000277080E2289F900111248C2F8370C1E066
:1015B000D0E002C0CC0FDD1F8A95E2F7C22BD32BFF
:1015C000DC6872CF2C2F26952695277080E2289F05
:1015D000900111248C2F8370C1E0D0E002C0CC0FA9
:1015E000DD1F8A95E2F7C22BD32BDA685DCF8C2FF3
:1015F0008F710E942009C82FD0E0DC2FCC27CC2788
:10160000DF71D06251CF8C2F8F710E94200955E07D
:10161000D695C7955A95E1F7CF70D0E0DC2FCC274F
:10162000282F30E084FF05C044E0220F331F4A9585
:10163000E1F7C22BD32BD06937CF8D2F8F710E944A
:101640002009182FCE0199270E946F09C12FD0E0E1
:10165000DC2FCC27CC27DF71C82BD92BD2CF8091A0
:101660001A07882331F010921A0710921907109266
:10167000180708958091620781110FC010925F07CB
:101680000E942F0B0E948B0788579C4E90936107F6
:101690008093600781E080936207089590911A0714
:1016A000292F282361F08095892380931A078823A6
:1016B00039F00E948B0790931907809318070895BB
:1016C00090E080E0F8CF809590915F079823909309
:1016D0005F07089510920F0710920E0710920D07E2
:1016E000089590910C07292F282321F080958923B4
:1016F00080930C07089580915F08909116089813C5
:1017000001C008958F5F8770FACF292F983078F540
:10171000863068F590E036E0239F800D911D1124FE
:10172000682F677023E0969587952A95E1F7FC016D
:10173000EE0FFF1FE80FF91FEF50F94F50E040E0A8
:1017400080E0219130E0062E02C0369527950A945C
:10175000E2F721703327042E01C0220F0A94EAF722
:10176000822B4F5F5F4F4330510559F7089580E05A
:101770000895292F983098F5863088F590E036E066
:10178000239F800D911D1124282F277041E001C057
:10179000440F2A95EAF723E0969587952A95E1F775
:1017A000FC01EE0FFF1FE80FF91FEF50F94F30E07B
:1017B00020E070E05191DF011197CB01022E02C0B1
:1017C000969587950A94E2F7817081958527842301
:1017D00085278C932F5F3F4F2330310559F70895AC
:1017E00080931B070895829590E09C01220F331F80
:1017F000220F331F2C7C959587959595879583733C
:10180000282B30E0C901880F991F8A7A35952795D2
:101810002575822B08959FB7F8941092FD079FBFFE
:1018200090910C08943009F048C02091E9002F7085
:101830003091EC00932F917030FD90E8922B25E0D1
:101840002093E9002091EB0020FF34C02091EE00AE
:1018500027FF30C02091FC07222321F02091E800CF
:1018600025FF28C01092FC0726E03091E80035FFE4
:1018700014C08093F1008091E80085FD27C080911D
:10188000E80080FFFCCF8091E8008E778093E8002D
:101890009F709093E90080E0089530910C083430F7
:1018A00049F43091EB0035FD05C0215041F481E051
:1018B0008093FC079F709093E9008FEF0895EFE904
:1018C000FFE03197F1F700C00000CFCF8FB7F89459
:1018D00021E02093FD078FBFDBCF0F931F93CF93A2
:1018E000DF938B01EA0190910C08943061F58093AD
:1018F000E9008FEF9091E800815095FD06C095EDCD
:101900009A95F1F700008111F5CF8091E80085FFED
:101910001AC00E943106811111C08091E80085FD36
:1019200006C08091E8008E778093E800F2CFF8013E
:1019300081918F018093F100219779F78091E800E0
:101940008E778093E800DF91CF911F910F910895DA
:1019500043E050E0BC0184E00E946D0C089546E035
:1019600050E0BC0184E00E946D0C0895CF93DF939A
:10197000EC0148E050E0BC0181E00E946D0C88E081
:10198000FE01A2E0B8E001900D928A95E1F7DF91A7
:10199000CF91089581E08093E00080E28093D800A9
:1019A0001092C9008FE19EE40197F1F700C000009A
:1019B00087E090EBDC018093660890936708A09322
:1019C0006808B093690888E19CE00FB6F894A89580
:1019D000809360000FBE90936000FFCF0F931F9322
:1019E000CF93DF93EC01F901A0916008B0916108F9
:1019F0009091620891708581811112C0CA17DB072E
:101A000079F4992341F087E099E09F938F930E94A6
:101A1000D3050F900F90DF91CF911F910F910895F3
:101A200089E04802800111249D01201B310B6217BF
:101A3000730779F089E001900D928A95E1F7209182
:101A4000600830916108200F311F309361082093A6
:101A50006008992301F3E42F042E000CFF0B6C1B8C
:101A60007D0BA9E3BEE86A9FC0016B9F900D7A9F32
:101A7000900D11248E9F90018F9F300D9E9F300DF1
:101A800011242F5F3F4F80916008909161088C1B5B
:101A90009D0B8A9FE0018B9FD00D9A9FD00D112442
:101AA000CE9FB001CF9F700DDE9F700D112482E09C
:101AB000413009F481E03F932F937F936F931F92FE
:101AC0008F9381EE98E09F938F930E94D3058DB7FB
:101AD0009EB708960FB6F8949EBF0FBE8DBF9BCFE2
:101AE0008091620883FF96C086EE97E09F938F9364
:101AF0000E94D3058091EA071F928F9381EE97E0B1
:101B00009F938F930E94D3058FED97E09F938F93C0
:101B10000E94D3058091EB07282F082E000C330B71
:101B20003F938F938CED97E09F938F930E94D30503
:101B30008AED97E09F938F930E94D3058091EC07E5
:101B4000282F082E000C330B3F938F9387ED97E0DF
:101B50009F938F930E94D30585ED97E09F938F937A
:101B60000E94D3058091ED07282F082E000C330B1F
:101B70003F938F9382ED97E09F938F930E94D305BD
:101B800080ED97E09F938F930E94D3058091EE079D
:101B9000282F082E000C330B3F938F938DEC97E08A
:101BA0009F938F930E94D3058AEC97E09F938F9326
:101BB0000E94D3058DB79EB780960FB6F8949EBF4E
:101BC0000FBE8DBF8091E4071F928F9387EC97E043
:101BD0009F938F930E94D30585EC97E09F938F93FB
:101BE0000E94D3058091E3071F928F9382EC97E0C8
:101BF0009F938F930E94D3058FEB97E09F938F93D2
:101C00000E94D3058DB79EB70C960FB6F8949EBF71
:101C10000FBE8DBF0E948B079C019091EB078091B6
:101C2000EC07982B21F03093E8072093E707909179
:101C3000ED078091EE07982B21F03093E607209373
:101C4000E507E091F307F091F407309749F082E05F
:101C50008093E9070680F781E02D89EE97E00995EA
:101C60000895662309F46DC093E3980F923098F4B9
:101C70008E3C79F08FEF8093E0078091DD07823012
:101C800028F481E00E945A088093EC070E94700DAE
:101C9000089581E0F0CF91E3980F923088F4803D71
:101CA00069F08FEF8093DE078091DD07823070F757
:101CB00080E00E945A088093EB07E8CF81E0F2CFE2
:101CC000893D29F40E943A088093ED07DFCF8A3DD1
:101CD00021F40E943A088195F7CF8B3D31F40E94A0
:101CE0003A0881958093EE07D1CF8C3D19F40E947C
:101CF0003A08F8CF9FE2980F983070F4815D990B05
:101D000021E030E001C0220F8A95EAF78091EA07CE
:101D1000822B8093EA07BACF8D3D31F48091E3079F
:101D200081608093E307B2CF8E3D21F48091E30779
:101D30008260F7CF8F3D09F0A9CF8091E3078460DF
:101D4000F0CF8D3CC1F48091E007181614F010928A
:101D5000E0078091EB079091EC07892B11F410922A
:101D6000E4078091ED079091EE07892B09F08ECF63
:101D70001092E2078BCF8E3C29F48091E00787FF19
:101D8000E6CFE7CF8F3C39F48091DE0718160CF3CD
:101D90001092DE07DECF803D29F48091DE0787FFB9
:101DA000F7CFD7CF9091ED07893D29F419168CF61E
:101DB0001092ED07CECF8A3D19F497FFCACFF8CF26
:101DC0009091EE078B3D29F497FFC3CF1092EE0759
:101DD000C0CF8C3D19F41916CCF3BBCF9FE2980FFE
:101DE000983090F4815D990B21E030E0A90102C0A8
:101DF000440F551F8A95E2F7CA0180959091EA0732
:101E000089238093EA07A5CF8D3D31F48091E307C4
:101E10008E7F8093E3079DCF8E3D21F48091E30771
:101E20008D7FF7CF8F3D09F094CF8091E3078B7FB3
:101E3000F0CFB0E0A0E0EFE1FFE00C9462308C0165
:101E4000EB01742E690167EF4602500111248BE803
:101E5000E82E87E0F82E809162088170C017D107C4
:101E600039F04E018A0C9B1CF4019581911130C010
:101E7000882331F19E01201B310B89E39EE8289FC6
:101E8000A001299F500D389F500D1124672D640328
:101E90009001659F300D112481E0781619F182E0E0
:101EA0003F932F931F928F9381E697E09F938F9399
:101EB0000E94D3050F900F900F900F900F900F90EE
:101EC000F601D183C083CDB7DEB7EDE00C947E3050
:101ED000882331F0FF92EF920E94D3050F900F906C
:101EE000E401B9CF81E0DCCFB0E0A0E0EAE7FFE0B9
:101EF0000C9462307C015B01842E752E6901809107
:101F0000280701E010E08A3010F40AE010E0C1E098
:101F1000D0E0B501C701F6010995982E811114C0D2
:101F200021960C171D07B4F48091620880FF0CC045
:101F30007F928F9286EA94E09F938F930E94D305BD
:101F40000F900F900F900F90892DCDB7DEB7EDE079
:101F50000C947E30CC9F9001CD9F300D300D11241C
:101F600090E080E045E34A95F1F7000001962817DC
:101F70003907C1F7CECFCF93C82F6FEF811164E23D
:101F800085E290E00E9411316FEFC11168E086E2B6
:101F900090E00E9411316FEFC11167E087E290E09D
:101FA0000E941131CF910895CF93DF93C9ECD2E015
:101FB00060E0CE010E9411312196C11584E0D8075E
:101FC000B9F7DF91CF9108951F93CF93DF93122F2D
:101FD0008730E0F46830D0F44630C0F4C42FD0E04D
:101FE000CC0FDD1F9CE0699FC00DD11D112490E630
:101FF000899FC00DD11D1124632FCE0189960E94A7
:102000001131612FCE018A960E941131DF91CF915B
:102010001F910895B0E0A0E0E0E1F0E10C9467309A
:1020200090E0E92E95E0F92ED12C8701C12C1CC03F
:102030004C2F86E021E030E0D81641F0FE01EE0F93
:10204000FF1FE00FF11F859194919C016C2D8D2D48
:102050000E94E40F2196C630D10551F7C394045F66
:102060001F4F88E0C81619F0D0E0C0E0E1CFD3944C
:1020700080E6E80EF11C87E0D812D7CFCDB7DEB7E7
:10208000E8E00C94833080E00E94BB0F60E088E2BF
:1020900090E00E9411310E940A100E94D40F81E04A
:1020A0000E94BB0F089585E290E00E94F3308432D5
:1020B00089F486E290E00E94F330883059F487E298
:1020C00090E00E94F33091E0873009F090E0892F92
:1020D0008170089580E0FCCF0F931F93CF93DF931F
:1020E000873030F5683020F5463010F5C42FD0E049
:1020F000CC0FDD1F2CE0629FC00DD11D112430E6F6
:10210000839FC00DD11D1124CE0189960E94F3300A
:10211000082F10E0102F0027CE018A960E94F3307E
:102120009801282BC901DF91CF911F910F9108953C
:1021300090E080E0F8CF462F783040F4663030F4FD
:10214000873020F4672F0E946C10089590E080E0A3
:102150000895CF92DF92FF920F931F93CF93DF9357
:102160006C010091DC0780911B07082BC6E0D0E0D2
:1021700010E0FC2EC8010C2E02C0959587950A949C
:10218000E2F780FD0CC02197A0F7F12C8F2DDF9195
:10219000CF911F910F91FF90DF90CF900895B601DE
:1021A0008C2F0E949B100E94110A019761F3EECFC1
:1021B000CF93DF93EC010E94A910BE010E949B10F7
:1021C0000E94110ADF91CF910895FC018481882338
:1021D000F9F087819085009791F00E94110A9295FD
:1021E0009F709630B9F080F4925F9F70923080F4C7
:1021F000803F19F058F4883E58F481E008958081BA
:1022000091810E94D810EBCF9A5FEFCF843FA9F362
:1022100080E00895883E88F3813FD1F7EECFA6E0B5
:10222000B0E0E5E1F1E10C946C309C01FC018781A8
:1022300090850097E1F486E0DE01119601900D9201
:102240008A95E1F7F901258189819A81222399F004
:10225000662389F00E94A910182F682F89819A811E
:102260000E94B90B69817A81812F0E949B1026966A
:10227000E3E00C9488300E94850B182FF3CF90E098
:1022800080E00E94FB30863E9E4F19F40E9453105E
:10229000089580E00895A4E0B0E0E1E5F1E10C9458
:1022A0006C3040913A0750913B0760913C07709128
:1022B0003D072FB7F8948091F8079091F907A09106
:1022C000FA07B091FB072FBF841B950BA60BB70B2A
:1022D00011E084369105A105B10570F10E9406094F
:1022E0006E5F7F4F8F4F9F4F69837A838B839C8371
:1022F00080911501909116018F5C984F40911401C7
:1023000050E04530510510F044E050E0BE016F5FF1
:102310007F4F0E94523182E090E00E94E72F182FF9
:10232000882351F00E947F0760933A0770933B0720
:1023300080933C0790933D07812F2496E3E00C9413
:102340008830EF92FF921F93CF93DF9300D000D09D
:102350000F92CDB7DEB77B0190E080E00E94E72FBF
:10236000182F882309F487C04091070150E04115D8
:10237000510511F041E050E06091080170910901B0
:102380006F5C784FCE0105960E94523140912D0727
:1023900050912E0760912F07709130072FB7F89456
:1023A0008091F8079091F907A091FA07B091FB0787
:1023B0002FBF841B950BA60BB70B84369105A10587
:1023C000B10540F482E397E00E94FB059D818917E7
:1023D00009F451C081E090E00E94E72F81111AC0FA
:1023E00010E08091290790912A07A0912B07B091C6
:1023F0002C07F70180839183A283B383812F0F90F1
:102400000F900F900F900F90DF91CF911F91FF9041
:10241000EF90089540910F0150E04530510510F0C4
:1024200044E050E060911001709111016F5C784FB1
:10243000CE0101960E94523182E397E00E94FB0593
:102440009D818913CDCF0E947F0760932D077093E4
:102450002E0780932F079093300789819A81AB8153
:10246000BC818093290790932A07A0932B07B093F0
:102470002C0711E0B6CF8091320790913307A091DD
:102480003407B091350789839A83AB83BC831111DC
:10249000E4CFA7CFACE0B0E0E0E5F2E10C9462302D
:1024A0008E010F5F1F4F88E0D8011D928A95E9F7D2
:1024B0008CE1882E81E0982E92E2E92E91E0F92EAF
:1024C00077247394CC24C394D12C36E2A32E31E02C
:1024D000B32EF40181914F018F3F09F443C0F8946A
:1024E000E82FE295EF70F0E021A18F70A60102C005
:1024F000440F551F8A95E2F7CA01922F982B91A39A
:1025000092A18095892382A3789400C062E271E051
:10251000F801472D4095DB019D91BD0180819F3FD2
:1025200009F490C0292F22952F7030E0D9019096A0
:102530002C9130E09F7002C0359527959A95E2F76F
:1025400020FD80C0872980833196A616B70619F72B
:10255000F401319780818F3F11F00E94EF08B0EABB
:10256000BA95F1F7770CE814F90409F0B2CF48E016
:1025700050E0B80182E497E00E944531009741F0B5
:1025800028E0F801A2E4B7E001900D922A95E1F766
:1025900000914B0710E0095A184F892B09F454C0D9
:1025A00081E0809320070E948B0790931F07809300
:1025B0001E07E12CF090EF07FF2009F4B8C0198640
:1025C0001A861B861C86D0902807E9E0ED1508F4D2
:1025D0005FC021EA31E14DEF51E0BE01675F7F4FFF
:1025E000C8010E94740F882309F477C02BE431E1FD
:1025F0004AE052E0BE01675F7F4FC8010E94740F3E
:10260000882309F46AC029E02D1508F483C01092CC
:10261000280780914A0790E044E050E0BE01675FE0
:102620007F4F895A984F0E94453121E02093270718
:10263000892B09F044C0F12C8F2D8E292C96EDE0CA
:102640000C947E3084237FCFE0902007EE2009F4A5
:10265000B0CF80911E0790911F070E9470070597C9
:1026600008F4A7CF44E050E062E477E0C8010E949C
:102670004531892B59F084E0E2E4F7E0D80101907C
:102680000D928A95E1F71092200794CFE12CFBCFB1
:1026900080912107909122070E947007843F91400A
:1026A00008F097CF80912707882329F2FE013996F9
:1026B00084E0DF011D928A95E9F710922707E091E7
:1026C0004A07F0E0E95AF84F89859A85AB85BC85C1
:1026D00080839183A283B383AFCF809128078F3FFC
:1026E00031F08F5F809328078A3008F492CF0E94E0
:1026F0008B0790932207809321078091620880FFC7
:10270000D1CF80E794E09F938F930E94D3050F90E1
:102710000F90C8CF8091620880FF79CF8DE594E05B
:102720009F938F930E94D3050F900F9070CF84E0FA
:10273000F801A2E3B7E001900D928A95E1F782E3F8
:1027400097E00E94FB0580933107809036079090B8
:102750003707A0903807B0903907809123079091F0
:102760002407A0912507B091260788169906AA0686
:10277000BB0609F461CF8092230790922407A092B0
:102780002507B09226070E947F07861A970AA80A93
:10279000B90A80923E0790923F07A0924007B092FC
:1027A00041074ACF0F931F93CF93DF93C0915F07E9
:1027B00080916507C82B80911A07882359F10E94E0
:1027C0008B072091180730911907821B930B8835CE
:1027D000924070F08091620880FF08C08AE294E025
:1027E0009F938F930E94D3050F900F900E942F0B01
:1027F00080911A07C82B20E088E692E0FC01319115
:10280000CF0131112F5FF2E08E369F07B9F721110A
:102810000E942F0BC093660248E050E060E177E031
:1028200086E692E00E944531892B09F44DC088E08C
:10283000E6E6F2E0A0E1B7E001900D928A95E1F7BB
:10284000E091F307F091F4073097F1F10280F38102
:10285000E02D86E692E009958091620882FF34C0FF
:1028600080FF0EC0809166021F928F9384E494E0F3
:102870009F938F930E94D3050F900F900F900F900E
:10288000C6E6D2E00EE314E08091620880FF0BC040
:102890008A811F928F931F930F930E94D3050F90ED
:1028A0000F900F900F90219622E0CC36D20761F75F
:1028B0008091620880FF08C08CE394E09F938F931F
:1028C0000E94D3050F900F90DF91CF911F910F9130
:1028D0000895CF9310925F07C6E0E8E6F2E0DF01CB
:1028E0008C2F1D928A95E9F790E080E00E94D60730
:1028F00090E080E00E94B107109265070E94D21319
:10290000E9EEF7E0DF011D92CA95E9F71092E407BE
:102910001092E2071092E3071092DD071092DF0792
:102920001092E1071092DE071092E0070E94700DEE
:10293000CF910895AAE2B0E0E0EAF4E10C946C30A3
:102940008EE098E02091F100DC012D93CD01B8E0FC
:1029500086319B07B9F780910F08833009F472C064
:10296000B8F4813009F449C0823009F4B3C08091D1
:10297000E80083FF91C280910E0890910F089A3071
:1029800008F08AC2E92FF0E0E35AFE4C0C94B43010
:102990008A3009F48EC08B3009F471C0893039F760
:1029A00080910E08813219F78091120890911308D6
:1029B000009711F00297D9F68091E800877F809305
:1029C000E8008091E80082FF38C09091F300809188
:1029D000F200029731F48091F100813011F08630DD
:1029E00021F48091F100809301088091E8008B77B9
:1029F0008093E8000E946206BACF80910E08813A67
:102A000009F0B5CF8091E800877F8093E80080913E
:102A1000120890911308892B61F468E082E098E035
:102A200070E00E940E078091E8008B778093E800A9
:102A30009ECF60E090E080E0F3CF80910C088111A0
:102A4000C0CF95CF80910E08813A09F090CF809148
:102A5000120890911308892B09F089CF8091E80022
:102A6000877F8093E8008091E80080FFFCCF809111
:102A7000F6018093F1008091E8008E77B9CF8091C4
:102A80000E08813209F073CF8091120890911308DB
:102A9000892B09F06CCF8091E800877F8093E80054
:102AA0000E946206809110088093F6010E946914CA
:102AB0005ECF80910E08813209F059CF8091E800F5
:102AC000877F8093E8000E946206809111088093BE
:102AD00000084DCF80910E08813A09F048CF8091CF
:102AE000E800877F8093E8008091E80080FFFCCFBA
:102AF00080910008BECF803899F0823809F0CCC1AF
:102B0000809112088F70873008F0C6C18093E90069
:102B10008091EB0085FB882780F91092E90006C0C0
:102B200080910A0890910B08911182609091E800C1
:102B3000977F9093E8008093F1001092F1008091CC
:102B4000E8008E77A5C1882309F493C1823009F08B
:102B5000A3C180911008811196C1809112088F70D5
:102B60002FEF280F263008F097C18093E9002091BD
:102B7000EB0020FF88C1933031F48091EB0080623C
:102B80008093EB0080C19091EB0090619093EB00FB
:102B900021E030E001C0220F8A95EAF72093EA0095
:102BA0001092EA008091EB008860EACF811174C135
:102BB000109110081F778091E3008078812B80931B
:102BC000E3008091E800877F8093E8000E9462061E
:102BD0008091E80080FFFCCF8091E30080688093C3
:102BE000E30082E0111183E080930C0855C1805806
:102BF000823008F051C120911008309111082C3D0D
:102C0000E3E03E07A1F583E08A838AE289834FB738
:102C1000F894DE01139620E03EE051E2E32FF0E06D
:102C200050935700E49120FF03C0E295EF703F5F9F
:102C3000EF708E2F90E0EA30C0F0C7968D939D9391
:102C40002F5F243159F74FBF8091E800877F809331
:102C5000E8006AE270E0CE0101960E940E078091C2
:102C6000E8008B778093E80017C1C096E7CF80918A
:102C7000120890911308432F55274330510509F44A
:102C80004AC078F54130510509F47AC084E790E0F4
:102C9000EDE1F8E04230510509F0FEC02091E80076
:102CA000277F2093E800209114083091150882179F
:102CB000930708F49C0140E02115310509F065C037
:102CC000411163C08091E80082FDC9CF80910C085A
:102CD000882329F2853019F28091E80083FFF2CF32
:102CE000BECF4132510509F43CC04232510509F0D2
:102CF000D3C08430910508F0CFC0FC01EE0FFF1F58
:102D0000EC5AFD4F0190F081E02D805B9D4FDC017E
:102D10008C9190E01AC0332721303105D1F0211574
:102D2000310561F02230310509F0B6C0E3EAF8E080
:102D3000E4918E2F90E0E3EAF8E007C0EDEDF8E0D3
:102D4000E4918E2F90E0EDEDF8E0009709F4A4C037
:102D5000A5CFE3EBF8E0E4918E2F90E0E3EBF8E011
:102D6000F4CF8430910508F097C0880F991FFC01BB
:102D7000E45AFD4F0190F081E02D89E090E08ECF84
:102D800082E190E0E1E9F8E089CF80910C088823A6
:102D900009F465CF853009F462CF8091E80083FDA6
:102DA0005ECF8091E80082FD8DCF8091E80080FFAA
:102DB00083CF9091F3008091F2002115310519F035
:102DC0008830910550F041E0089709F040E080918B
:102DD000E8008E778093E8006FCF44914093F10034
:102DE0003196215031090196E8CF803809F054C05E
:102DF0008091E800877F8093E80080910D088093A0
:102E0000F1009DCE811148C010911008123008F0D9
:102E100043C08091E800877F8093E80010930D08FD
:102E20000E946206112311F084E005C08091E30046
:102E300087FDFACF81E080930C0842E061EC81E0ED
:102E40000E94810642E261EC84E00E94810642E237
:102E500061EC82E00E94810642E260EC83E00E9425
:102E6000810642E261EC85E00E94810680910C08B7
:102E700013C080911008813079F481E0933009F01B
:102E800080E080930B081092E9008091E800877F32
:102E90008093E8000E9462068091E80083FF0AC0E8
:102EA0008091E800877F8093E8008091EB0080624A
:102EB0008093EB00AA96E3E00C9488300E9469149A
:102EC0002FEF84E39CE0215080409040E1F700C068
:102ED000000088E19CE00FB6F894A895809360000C
:102EE0000FBE90936000FFCF80916207882349F066
:102EF000809165078D7D809365070E94D2131092A3
:102F000062070895882321F00E94630B0E94D21368
:102F10000895882339F090915F07982B90935F076D
:102F20000E94D21308958823D1F19CEF980F913A13
:102F300078F4E8E6F2E09191891303C0DF0111977C
:102F40001C9292E0EE36F907B1F70E94D213089571
:102F500090E2980F983050F4877091E001C0990F7B
:102F60008A95EAF7892F0E94630BEFCF9BE5980FB4
:102F7000933028F490E080E00E94D607089598E509
:102F8000980F9B3128F490E080E00E94B1070895EB
:102F900093E3980F933118F460E00E94310E089586
:102FA000CF93C82F8823B1F08CEF8C0F813A00F5B6
:102FB000E8E6F2E08EE692E0DF012D91C21761F0C3
:102FC0008A179B07D1F76C2F86E692E00E9497073D
:102FD0000E94D213CF9108952191C21303C0DF0143
:102FE00011971C928E179F07B9F70E94D213EBCF4F
:102FF00080E28C0F883068F4C77021E030E001C0B7
:10300000220FCA95EAF780915F07822B80935F07B2
:10301000DFCFEBE5EC0FE33040F4F0E0EB5EFD4F8B
:10302000808190E00E94D607D5CFE8E5EC0FEB3128
:1030300050F4F0E0EE0FFF1FE85EFD4F80819181BC
:103040000E94B107C7CF83E38C0F833118F661E08C
:103050008C2F0E94310EBECF1F93CF93DF93182F7A
:10306000EB010E94D017209739F4812F0E9493170B
:10307000DF91CF911F9108958FE99FE00197F1F7BC
:1030800000C000002197EFCF70E060E0893311F4B9
:1030900060E570E00E942C180895B0E0A0E0E3E540
:1030A000F8E10C946830E82FF0E0E859F64FD4903E
:1030B000282F26952695269530E0F901E85AF64FF7
:1030C0000491877010E0082E02C0159507950A94A8
:1030D000E2F701701127F901E85BF64FE490F12C5B
:1030E000082E02C0F594E7940A94E2F791E0E922F1
:1030F000FF24F901E85CF64FC491D0E002C0D595F9
:10310000C7958A95E2F7C170DD270115110519F001
:1031100081EE0E94D017E114F10419F086EE0E94AE
:10312000D01770E060E08D2D0E942C18E114F1049E
:1031300019F086EE0E9493170115110519F081EE22
:103140000E949317CD2B19F08CE20E944418CDB742
:10315000DEB7E7E00C948430FF920F931F93CF9378
:10316000DF938C018AE0F82EF8018491882309F41A
:103170004BC0813009F044C0E8012196FE018491E2
:10318000813049F42196FE0184910E9444188E01F9
:103190000F5F1F4FE9CF823039F4E8012296FE011C
:1031A00084910E94D017F3CF833039F4E80122963E
:1031B000FE0184910E949317EACF843041F7E80121
:1031C0002296FE01249190E080E0FE01319620538A
:1031D000330B2A30310548F00197C8F2EFE9FFE0E0
:1031E0003197F1F700C00000F7CFF89EA001F99EDB
:1031F000500D1124C901840F951F2491EF01E5CFD3
:103200000E944D18E801C3CFCDB7DEB7E5E00C94BE
:103210008630CF93C82F91E08111982F80916E0254
:103220009170891751F091E0892780936E0288236D
:1032300021F08AE492E00E94AC188C2FCF9108957F
:103240000E9409198093DC0708959091DC0721E022
:1032500030E0F90101C0EE0F8A95EAF7D90102C00A
:10326000AA0FBB1F6A95E2F7EA2B01C0220F4A950D
:10327000EAF7892F8E23E81305C0292B822F0E949D
:103280002019089520952923F9CF21E030E001C0CD
:10329000220F8A95EAF720958091DC0782230E940D
:1032A0002019089590910F078095892380930F0727
:1032B000282F277069F4891759F090914D0792FFD4
:1032C00007C08695869586950E9445190E946A0BCF
:1032D0000895CF93C82F80914D0782FB992790F9CD
:1032E0009C17F9F0C0FB82F980934D0760914C0761
:1032F00070914D0784E090E00E942F3182E00E949F
:1033000052198091620880FF0CC01F92CF9385E113
:1033100094E09F938F930E94D3050F900F900F908E
:103320000F90CF91089521E030E001C0220F8A95DF
:10333000EAF78091DC07822B0E9420190895909172
:103340004D0792FF10C098E0899F90011124622BD5
:1033500060930F070E9493190E948B0790930E07AA
:1033600080930D0708950E94931908950F931F935A
:10337000CF93DF93C62FD42F022FFC0185818823A2
:10338000A9F0609365080E948B079093640880936E
:103390006308C77081E001C0880FCA95EAF70E94F0
:1033A0008917DF91CF911F910F9108958091650842
:1033B000681332C080916308909164080E9470077E
:1033C0008C3D910548F510E21D0FCD17B9F080E254
:1033D0008C0F883040F4C77081E001C0880FCA9517
:1033E000EAF70E948217183048F481E09D2F977009
:1033F00001C0880F9A95EAF70E948917802F0E94D2
:103400004418183070F6D77081E001C0880FDA9543
:10341000EAF70E948217C5CFC77081E001C0880F0C
:10342000CA95EAF7F6CFA8E0B0E0E9E1FAE10C943A
:1034300063307C01DC0114968C91882309F4BBC0B5
:1034400061E0C7010E940F118C018091EF0681118C
:10345000D9C0F701858181110CC00435FCE71F0735
:1034600009F4ADC008F06BC003353CE7130709F45D
:1034700078C0D70115968C91882309F4A3C69801CA
:1034800037572038310508F092C6003108F083C064
:103490008FEF93E00E94F33081117DC059ECC52E6F
:1034A00052E0D52E0111F5C0FE01339686E0DF0112
:1034B0001D928A95E9F74AE0B42E86010F5F1F4FEF
:1034C000C6010E94F33089831A82882309F463C0FD
:1034D000813009F015C14601B2E08B0E911CC80184
:1034E0000E94F3308A83882309F455C09FEF980F18
:1034F000933008F0DDC0E3E0CE0ED11CC4010E9481
:10350000F3308B83882309F446C01C828E010F5F41
:103510001F4FD8018C91882381F2813009F02BC193
:1035200011969C91119712968C91913009F0EAC0F6
:103530000E5F1F4F0E9444180F5F1F4FEACF0635E2
:103540008CE7180709F454C007359CE7190709F000
:1035500090CF60910001709101014FEF86EE96E0EF
:103560004EC08091620880FF08C084E592E09F937E
:103570008F930E94D3050F900F900E94691480E0F2
:103580000E9420198FE692E0909361088093600872
:1035900081E08093EF0680910F07877061F0D7017B
:1035A00015968C91882339F080914D0782FF03C0D6
:1035B00082E00E9452192896ECE00C947F308091B2
:1035C000620880FF08C084E592E09F938F930E9479
:1035D000D3050F900F900E94691480E00E9420197B
:1035E00086EE96E0909361088093600882E0D1CFE8
:1035F000609102017091030141E08FE692E00E9428
:103600005721C9CF980123553C472330310540F558
:1036100091E00535ACE71A0709F490E0F701258140
:10362000291709F4B8CF813029F0823079F010924F
:10363000EF06B1CF609160087091610822E031E03F
:1036400041E08FE692E00E94190FF1CF609160088F
:103650007091610820E031E04FEF86EE96E0F3CF05
:10366000813061F0823009F004CF609102017091E5
:10367000030197014FEF86EE96E008C060910001CC
:1036800070910101970141E08FE692E00E94EE0CFB
:10369000F0CEC114B4E0DB0609F47DCFC6010E9470
:1036A000F330811101C00150EFEFCE1ADE0AFACEDD
:1036B0006401843009F02ACF02E010E06401FFEFDA
:1036C000CF1ADF0AC4010E94F330E1E0F0E0EC0F12
:1036D000FD1FE00FF11F8083882309F45CCF8C3736
:1036E00041F4E2E0F0E0EC0FFD1FE00FF11F10826B
:1036F0000DCF0F5F1F4F460107301105F9F64BCF75
:10370000680104CF923029F40E5F1F4F0E94D0173A
:1037100013CF933029F40E5F1F4F0E9493170CCFE5
:10372000943019F00F5F1F4F07CF0E5F1F4F30E02F
:1037300020E0B8016F5F7F4FF80141818053990B02
:103740008A30910568F02115310509F4F5CE8FE92D
:103750009FE00197F1F700C0000021503109F3CF3D
:10376000B29EF001B39EF00D11249C012E0F3F1F5D
:10377000842F8B01DECF0E944D18DECE882309F402
:1037800084C089EE93E00E94AC187FC084EE93E081
:10379000FACF882309F479C08FED93E0F4CF882322
:1037A00009F473C081EC93E0EECF882309F46DC077
:1037B00087EB93E0E8CF882309F467C08CEA93E0B5
:1037C000E2CF882309F461C083EA93E0DCCF882349
:1037D00009F45BC087E993E0D6CF882309F455C08C
:1037E00080E993E0D0CF882309F44FC089E893E0C3
:1037F000CACF89E793E00E94AC1882E793E0C3CF79
:10380000882309F442C080E593E00E94AC1886E466
:1038100093E0B9CF8823C9F18EE393E00E94AC18FE
:103820008AE393E00E94AC1886E393E00E94AC1810
:1038300082E393E0A8CF882341F182E293E0A3CF13
:10384000882319F182E193E09ECF8823F1F089E08B
:1038500093E099CF8823C9F08DEF92E094CF88232D
:1038600019F081EF92E08FCF8AEE92E08CCF88231F
:1038700061F080EE92E00E94AC188AED92E09F9396
:103880008F930E94D3050F900F90D0901A078091CC
:103890005F07D82A80916207811165C0A2E2DA121F
:1038A00004C00E943A0B10926508F801E851FC47E9
:1038B000E730F10508F0FEC0E959FE4C0C94B43035
:1038C000882319F380ED92E05ECF8823F1F286EC35
:1038D00092E059CF8823C9F28CEB92E054CF882331
:1038E000A1F285EB92E04FCF882379F288EA92E04B
:1038F0004ACF882351F281EA92E045CF882329F20A
:103900008AE992E040CF882309F4BFCF83E992E0AF
:103910003ACF882309F4B9CF8CE892E034CF8823DA
:1039200009F4B3CF85E892E02ECF882309F4ADCF18
:103930008EE792E028CF882309F4A7CF87E792E0AB
:1039400022CF03379CE7190709F09FCF882309F49A
:1039500022CE80916207882319F00E9474171BCE33
:103960000E943A0B18CE0E948B0788579C4E90936A
:10397000610780936007F7018581882309F495CF5B
:103980008D2D8D7909F05DC00034F2E51F0778F5C3
:10399000011522E5120708F088CF011530E413075E
:1039A00058F4011580E2180708F03FC0063E1105E3
:1039B00009F47BCFC8010BC0011590E51907D0F7BA
:1039C000F7018681807F09F470CFC8019927109292
:1039D00065078832910508F03FC08E31910508F0E7
:1039E00041C0049770F182E0809365073BC0003EC0
:1039F000A2E51A07A0F4003CB2E51B0708F055CF7A
:103A00000036E2E51E07B0F2003AF2E51F0708F4BF
:103A10004CCF043B22E5120709F447CFCBCFC801B6
:103A200087579C47029730F640CFD70116968C9166
:103A3000807F59F6812F8F71823159F028F48230BE
:103A400041F00E94741731CF843109F42ECF8631B2
:103A5000C1F710926507F5CF8D32910521F228F458
:103A60008A9779F70E94D21320CF8C349105D1F335
:103A70008D329240B9F3E5CF26E241EE61EEC70107
:103A80000E94B61988CD27E245EE65EEF8CF26E212
:103A900041EE60EEF4CF27E245EE64EEF0CF26E291
:103AA00041EE62EEECCF27E245EE66EEE8CF28E28B
:103AB00041E0EBCFD70115968C91882309F45FC3C1
:103AC00010926508C8019057839708F041C384E0BD
:103AD00090E00E94FB3090934D0780934C07F801D3
:103AE000E150F047E232F10520F4E259FE4C0C942B
:103AF000B43080914C07816080934C0795C08091D1
:103B00004D07886080934D078FC080914C0782607D
:103B1000F3CF80914C078460EFCF80914C07886091
:103B2000EBCF80914D078160EDCF80914D07826092
:103B3000E9CF80914C078061DFCF80914C07806294
:103B4000DBCF80914C078064D7CF0E9469148091AD
:103B50004C078068D1CF80914C078C60CDCF80918D
:103B60004D078360CFCF80914C078E7FC5CF80916A
:103B70004D07877FC7CF80914C078D7FBDCF809148
:103B80004C078B7FB9CF80914C07877FB5CF809151
:103B90004D078E7FB7CF80914D078D7FB3CF80913A
:103BA0004C078F7EA9CF80914C078F7DA5CF809148
:103BB0004C078F7BA1CF0E94691480914C078F77AF
:103BC0009BCF80914C07837F97CF80914D078C7F4F
:103BD00099CF80914C0782FB992790F921E0922799
:103BE00090FB82F990FB83F987CF80914D07982F46
:103BF000909591708E7F892B90FB81F983CF909166
:103C00004C07892F8F7B96FF806476CF0E946914C2
:103C100090914C07892F97FB87F980586DCF61E011
:103C20008EE090E00E94113160914C0770914D0739
:103C300084E090E00E942F310E946914ACCC60E0D7
:103C4000EFCF90914C07892F8F7E94FF806154CFE6
:103C500090914C07892F8E7F90FF81604DCF90917E
:103C60004D07892F877F93FF88604CCF85E391C2F2
:103C700081E00E94931943E062E081E00E942519EF
:103C80008ACC81E00E944519F6CF82E0F2CF0B3555
:103C90008CE7180709F43FC00C359CE7190789F138
:103CA0000A351C4709F0B5C281E032C00E94691490
:103CB000BFEFE4E3FCE0B150E040F040E1F700C0CA
:103CC00000000E94CA0C90916208892F8E7F90FF9D
:103CD00081608093620880FF09C084E094E09F9334
:103CE0008F930E94D3050F900F9055CC82EF93E0F5
:103CF000F6CF6FEF7FEF90E080E00E942F310E94BF
:103D00005E1780914D0782FB882780F991E0892713
:103D10000E9469197EC280E0FBCF858100811181FC
:103D2000882369F0C8010E94A910D82E682FC80105
:103D30000E94B90BB8018D2D0E949B1070C2C80162
:103D40000E94850BD82EF6CF212F2F70D22E107FF8
:103D500019F0D29490EFD922CC20B9F0DD2069F08F
:103D600080E2800F883010F0011109C080915F0758
:103D7000D82AD0925F070E94D213802F43C080912F
:103D80006507D82AD0926507F6CF802F0E94931737
:103D9000DD20D1F180E2800F883010F0011104C0E5
:103DA0008D2D0E94630B06C0D09480916507D822A8
:103DB000D09265070E94D21327C0312F3F70D32EB7
:103DC000107F103219F0D29480EFD822002351F0E6
:103DD000013009F486C0CC2009F492C0BB2009F45C
:103DE00040C0CBCF80914D0782FD37C0CC2079F108
:103DF000DD2039F080915F07D82AD0925F070E94BA
:103E0000D21380E00E94D017A92DA850BB0B1497A5
:103E100010F40E94FB07AA20A9F080910F0780FDF3
:103E200011C0F70115828695869586950E94931993
:103E3000C7010E94131A80910F0786958695869573
:103E40000E94451960E0C7010E940F11B4CB80E0C9
:103E50000E949317DD20C1F2A3CFCC2069F1B110ED
:103E600004C08D2D0E948917CFCF81E0B81210C0F9
:103E700010911A078D2D8123D81631F20E948B07DD
:103E80009093190780931807D12AD0921A07BCCFB4
:103E900093E0B912B9CF8D2D0E9489178D2D0E9404
:103EA0004E0B80910C079D2D9823D91609F4ACCFA9
:103EB000D82AD0920C07A8CFB1100AC08D2D0E942D
:103EC00082178D2D0E944E0B8D2D0E94710B9CCF61
:103ED000A1E0BA1299CF80915F078D2109F494CFA8
:103EE000EDCFCC2029F0B3E0BB1508F48DCFB9CFCE
:103EF000E2E0EB1508F488CF8D2D0E94821784CF65
:103F0000BB20D1F3093349F4FFEF27EE33E0F15042
:103F100020403040E1F700C00000802F0E9493173E
:103F200073CF812F86958695837061F0813009F07B
:103F30006BCFC8019370C11002C080E090E00E9476
:103F4000B10762CFC8019370C11002C080E090E059
:103F50000E94D60759CF6C2D802F0E94310E54CF6E
:103F6000812F837089F5C1104FCF402F4295469520
:103F70004770440F440F802F8F70042E01C0880FAC
:103F80000A94EAF7202F207104FF07C02FE030E0E9
:103F900001C0220F4A95EAF72095169516951370E1
:103FA000123069F050F430911B07113029F0822B48
:103FB00083230E94F00B28CF832B822BFACF282B50
:103FC00080911B078227F5CF8695CC2011F0812F99
:103FD0008170882309F418CF402F42954695477089
:103FE000440F440F802F8F70042E01C0880F0A9455
:103FF000EAF7202F207104FF07C02FE030E001C056
:10400000220F4A95EAF720951695169513701230EF
:1040100069F050F43091DC07113029F0822B8323B2
:104020000E942019F1CE832B822BFACF282B80916E
:10403000DC078227F5CF1F70CC2029F0812F0E944A
:104040009319802F0FCF802F0E948217812F0E94FB
:104050004519DACE023F89F160F4003FB9F0013F23
:1040600081F0CC2009F464C0B11087CE812F8F710C
:1040700028C0033F49F1043FA1F780914D0782FD1D
:104080002FC0812F8F71CC2011F31BC0CC2081F069
:1040900082E08B1508F4B8CE1F7181E090E0012E0C
:1040A00001C0880F0A94EAF79091DC078927B8CFFE
:1040B00093E09B1508F4A8CEEFCF812F8F71C1102C
:1040C000C6CF0E949319A0CE80E0CC2009F4A8CFDF
:1040D0001F7181E0012E01C0880F0A94EAF7A0CF7A
:1040E000CC20C9F080910F078770843041F40E9482
:1040F0006A0B812F8F710E944519A12C85CEA2E0F9
:10410000AB15D8F31F71812F0E94931963E0812FA3
:104110000E949F19F2CFB2E0BB1530F40E946A0BE7
:1041200064E0812F8F71F4CF81E00E945219E5CFB6
:10413000BB2059F0093309F0F0CEEFEFF7EE23E0A2
:10414000E150F0402040E1F7E6CE812F8F717FCF24
:104150000631FCE71F0709F040C080915F078A7AAB
:1041600091E009F490E09093F00669E2811165E333
:1041700086E692E00E9497070E94D2130CCA06318D
:104180002CE7120709F087C08091F00681116ECDEF
:1041900089E2E8E6F2E02EE632E09191891303C06D
:1041A000DF0111971C922E173F07B9F7E5CFF801F1
:1041B000E054FE47E032F10508F0C3CBE057FE4C77
:1041C0000C94B430F801E054FE47E032F10508F0F9
:1041D000B8CBE055FE4C0C94B43007373CE71307DE
:1041E00009F446CD08378CE7180709F44ECD0330A3
:1041F000BCE71B0709F47DCD08F049CD0130FCE791
:104200001F0709F47CCD08F05ECD01151C4709F4A9
:104210004DCDF70187819085009709F47ECD0E94EE
:10422000110A8C01F701C580B680B2943FE0B32239
:1042300080910F07877001F1AC2CCC20F1F0812F19
:10424000807F803461F080E2800F8830A8F0812F79
:10425000807E803221F4023078F0BB2069F08091BA
:104260004D0782FF09C082E00E94521980910F071A
:104270008770AA24A3948111A12C912E92942FE0EF
:104280009222FBE0F91508F4BFCDE92DF0E0E053F0
:10429000FE4C0C94B43007379CE7190709F4F1CCB5
:1042A00082E00837ACE71A0709F4ECCCB2CFB0E0F3
:1042B000A0E0EDE5F1E20C946830EC017B01042F05
:1042C0008091620880FF10C082E0413009F481E0F3
:1042D0001F928F9380E497E09F938F930E94D30562
:1042E0000F900F900F900F90D090DC070E946914F0
:1042F00080E00E94201929E0020280011124CE15DD
:10430000DF0551F40E9469148D2D0E942019CDB74C
:10431000DEB7E7E00C948430CE010E94131AC00F80
:10432000D11F8FEF90E722E0815090402040E1F7CD
:1043300000C00000E4CFCF93DF9380910907807F16
:1043400009F04DC080910807882309F448C0E09126
:104350005F0850911608C0910407D091030760913F
:1043600005077091060749E05E17C9F18E2F90E0AE
:10437000E49FF0011124E95EF74F2481222391F19B
:10438000489FF001499FF00D1124DF01A95EB74F4E
:1043900011962C9111972C1325C02C912D1322C00E
:1043A00015962C91159721111DC012962D913C91B7
:1043B000261B370B2C3D3105A8F4809109078F701F
:1043C000806180930907E35EF74F80818F70806181
:1043D000808383E097E00E94131A0E947B0BDF9199
:1043E000CF910895FC013196E770BECFA8E1B0E00F
:1043F000ECEFF1E20C9460308C0186E0F801DE0114
:10440000539601900D928A95E1F7D8011496FC908D
:1044100014971596EC9083E0682E87E0782E8091B3
:10442000070781112AC0F11003C0FF24F3941CC0B8
:10443000EE20F9F0C8010E94E510F82E8823C9F09B
:1044400089E0F801A3E0B7E001900D928A95E1F7C9
:1044500080910707813031F4809103079091040720
:104460000E94D8100E949B218F2D6896EFE00C943B
:104470007C30C8010E94131AD8CFF8015080A18067
:10448000C280D38060E083E097E00E940F114C016E
:10449000B09008078091050790910607BB2009F4AA
:1044A00044C19601281B390B2C3D310508F0E2C0B0
:1044B000FF2009F4BACF20910407D80111969C91EE
:1044C000119780910907382F307F09F081C0FE2CA9
:1044D00029131EC0209103079C91291319C04091F4
:1044E0000A0750910B0717962D913C9142175307DD
:1044F00079F4E1105BC08F7080618093090783E0DD
:1045000097E00E94131A80910907F8018683ACCFC7
:10451000E1104CC06A2D852D0E94DC05E82E882311
:10452000C1F0F4E08F16F1E29F0631F023E382162A
:1045300021E2920609F098CF83E097E00E94131AD7
:1045400089E0E3E0F7E0DF011D928A95E9F7F12CBD
:104550008BCF5B8AAC8A8B899C890E94D810292FCB
:1045600022952F70243058F49F70223088F09923C0
:1045700099F0F8019681907F79F4FE2C75CF2A5F2F
:104580002F70223068F0C8010E94131AEB2CF5CF6F
:10459000992311F0882389F3805E883070F3F3CF7C
:1045A000803F58F3815F833070F7E7CF8091090730
:1045B000816080930907FDE18F16F2E29F0609F4FE
:1045C000BBCF28E3821622E2920609F0C0CFB4CF17
:1045D000291321C0209103079C9129131CC04091ED
:1045E0000A0750910B0717962D913C911897421787
:1045F000530789F4E1100FC016968C93C8010E94EE
:10460000131A89E0F801A3E0B7E001900D928A95B2
:10461000E1F7FB2C29CFC8010E94E510882309F49B
:1046200028CFEE2009F425CF809109078032B8F019
:1046300020910307309104073B872A87DD86CC86CB
:10464000909107079E871F86888B80910A0790911B
:104650000B079A8B898BCE010A960E94131A89E068
:10466000F801A3E0B7E001900D928A95E1F70E946E
:104670009B21DBCE80910907982F907F51F483E036
:1046800097E00E94131A89E0F30111928A95E9F7E5
:104690005ECFFF2009F4C9CE20910407D8011196FE
:1046A0009C91119729131DC0209103079C912913F8
:1046B00018C040910A0750910B0717962D913C9115
:1046C00018974217530769F4E1100BC016968C93A4
:1046D000C8010E94131A89E0F30111928A95E9F743
:1046E00098CFC8010E94E510882309F4C2CEEE20BD
:1046F00009F4BFCE80910907803208F4B0CF209131
:104700000307309104073A832983DC82CB8290919E
:1047100007079D831E828F8380910A0790910B0764
:1047200099878887CE01019698CFC81AD90AFCEDDF
:10473000CF16D10408F0A7CFFF2009F476CEFE2CC7
:10474000EE2009F496CE90910407D80111968C9131
:104750001197981330C0909103078C9198132BC038
:1047600020910A0730910B0717968D919C9118970D
:104770002817390701F59091090790FD13C0907F24
:1047800089F08091090716968C931697903F39F01F
:10479000982F907F905F8F70892B16968C93C8010D
:1047A0000E94131A89E0F801A3E0B7E001900D928E
:1047B0008A95E1F759CEC8010E94E51081114FCFCB
:1047C00080910907816080930907C8010E94131A2C
:1047D0004BCEA2E1B0E0EFEEF3E20C946B300A872F
:1047E0001B872C873D874E875F87688B798B8A8BE9
:1047F000CE010A960E94F62181110CC089E0FE01CB
:104800003A96DE01119601900D928A95E1F78E8518
:1048100081110BC019E080915F08909116088913EF
:1048200031C06296E4E00C9487302091160830E0A5
:10483000C90101968770992740915F0848171906AA
:1048400099F099E0929FD001939FB00D1124A95E39
:10485000B74FFE01319601900D929A95E1F7809342
:1048600016080E947B0BD6CF0E946914109216087E
:1048700010925F0889E0E3E0F7E0DF011D928A957E
:10488000E9F7C8CF819FC0011124895E974F0E942C
:10489000F621882331F280915F0890E001968770BD
:1048A000992780935F08B7CFEF92FF920F931F93E2
:1048B000CF93DF9380916707882361F0E0916607CB
:1048C0008DE0F82E80916707E81748F0109267078F
:1048D00010926607CDB7DEB7E6E00C948530EE2483
:1048E000E394EE0EE0926607CE2FD0E0EF9DF0014C
:1048F0001124E859F84F84818823E9F08781908555
:10490000892B21F481859285019659F400811181CA
:1049100022813381448155816681778180850E941F
:10492000E923FC9EF001FD9EF00D1124E859F84F9B
:10493000148210926507EE2DC5CF1092DB071092FE
:10494000DA071092F5018091D9078093D8070E9469
:10495000DD080E9454240895B0E0A0E0E2EBF4E208
:104960000C945D30C091D807E7E0FE2E01E010E026
:10497000FDE02F2EEE24E3948091D9078C1309C01B
:104980000E9454240E94DD08CDB7DEB7E2E10C940A
:104990007930D0E0FE01EE0FFF1FE053F84F808129
:1049A0009181F89EF001F99EF00D1124EF5CFE4F0D
:1049B000248121115AC030906707A8E6B7E030E0A3
:1049C00020E0412C5F01231508F04DC01B966D902F
:1049D0007C901C97F501808091804FEF5FEF512C08
:1049E000C52CD12CF601EE0FFF1FE80DF91D6591C6
:1049F00074916616770609F4A601672B11F053949B
:104A0000EFCF4F3F5407B9F1B80102C0660F771FCF
:104A10004A95E2F7462AA801052C02C0440F551F0B
:104A20000A94E2F7415051094416150609F5229EF1
:104A3000F001239EF00D1124E859F84FF89ED001A3
:104A4000F99EB00D1124AF5CBE4F12962D913C9192
:104A500013973087278374E07483108211829287C2
:104A600081871596EC920E94AF082196C37084CF7F
:104A700014961C9214972F5F3F4F1D96A4CFAEE162
:104A8000B0E0E5E4F5E20C945D304B8B5C8B6D8B14
:104A90007E8B8F8B988F911110926507188A198AD7
:104AA0001A8A86E0FE017396DE011A9601900D9235
:104AB0008A95E1F780914D0782FF1CC00E948B0709
:104AC00020910D0730910E07821B930B8835924081
:104AD00020F080910F0782FFEAC10E948B0720918E
:104AE000180730911907821B930B8835924010F0FC
:104AF0000E942F0B8E85882381F061E0CE010A96FB
:104B00000E940F119C019F8520354CE7340789F4E2
:104B1000992311F181E08093F5010A851B852C858D
:104B20003D854E855F85688979898A890E94E92358
:104B3000CBC021355CE7350729F4992369F00E9441
:104B40009D24EBCF22353C4739F4992329F08091FD
:104B5000F5018111F4CFDECF6A857B8580E00E946C
:104B60009B104C01F1E3EF2EF1E0FF2E512CD12CE4
:104B7000C12CAA24A394B12CB7E04B2EFE01319690
:104B8000FA8FE98F33243394F701408151816624F1
:104B90006A94762C60E0262F30E0F901EE0FFF1FBB
:104BA000E40FF51F859194918816990609F439014F
:104BB000892B11F06F5FEFCF10E0FFEF6F167F06CC
:104BC00009F443C0F70144811091F501812F41118F
:104BD00080E0182F1170F701258086819F85992329
:104BE00009F4F2C0112309F4EFC0211014C095019B
:104BF000062C01C0220F0A94EAF7822B868380914B
:104C0000630790916407CC9730F42CE330E0309345
:104C1000640720936307C50102C0880F991F6A9536
:104C2000E2F70197F70126812817190671F48091A0
:104C3000DA079091DB07009709F44AC00E947007D9
:104C4000CD9708F445C0F7013482512AFFEFCF1AFF
:104C5000DF0A27E0E20EF11C3CE1C316D10409F0A3
:104C600093CF8F85882309F40EC1552009F40BC119
:104C70000E948B079093DB078093DA078091670788
:104C8000883010F591E0980F9093670799E0FE0146
:104C90003A96DE01119601900D929A95E1F74DE05A
:104CA000849FC00111248859984F29E0FE01319654
:104CB000DC0101900D922A95E1F72FEF3FEFFC0107
:104CC00032872187948683866E96E2E10C94793050
:104CD0008091D8076091D907982FF0E0E0E0861323
:104CE00014C09093D807EE16FF0609F4AECF90E0FB
:104CF000FC01EE0FFF1FE053F84FD182C0820196F6
:104D0000837099278093D907A0CF682E712CF30167
:104D1000EE0FFF1FE053F84F20813181429ED001FA
:104D2000439EB00D1124AF5CBE4F2D913C91119765
:104D30003E8F2D8F00E070E0212CE22DF0E0EE0F91
:104D4000FF1F2D8D3E8DE20FF31F2591349121150C
:104D50003105E1F0F7010190F081E02DFC8FEB8F40
:104D600070E005C02417350709F4012F7F5FE72F96
:104D7000F0E0EE0FFF1F4B8D5C8DE40FF51F4591AA
:104D800054914115510571F72394D7CF0023C9F0F1
:104D9000F701721508F0FD013482EE16FF0621F4CA
:104DA0009093D807102F51CF891305C0AE17BF07B6
:104DB00011F49F5F937093012F5F3F4F822F837099
:104DC0008ECFF0E0E0E0F7CF90E021101FC095011A
:104DD00002C0220F331F6A95E2F7215031092817CC
:104DE000390731F4442309F44CC0C6010E94AF08CE
:104DF000C501062C01C0880F0A94EAF7982F9095F8
:104E0000F701868189238683122D1FCFAC01062CE2
:104E100002C0559547950A94E2F7BA016170772769
:104E20009C012150310982239323892B31F5672B73
:104E300021F1F70182819381892BE1F0E98DFA8DCF
:104E4000242D11922A95E9F70E948B07282F8B8336
:104E50009C8334E03D83F70182819381782F88879A
:104E6000998709811A813C8144E05E816F81892F95
:104E70000E94E923F7011582BBCFF42FF1702F2E8A
:104E8000B7CF212EB5CF9091D8078091D907981729
:104E900029F00E94AC24511017CF3FCE0E94542419
:104EA0001092DB071092DA070E94DD08F4CF82E04F
:104EB0000E94521912CEA6E0B0E0E1E6F7E20C94AF
:104EC0006B300E948B078C0180911C0790911D070D
:104ED0008017910781F019821A820E948B07682F30
:104EE00049815A81792F80E090E00E943F251093FC
:104EF0001D0700931C072696E4E00C948730A8E079
:104F0000B0E0E5E8F7E20C946D3066EE7EEF90E0FD
:104F100080E00E942F3160E082E090E00E94113139
:104F200081E080931B0761E083E090E00E941131F3
:104F300060E074E184E090E00E942F3160E086E060
:104F400090E00E94113160E087E090E00E94113112
:104F500040E050E0BA0188E090E00E94233160E038
:104F600084E290E00E94113160E087E190E00E94CD
:104F7000113160E08CE090E00E94113160E08DE042
:104F800090E00E94113119821A821B821C821D82BC
:104F90001E821F82188648E050E068E170E0CE0172
:104FA00001960E94013140E050E0BA0180E290E0B9
:104FB0000E94233180E00E94BB0F0E94431040E01A
:104FC00050E0BA018FE090E00E94233140E050E0D1
:104FD000BA0183E190E00E9423312896E2E00C942C
:104FE00089301F920F920FB60F9211242F933F9387
:104FF0004F935F936F937F938F939F93AF93BF93E1
:10500000CF93DF93EF93FF93D091E900DF7080910E
:10501000EC00C82FC17080FDC0E81092E9008091BB
:10502000F000877F8093F00078940E949A14109289
:10503000E9008091F00088608093F000CD2BCF7064
:10504000C093E900FF91EF91DF91CF91BF91AF91B4
:105050009F918F917F916F915F914F913F912F9190
:105060000F900FBE0F901F9018951F920F920FB6C2
:105070000F9211242F933F934F935F936F937F93DE
:105080008F939F93AF93BF93EF93FF938091E10032
:1050900082FF15C08091E20082FF11C08091E10083
:1050A0008B7F8093E1002091FE072F5F822F62E3C8
:1050B0000E949430992309F4D0C02093FE07809178
:1050C000DA0080FF2CC08091D80080FF28C080913A
:1050D000DA008E7F8093DA008091D90080FFF3C0E0
:1050E00080E189BD82E189BD09B400FEFDCF81E088
:1050F00080930C0889E098E09F938F930E94D305DA
:105100008091FF070F900F90811109C00E94120635
:105110000E94B3068091E20084608093E200809157
:10512000E10080FF1FC08091E20080FF1BC08091E2
:10513000E2008E7F8093E2008091E20080618093A4
:10514000E2008091D80080628093D80019BC85E08D
:1051500080930C0881E198E09F938F930E94D30580
:105160000F900F908091E10084FF33C08091E200A6
:1051700084FF2FC080E189BD82E189BD89B5982F68
:10518000917080FFFBCF8091D8008F7D8093D800F5
:105190008091E1008F7E8093E1008091E2008F7E1C
:1051A0008093E2008091E20081608093E200809130
:1051B0000D08882309F495C084E080930C0885E1EC
:1051C00098E09F938F930E94D30580910C080F90D5
:1051D0000F908091E10083FF2FC08091E20083FF58
:1051E0002BC08091E100877F8093E10082E0809373
:1051F0000C0810920D088091E1008E7F8093E100F1
:105200008091E2008E7F8093E2008091E2008061D5
:105210008093E20042E060E080E00E94810680919D
:10522000F00088608093F00089E198E09F938F936D
:105230000E94D3050F900F90FF91EF91BF91AF9116
:105240009F918F917F916F915F914F913F912F919E
:105250000F900FBE0F901F9018951092FE0780912F
:10526000FD07882309F42BCF80910C088430C1F40A
:105270009091E9009F702091EC00822F817020FDB9
:1052800080E8892B95E09093E9009091EB0090FFE6
:1052900004C09091EE0097FD08C08F708093E900E4
:1052A0001092FD070CCF1092F1009091E80095FD4F
:1052B000FACF9091E80090FFF0CF9091E8009E77B0
:1052C0009093E800EACF19BC10920C088DE098E0AA
:1052D0009F938F930E94D3051092FF070F900F901A
:1052E0001ECF8091E30087FD93E090930C0867CF79
:1052F00078941F921FB61F9211248F939F93AF93A0
:10530000BF938091F8079091F907A091FA07B091A7
:10531000FB070196A11DB11D8093F8079093F90733
:10532000A093FA07B093FB07BF91AF919F918F9124
:105330001F901FBE1F9018951F921FB61F92112419
:105340008F939F93AF93BF938091F707811113C001
:105350008091F8079091F907A091FA07B091FB07A7
:105360004196A11DB11D8093F8079093F907A09372
:10537000FA07B093FB07BF91AF919F918F911F9058
:105380001FBE1F901895CDB7DEB7A6970FB6F8943D
:10539000DEBF0FBECDBF85B7806885BF85B780688B
:1053A00085BF84B7877F84BF0FB6F894A895809196
:1053B0006000886180936000109260000FBE80E8FA
:1053C00090E00FB6F89480936100909361000FBE57
:1053D0008BE09CE090936502809364020E94120629
:1053E0000E94B3068091E20084608093E20078948A
:1053F00080910C088823A1F01091E9001F70909112
:10540000EC00892F817090FD80E8182B1092E90044
:105410008091E80083FD0E949A141F701093E900A8
:1054200082E084BD93E095BD9AEF97BD80936E00B6
:1054300010923E0710923F071092400710924107CA
:105440000E945310811102C00E94431088EC90E02A
:105450001091E300111F1127111F61F4AFE3BCE9A4
:105460001197F1F700C00000019791F70E94120612
:1054700010920C081093EF070E943F11811102C097
:105480000E947F278EE090E00E94F33091E081112E
:1054900001C090E09093F007909326018091EF0770
:1054A00081110E94FB2E80912601811120C080EF86
:1054B0008093220181EF8093230184EF8093240164
:1054C00085EF8093250186E0E7EFF1E0DE0111969C
:1054D00001900D928A95E1F7FE013196ACE1B1E0C1
:1054E000CE01079621912D938E179F07D9F78091B2
:1054F000260194E0811190E090934B0784E0891B92
:1055000080934A070CE111E0F80181918F018F3FF0
:1055100011F00E94EF08F1E002321F07A9F702E242
:1055200011E076E2E72E71E0F72ED8018D918D0122
:105530008F3F11F00E94EF08E016F106B1F788E006
:10554000E7E5F7E0DF01282F1D922A95E9F7E2E46D
:10555000F7E0DF011D928A95E9F70E943F11811162
:1055600002C00E947F2782E090E00E94F330809387
:10557000620884E090E00E94FB3090934D07809396
:105580004C070E944A12BFEFE6E7F1E0B150E0405D
:10559000F040E1F700C000000E944A128091F0073D
:1055A000E4E08111E0E0F0E0E95AF84F808181FF0A
:1055B00008C06FEF7FEF90E080E00E942F310E94E3
:1055C000CA0C83E090E00E94F3300E94F00B8091BF
:1055D000DC070E9409198091EF07811102C00E9427
:1055E000FE2E87E291E09093F4078093F307809179
:1055F0000C088530B9F48091620880FF08C02CEB5C
:1056000034E03F932F930E94D3050F900F9000E159
:1056100012E180910C08853009F454C00E9469148D
:105620000E94FB070E944A125EE4452E57E0552E69
:1056300067E5262E67E0362ED101F20191918D911A
:1056400027E0E635F20709F476C09817B9F38091A0
:10565000620881FDD6C1C090EF0710E0D1010D9125
:105660001D01F201D1902F01D01631F1D026F12C7D
:10567000EE24E3948D2D8E21B9F0CC20A9F0F9A26F
:105680001AA30E948B079CA38BA3F1E0FDA391E0DA
:10569000802F8E2109F490E09EA349A15AA16BA10D
:1056A0007CA18DA10E943F25F394EE0C26E0F2121E
:1056B000E1CFF201319700831F5F183079F60E9425
:1056C00006093DC080910C08843021F11092F70743
:1056D00088E190E0A0E40FB6F894A895809360006C
:1056E0000FBEA093600083B7817F846083BF83B7C0
:1056F000816083BF7894889583B78E7F83BF0FB610
:10570000F894A89580916000886180936000109261
:1057100060000FBE80910B08882309F47ACF0E94A5
:105720004A12E7E5F7E081918111E2C2B7E0EF3577
:10573000FB07C9F76ECF98138ACF0E945B27809131
:10574000EF078823A9F18091F501882301F1809169
:10575000DA079091DB070097D1F00E947007209143
:105760006307309164072817390788F49091D807A8
:105770008091D907981709F486C10E94AC24109231
:105780006407109263071092DB071092DA0780918A
:105790006207882369F00E948B072091600730918F
:1057A0006107821B930B8F3F9F4710F40E94741771
:1057B00086E0E9EEF7E0DE01119601900D928A9500
:1057C000E1F7E090EA071091EB070091EC07D09029
:1057D000ED07F090EE071092EB071092EC07109295
:1057E000ED071092EE07C090DD07CC20E1F180912B
:1057F000E7079091E8070E94700741E024E630E057
:105800004C1510F420E130E02817390760F590902E
:10581000DE07A090E107C090E0076091DF07892DC7
:105820000E940C08B82E8093DF076A2D8C2D0E94F1
:105830000C08A82E8093E10780E00E945A0880930C
:10584000EB0781E00E945A088093EC07B92809F41D
:1058500010E0CA2809F400E08091DD07823018F4D6
:105860008F5F8093DD078091DE079091E007892BA1
:105870009091DF07892B9091E107892B21F41092F9
:10588000DD0700E010E08F2D8D2909F44DC08091D7
:10589000E5079091E6070E9470079C019091E2074E
:1058A000992309F449C22D33310508F43DC09F3FC7
:1058B00019F09F5F9093E207DD2059F00E943A08AB
:1058C0009FEF1D140CF491E0899F802D112480938B
:1058D000ED07FF2059F00E943A0891E01F140CF0E8
:1058E0009FEF899F802D11248093EE073091ED0763
:1058F0003323D1F02091EE072223B1F045EB34039E
:10590000C001112497FFC8C080589109892F809346
:10591000ED0735EB2303C001112497FFC4C0805865
:105920009109892F8093EE078091EA078E1117C0A5
:105930008091EB07882311F0811311C02091EC07AF
:10594000222311F020130BC09091EE07992311F040
:10595000F91205C03091ED07332309F4DFC10E942D
:10596000700D1B830C8386E0FE013196A9EEB7E033
:1059700001900D928A95E1F70E94FB07182F809104
:1059800056071817A9F0109356070E947F078091B9
:1059900062088570853061F41F921F9380EF94E058
:1059A0009F938F930E94D3050F900F900F900F90AD
:1059B00080910C08843009F01ACE83E08093E900CE
:1059C0008091E80082FF13CE8091E80090E085FF8F
:1059D00006C00E943106882309F46EC091E08091D0
:1059E000E8008B778093E800992309F400CEE981E1
:1059F000E150E33108F087C0F0E0E452FE4C0C9433
:105A0000B43081EE94E09F938F930E94D3050F9062
:105A10000F9087E5C82E87E0D82E10E000E09CEDBF
:105A2000892E94E0992E29EDA22E24E0B22E34ED99
:105A3000E32E34E0F32E42ED642E44E0742E1F93E7
:105A40000F939F928F920E94D305BF92AF920E94B4
:105A5000D305D6018D916D010E94F30B1F928F9398
:105A6000FF92EF920E94D3057F926F920E94D3051E
:105A70000F5F1F4F0FB6F894DEBF0FBECDBF0830CB
:105A80001105E9F6E8CD0E9454241092DB0710922C
:105A9000DA070E94DD087BCE80589F4F892F911135
:105AA00036CF81E034CF80589F4F892F91113ACF64
:105AB00041E04093EE0738CF00E210E0CE010196BE
:105AC0007C018091E80085FD0AC08091E8008B7719
:105AD0008093E8000E943106882399F37FCF80915C
