:100000000C94F4040C942C050C942C050C94CB301B
:100010000C942C050C942C050C942C050C942C059C
:100020000C942C050C942C050C949C290C945829A8
:100030000C94032B0C942C050C942C050C942C057F
:100040000C942C050C942C050C942C050C942C056C
:100050000C942C050C94DF2A0C942C050C942C0584
:100060000C942C050C942C050C942C050C942C054C
:100070000C942C050C942C050C942C050C942C053C
:100080000C942C050C942C050C942C050C942C052C
:100090000C942C050C942C050C942C050C942C051C
:1000A0000C942C050C942C050C942C0515000900BF
:1000B00000001A00160000002A00815200002602EB
:1000C000250200002414250200000700060000009D
:1000D0000A0017000000AE00D90000000800070069
:1000E00000000D00100000000700190000001B2494
:1000F000070000001B241900000006001900000082
:100100001B24060000000900190000000A00050079
:1001100000002C4283520000190005000000150069
:100120001700000009000A0000001D001B0000006D
:100130001600090000000E000F0000000C00120065
:1001400000000B000D000000070009000000160071
:10015000070000000631FF0974A10109751500268A
:10016000FF00952075088102C005010902A10185E3
:10017000020901A1000509190129081500250195A9
:1001800008750181020501093009311581257F9526
:10019000027508810609381581257F95017508814A
:1001A00006050C0A38021581257F95017508810620
:1001B000C0C005010980A101850319012AB70015F6
:1001C0000126B700950175108100C0050C0901A139
:1001D00001850419012AA002150126A002950175C6
:1001E000108100C00660FF0961A1010962150026A7
:1001F000FF009520750881020963150026FF009510
:100200002075089102C005010906A101050719E042
:1002100029E71500250195087501810295017508EA
:1002200081010507190029FF150026FF00950675B5
:100230000881000508190129051500250195057596
:10024000019102950175039101C00103E20103E0F0
:100250000103E30064796E616D6963206D6163720F
:100260006F207265636F7264696E673A20737461A0
:10027000727465640D0A000102E3010124000102A9
:10028000E3010123000102E3010122000102E30175
:100290000121000102E3010120000102E301011F2D
:1002A000000102E301011E000102E00102E101017F
:1002B0002B0103E1000102E001012B000102E20138
:1002C000012B010150000102E001011B0103E000CC
:1002D0000102E00101190103E000636F70790A0077
:1002E0000102E00101060103E0000103E10103D383
:1002F000000102E1010431357C0102D3000101D18A
:10030000010431357C0101D1000102E12C0103E13E
:1003100033000102E30102E001014F0103E00103A8
:10032000E3000102E30102E00101500103E00103E7
:10033000E3000103E200010128000102E2000102E2
:10034000E06C0103E0000101500101500101500087
:100350003D667261630102E6370103E60102E630A1
:100360000103E60102E6370103E60102E63001037C
:10037000E600010150010150007072696E740102C3
:10038000E1383232390103E1006D37373634380055
:100390004D3737363438004876612069206661650C
:1003A0006E31003436333630363931005363686F7E
:1003B000706D65696572004A616E204572696B20D7
:1003C000006A616E2E6572696B0102E6320103E616
:1003D0007363686F706D656965722E636F6D00720F
:1003E000656D61006B6977690062756E6E70726928
:1003F000730044454255473A2064697361626C65F5
:10040000642E0A0044454255473A20656E61626C8D
:1004100065642E0A004F6E6573686F743A206163DD
:10042000746976653A2025640A004F6E6573686FBB
:10043000743A2074696D656F75740A000A0025307E
:10044000325820006B6579626F6172645F7265700B
:100450006F72743A2025303258207C20005461722B
:1004600067657420636F6E6E65637465640D0A0062
:1004700054617267657420646973636F6E6E65633F
:100480007465642C207468726F74746C696E672074
:10049000636F6E6E656374696F6E20617474656DF1
:1004A0007074730D0A004661696C656420746F2076
:1004B000657865637574652025730A0073757370BC
:1004C000656E64696E67206B6579626F6172640D39
:1004D0000A000A0025303862003A200025303258E0
:1004E000000A722F632030313233343536370A0038
:1004F0006C65645F7461736B3A20253032580A0072
:10050000000014001A00080015001700D100042193
:100510001600070009000A0046001D221B240600E1
:100520001900050000000000017C007CA2528152ED
:100530001C0018000C0012001300D2000B000D006C
:100540000E000F0033210552110010003600370055
:100550003822D3002C428352567C577C0000000086
:1005600001001E021F0220022114220201001E00AF
:100570001F002000210022000100E100587E300011
:10058000577E310000000000010001002A00010038
:100590002302240225022602270201002300240050
:1005A00025002600270001002E002D00010001007B
:1005B00001000052010001000100010000000000E4
:1005C0000100AA00AC00AE00AB00A900517E597E2C
:1005D0005A7E5B7E5C7E5D7E0100E100E2005E7E15
:1005E0005F7EA80000000000010001002A004C000E
:1005F0000100241425022602271401004A0050019C
:1006000052004F014D000100567E500051004F0036
:10061000E30000520100045201000100000000004C
:10062000010035001F1420142102221401003A0099
:100630003B003C003D003E000052400041004200B3
:100640004300440000000000010001002A004C00AB
:10065000537C547C25142614300201003F00010015
:10066000640064023102010045004E7E497E477EEF
:1006700030140052000001000100010001000100DF
:10068000007C007C407E427E417E00000000000035
:100690000000520000000000000000005000510067
:1006A0004F000052000000002800E3002A00010073
:1006B00053005F0060006100540055002B005C0097
:1006C0005D005E0057005600000059005A005B00B4
:1006D00058000052010062006300010000000000A9
:1006E0000000000000000708000000000052D400D5
:1006F000D100D900D200D5000052D300DB00DA00CF
:10070000DC00005200000000005200520052005273
:1007100000004B7E2B084C7E000000000000000013
:10072000CD000000000000520000CF00CE00D0003D
:10073000000000520052005200520052000000001F
:1007400064796E616D6963206D6163726F3A2073C5
:100750006C6F7420256420706C61796261636B0A30
:100760000064796E616D6963206D6163726F3A2018
:10077000736C6F742025642073617665642C206C23
:10078000656E6774683A2025640A0064796E616D4D
:100790006963206D6163726F3A207472696D6D696F
:1007A0006E67206120747261696C696E67206B6589
:1007B000792D646F776E206576656E740D0A002959
:1007C0000A002575002F002575005D2800256400AE
:1007D0002000256400200025640020002564007CA2
:1007E0000025303258006D6F7573656B6579205B3D
:1007F00062746E7C782079207620685D287265703E
:100800002F61636C293A205B005B435D005B445DB4
:10081000005B535D005B575D005B525D0009027435
:1008200000040100A0FA090400000103010100090D
:10083000211101000122440007058103080001097C
:10084000040100020300000009211101000122221D
:1008500000070582032000010705030320000109AA
:100860000402000103000000092111010001227BA4
:1008700000070584032000010904030001030000B0
:100880000009211101000122150007058503200040
:10089000011201000200000008736A01000001015A
:1008A0000200010E036500720067006F003400341F
:1008B00000000028034A0061006E0020004500721D
:1008C0000069006B0020005300630068006F007037
:1008D000006D0065006900650072000000040309F6
:1008E0000464796E616D6963206D6163726F3A2093
:1008F000736C6F74202564206C656E6774683A2091
:1009000025642F25640A0064796E616D6963206D2A
:100910006163726F3A2069676E6F72696E672061FA
:10092000206C656164696E67206B65792D75702038
:100930006576656E740D0A0000000000000000007E
:1009400000000000000000000000000000000000A7
:100950000000000000000000000000007E0F00D436
:10096000FFFFFFC70000007800000000000000004B
:100970002A2B2800000000000000000000000000FA
:1009800000000029000000002C1E34202122243405
:100990002627252E362D3738271E1F2021222324D7
:1009A00025263333362E37381F0405060708090A73
:1009B0000B0C0D0E0F101112131415161718191A0F
:1009C0001B1C1D2F3130232D350405060708090A8D
:1009D0000B0C0D0E0F101112131415161718191AEF
:1009E0001B1C1D2F3130354C11241FBECFEFDAE018
:1009F000DEBFCDBF04B603FE18C08091CA08909137
:100A0000CB08A091CC08B091CD088730904BA7407F
:100A1000B04B59F41092CA081092CB081092CC082F
:100A20001092CD08E0E0F8E3099512E0A0E0B1E013
:100A3000E2EFF6E602C005900D92A43CB107D9F7AB
:100A400028E0A4ECB2E001C01D92AA3CB207E1F795
:100A50000E942A2B0C94E5320C940000FF93EF9334
:100A6000E091C402F091C502309709F00995EF9129
:100A7000FF910895FC018591803011F0EFDFFBCFED
:100A80000895FF27E0E230E247FF0CC0419597FF51
:100A900009C0EDE26095709580959095611D711D7E
:100AA000811D911D27FF02C0219530E350E2AA2746
:100AB000660F771F881F991FAA1FA41710F0A41B89
:100AC00063955A95A9F7AA3008F0A95FA05DAF9386
:100AD000F395611571058105910541F7ED3211F42A
:100AE000EF93F395F21718F43F93F395FBCF8F91A3
:100AF000B5DFFA95E1F70895E991F9918591803094
:100B000021F0853219F0AADFF9CF089520E0E894AA
:100B100055915532C1F3503311F4689455915A33BD
:100B200048F4505390F3220F022E220F220F200D73
:100B3000250FF4CF0EF4219589919991533619F32D
:100B4000533729F1533559F1BC0188279927E89487
:100B50005C3621F48991999168945591543639F411
:100B600046EF7EF077FF0DC08FEF9FEF0AC055373D
:100B70004AE039F0583540E121F0523642E009F0C0
:100B80000895FF93EF937DDFEF91FF91B7CFFF9330
:100B9000EF93FC0181918030B9F360DFFBCFFF93CD
:100BA000EF9368DFF1CFDF93CF93CDB7DEB7259614
:100BB000A3DFCF91DF910895482F2091C308909132
:100BC0007A0859E0291302C080E0089530E0529F6E
:100BD000F001539FF00D1124E558F74F8181681300
:100BE00006C08081481303C085818111EECF2F5F3D
:100BF0003F4F2770E7CFFC01AC014C5F5F4F8FEF99
:100C000091E32191822728E030E087FF09C0880F17
:100C1000892721503109C9F7E417F50791F708959D
:100C2000880FF7CFE8EDF0E080818E7F808310920F
:100C3000E2001092DA001092E100A0EEB0E08C9198
:100C400081608C9380818F77808319BCA7EDB0E0A1
:100C50008C918E7F8C9380818F7E8083109263082D
:100C600008952091E4003091E50095E6A9012091D6
:100C7000EC00822F817020FF06C08091E80080FF89
:100C800006C080E008952091E80022FD1AC08091FE
:100C90007008882389F0853089F08091EB0085FD0C
:100CA0000FC02091E4003091E50042175307F9F29C
:100CB0009150E1F684E0089582E0089583E008957C
:100CC00081E008958091720887FF13C08091E80049
:100CD00082FF06C08091E8008B778093E80004C013
:100CE000809170088111F2CF089580917008882357
:100CF000D9F38091E80080FFF8CF8091E8008E77EB
:100D0000ECCF982F9093E900242F762F50E089178D
:100D100031F07091EC002091ED005091F00021FD38
:100D200007C09F5F973071F78093E90081E00895D5
:100D30003091EB003E7F3093EB003091ED003D7F32
:100D40003093ED003091EB0031603093EB00709305
:100D5000EC002093ED005093F0002091EE0027FD71
:100D6000E0CF80E00895B0E0A0E0E9EBF6E00C947D
:100D7000F131C8EDD0E088818F7E8883E7EDF0E027
:100D800080818160808384E082BF81E080936308FA
:100D900088818E7F888302EE10E0F8011082109225
:100DA000DA0081EEC82ED12CF601108288818F776F
:100DB000888388818068888388818F7D888319BC37
:100DC000109270081092710810926F0810926E08BD
:100DD00090EEE92EF12CF70180818B7F8083888152
:100DE0008160888342E060E080E00E948106F60135
:100DF00080818E7F8083F801808181608083808103
:100E000088608083F70180818E7F80838881806104
:100E10008883CDB7DEB7E8E00C940D32FC018091F9
:100E200078089091790886179707A0F061157105E9
:100E300029F49091E8009E779093E80090E0611586
:100E4000710551F4911108C08091E80082FF34C00F
:100E500080E00895BC01F2CF809170088823C1F131
:100E60008530C1F18091E80083FD30C08091E800B9
:100E700082FDEACF8091E80080FFE1CF8091F3000E
:100E80002091F200382F6115710519F028303105D5
:100E900058F091E02830310509F090E02091E80009
:100EA0002E772093E800CBCF81918093F1006150A1
:100EB00071092F5F3F4FE7CF80917008882341F081
:100EC000853041F08091E80083FFBECF81E0089536
:100ED00082E0089583E0089508958091650808955B
:100EE0009C014FB7F89480915C0890915D08A091A7
:100EF0005E08B0915F084FBF821B930B08952FB718
:100F0000F89460915C0870915D0880915E08909102
:100F10005F082FBF08952FB7F89480915C089091D7
:100F20005D08A0915E08B0915F082FBF08959C01F5
:100F3000FC0132969FEF80E04191461751F09F3FB0
:100F400019F4411101C0982F8F5F8630A9F79F3F98
:100F500009F40895290F311D97FD3A95F90162832F
:100F60000895A3E0B0E0E7EBF7E00C94F7312091AF
:100F7000590830915A0828173907A1F090935A0858
:100F800080935908E0915708F0915808309751F034
:100F900024E029839B838A830084F185E02DCE01A0
:100FA000019609952396E2E00C941332A3E0B0E099
:100FB000ECEDF7E00C94F73120915508309156088C
:100FC00028173907A1F09093560880935508E091AF
:100FD0005708F0915808309751F023E029839B83FC
:100FE0008A830084F185E02DCE0101960995239630
:100FF000E2E00C94133280915308882359F0E09179
:101000005708F0915808309729F00190F081E02DB1
:101010000995089580E008954115510511F0FA01F0
:101020000995089587FD27C067FF14C0062E000CA0
:10103000770B6F5F7F4F93EF969F9001979F300DD7
:10104000112437FF02C021503F4F632F811111C07F
:10105000862F089581110BC06623D1F323EF62031D
:10106000B0011124672F87FFF3CF6150F1CF6832B1
:101070007CF76F5FEDCF16168CF3693D4CF3F5CF1F
:1010800090914308892F817090FD19C091FD16C081
:1010900092FD12C080914208882381F08F3F61F059
:1010A00023E0829FC00111246FEF70E00E942A327A
:1010B000862F672B19F0089583E0089581E0089545
:1010C0008823C9F0409141088091400890913D08E3
:1010D0009230B0F491E090933D08880F990B8138DD
:1010E0002FEF920714F481E89FEF8038910514F0F8
:1010F0008FE790E0089540913F0880913E08E6CF49
:10110000842F042E000C990B982F80E068E270E089
:101110000E942A329B01DB010E944B32BB2797FDC4
:10112000BA95A92F982F872FFC0147FF0EC0EE27F5
:10113000FF27E81BF90B21E030E0411102C030E04D
:1011400020E031952195310904C021E030E04423AD
:1011500091F348E24E9FC0014F9F900D1124892FBB
:10116000990F990B820F931FBACFDC016091380859
:1011700080913908962F891301C00895292F30E0F6
:10118000F901EE0FFF1FE05DF74F408151814A17D3
:101190005B07A1F487E08A9FA0018B9F500D11246B
:1011A0004F565E4F81E0FA0184839613E6CF2F5F9E
:1011B0003F4F237033272093380808952F5F3F4F08
:1011C000922F9370D8CF1092C5071092C407E1E90F
:1011D000F1E085E592E02581211102C0148216829A
:1011E00037968E179F07B9F70895F894E82FE29580
:1011F000EF70F0E031A1282F2F7081E090E001C066
:10120000880F2A95EAF7982F9095932391A392A19E
:10121000892B82A3789408950F931F93809153088C
:10122000882329F00E947F071F910F9108950E9443
:101230007F0700919E0710919F072091A007309192
:10124000A107600F711F821F931FEECF9091AC0713
:1012500092FF10C041E0282F2471243009F040E0B3
:1012600031E0282F2871283009F030E0431711F0C1
:101270002CE0822793FF10C041E0282F24712431F5
:1012800009F040E031E0282F2871283109F030E0E2
:10129000431711F02CE082273091AD0730FF10C0CA
:1012A00051E0282F2171213009F050E041E0282F32
:1012B0002871283009F040E0541711F029E0822706
:1012C00031FF10C041E0282F2171213109F040E0A9
:1012D00031E0282F2871283109F030E0431711F050
:1012E00029E0822794FD877E089582389105B9F11F
:1012F000B0F48133910509F47DC048F48932910539
:1013000009F46DC08A32910509F47BC008958533D4
:10131000910509F45FC08933910509F10895833E71
:101320009105D9F138F4803E910529F1823E91056D
:1013300079F10895863E9105D9F1873E910509F42A
:101340003EC0843E910541F52091AD0721FF24C0A8
:101350008091AC0784FD19C087EE90E0089520913C
:10136000AC07237009F05AC02091AD0723FF14C0C9
:1013700089E290E008952091AC0720FD38C03091BB
:10138000AD0730FF09C024FF43C090E080E008951E
:101390002091AC0722FDF7CF08952091AC0722FDE4
:1013A0003AC03091AD0730FD39C024FFF5CFEDCF05
:1013B0002091AC0723FFF0CF24FDE7CFCDCF2091C4
:1013C000AC0723FD2EC03091AD0731FFEECF84EE88
:1013D00090E008952091AC0725FFDECFC9CF209182
:1013E000AC0725FD21C02091AD0723FFD5CF89E3B0
:1013F00090E0D2CF2091AC0726FFCECF8AE290E0DA
:1014000008952091AC0726FFC7CF81E390E00895AF
:1014100083EE90E0089582EE90E0089580EE90E0F3
:10142000089586EE90E0089585E390E008951F9377
:10143000CF93DF930E947509EC01C11580E5D807B1
:10144000F0F5C11580E4D80708F09CC0C03ED10576
:1014500020F5CD3CD10508F082C0C83AD10578F41A
:10146000C53AD10508F073C0C130D10519F12097F4
:1014700009F1C430D105F0F4D0E0C0E01BC0C33C9A
:10148000D105D0F7C85AD0E0CC0FDD1FC858DD4FCA
:101490000990D881C02DD4640DC0C11580E2D80751
:1014A00008F0D1C0C11581E0D80708F05AC0C83E85
:1014B000D10510F7CE01DF91CF911F910895C0366D
:1014C00082E5D80718F5C03482E5D80708F06BC06C
:1014D000C03282E5D80708F05FC0C11582E5D807A1
:1014E00008F497C02C2F2695269580E2289F90011E
:1014F00011248C2F8370C1E0D0E002C0CC0FDD1F1F
:101500008A95E2F7C22BD32BDD68D4CFC03A82E5AF
:10151000D80760F4C03882E5D80708F459C0CF7105
:10152000D0E0DC2FCC27C46FD06AC4CFC03C82E5AA
:10153000D80708F462C0C03E82E5D80708F09CCF07
:10154000DC2FCC27CC27DF71C06FD06AB3CFC55A50
:10155000D0E0CB58DD4FC881D0E0D064ABCFD065B0
:10156000A9CF8D2F0E942609182FCE0199270E94FE
:101570007509C12FD0E0DC2FCC27CC27DF71C82B19
:10158000D92B98CFCE0199270E947509CC27DF70FF
:10159000C82BD92BD06A8ECFCF71D0E0DC2FCC27CF
:1015A000C16FD06A87CF2C2F26952695277080E2B1
:1015B000289F900111248C2F8370C1E0D0E002C0DD
:1015C000CC0FDD1F8A95E2F7C22BD32BDC6872CFDC
:1015D0002C2F26952695277080E2289F90011124B4
:1015E0008C2F8370C1E0D0E002C0CC0FDD1F8A9544
:1015F000E2F7C22BD32BDA685DCF8C2F8F710E945C
:101600002609C82FD0E0DC2FCC27CC27DF71D06291
:1016100051CF8C2F8F710E94260955E0D695C79522
:101620005A95E1F7CF70D0E0DC2FCC27282F30E09F
:1016300084FF05C044E0220F331F4A95E1F7C22B17
:10164000D32BD06937CF8D2F8F710E942609182F89
:10165000CE0199270E947509C12FD0E0DC2FCC273D
:10166000CC27DF71C82BD92BD2CF80917A07882362
:1016700031F010927A071092790710927807089546
:101680008091C30781110FC0109250080E94350B42
:101690000E948B0788579C4E9093C2078093C10786
:1016A00081E08093C307089590917A07292F28231A
:1016B00061F08095892380937A07882339F00E940E
:1016C0008B079093790780937807089590E080E0E6
:1016D000F8CF809590914F08982390934F080895E4
:1016E00080959091500898239093500808951092F7
:1016F0006F0710926E0710926D07089590916C0716
:10170000292F282321F08095892380936C07089541
:101710008091C30890917A08981301C008958F5F53
:101720008770FACF292F983078F5863068F590E0E9
:1017300036E0239F800D911D1124682F677023E0F0
:10174000969587952A95E1F7FC01EE0FFF1FE80FAC
:10175000F91FEF5AF84F50E040E080E0219130E06F
:10176000062E02C0369527950A94E2F7217033279A
:10177000042E01C0220F0A94EAF7822B4F5F5F4FBD
:101780004330510559F7089580E00895292F983086
:1017900098F5863088F590E036E0239F800D911D06
:1017A0001124282F277041E001C0440F2A95EAF741
:1017B00023E0969587952A95E1F7FC01EE0FFF1F30
:1017C000E80FF91FEF5AF84F30E020E070E0519138
:1017D000DF011197CB01022E02C0969587950A94DE
:1017E000E2F7817081958527842385278C932F5F6D
:1017F0003F4F2330310559F7089580937B070895B3
:10180000829590E09C01220F331F220F331F2C7C06
:1018100095958795959587958373282B30E0C90119
:10182000880F991F8A7A359527952575822B0895FB
:101830009C013A9521153F4150F5FC01EE27F170CE
:10184000BC0166277270AC01442754709C012227AA
:10185000387094FF0EC080E1EF2B09F480E0672B15
:1018600009F08062452B09F08064232B89F08068A1
:10187000089581E0EF2B09F480E0672B09F0826086
:10188000452B09F08460232B19F08860089580E0CF
:1018900008959FB7F894109261089FBF90917008C7
:1018A000943009F048C02091E9002F703091EC008D
:1018B000932F917030FD90E8922B25E02093E90062
:1018C0002091EB0020FF34C02091EE0027FF30C0B4
:1018D00020916008222321F02091E80025FF28C0F4
:1018E0001092600826E03091E80035FF14C0809324
:1018F000F1008091E80085FD27C08091E80080FF1D
:10190000FCCF8091E8008E778093E8009F709093E1
:10191000E90080E0089530917008343049F4309146
:10192000EB0035FD05C0215041F481E08093600853
:101930009F709093E9008FEF0895EFE9FFE03197F2
:10194000F1F700C00000CFCF8FB7F89421E02093CB
:1019500061088FBFDBCF0F931F93CF93DF938B0172
:10196000EA0190917008943061F58093E9008FEF5F
:101970009091E800815095FD06C095ED9A95F1F79C
:1019800000008111F5CF8091E80085FF1AC00E9408
:101990003106811111C08091E80085FD06C080915B
:1019A000E8008E778093E800F2CFF80181918F01F3
:1019B0008093F100219779F78091E8008E778093EA
:1019C000E800DF91CF911F910F91089543E050E01F
:1019D000BC0184E00E94AB0C089546E050E0BC01DD
:1019E00084E00E94AB0C0895CF93DF93EC0148E0B4
:1019F00050E0BC0181E00E94AB0C88E0FE01A6E64D
:101A0000B8E001900D928A95E1F7DF91CF910895AA
:101A100081E08093E00080E28093D8001092C900BA
:101A20008FE19EE40197F1F700C0000087E090EBA2
:101A3000DC018093CA089093CB08A093CC08B093A4
:101A4000CD0888E19CE00FB6F894A89580936000DB
:101A50000FBE90936000FFCF0F931F93CF93DF9340
:101A6000EC01F901A091C408B091C5089091C60895
:101A700091708581811112C0CA17DB0779F499230F
:101A800041F087E099E09F938F930E94D3050F90D8
:101A90000F90DF91CF911F910F91089589E0480237
:101AA000800111249D01201B310B6217730779F00F
:101AB00089E001900D928A95E1F72091C408309158
:101AC000C508200F311F3093C5082093C4089923FF
:101AD00001F3E42F042E000CFF0B6C1B7D0BA9E31C
:101AE000BEE86A9FC0016B9F900D7A9F900D1124F4
:101AF0008E9F90018F9F300D9E9F300D11242F5F80
:101B00003F4F8091C4089091C5088C1B9D0B8A9F04
:101B1000E0018B9FD00D9A9FD00D1124CE9FB00174
:101B2000CF9F700DDE9F700D112482E0413009F4CB
:101B300081E03F932F937F936F931F928F9381EE5A
:101B400098E09F938F930E94D3058DB79EB7089618
:101B50000FB6F8949EBF0FBE8DBF9BCF8091C60875
:101B600083FF96C086EE97E09F938F930E94D305E4
:101B700080914A081F928F9381EE97E09F938F93F5
:101B80000E94D3058FED97E09F938F930E94D3051A
:101B900080914B08282F082E000C330B3F938F9316
:101BA0008CED97E09F938F930E94D3058AED97E089
:101BB0009F938F930E94D30580914C08282F082E65
:101BC000000C330B3F938F9387ED97E09F938F9398
:101BD0000E94D30585ED97E09F938F930E94D305D4
:101BE00080914D08282F082E000C330B3F938F93C4
:101BF00082ED97E09F938F930E94D30580ED97E04D
:101C00009F938F930E94D30580914E08282F082E12
:101C1000000C330B3F938F938DEC97E09F938F9342
:101C20000E94D3058AEC97E09F938F930E94D3057F
:101C30008DB79EB780960FB6F8949EBF0FBE8DBF2E
:101C4000809144081F928F9387EC97E09F938F9326
:101C50000E94D30585EC97E09F938F930E94D30554
:101C6000809143081F928F9382EC97E09F938F930C
:101C70000E94D3058FEB97E09F938F930E94D3052B
:101C80008DB79EB70C960FB6F8949EBF0FBE8DBF52
:101C90000E948B079C0190914B0880914C08982BD7
:101CA00021F0309348082093470890914D08809187
:101CB0004E08982B21F03093460820934508E09178
:101CC0005708F0915808309749F082E0809349080E
:101CD0000680F781E02D89E498E009950895662350
:101CE00009F46DC093E3980F923098F48E3C79F02C
:101CF0008FEF8093400880913D08823028F481E086
:101D00000E94600880934C080E94AE0D089581E007
:101D1000F0CF91E3980F923088F4803D69F08FEF17
:101D200080933E0880913D08823070F780E00E94E9
:101D3000600880934B08E8CF81E0F2CF893D29F419
:101D40000E94400880934D08DFCF8A3D21F40E9415
:101D500040088195F7CF8B3D31F40E944008819572
:101D600080934E08D1CF8C3D19F40E944008F8CFE3
:101D70009FE2980F983070F4815D990B21E030E07C
:101D800001C0220F8A95EAF780914A08822B80933E
:101D90004A08BACF8D3D31F4809143088160809329
:101DA0004308B2CF8E3D21F4809143088260F7CF83
:101DB0008F3D09F0A9CF809143088460F0CF8D3C1E
:101DC000C1F480914008181614F0109240088091D8
:101DD0004B0890914C08892B11F410924408809183
:101DE0004D0890914E08892B09F08ECF1092420831
:101DF0008BCF8E3C29F48091400887FFE6CFE7CF58
:101E00008F3C39F480913E0818160CF310923E086E
:101E1000DECF803D29F480913E0887FFF7CFD7CFF2
:101E200090914D08893D29F419168CF610924D08B1
:101E3000CECF8A3D19F497FFCACFF8CF90914E08C4
:101E40008B3D29F497FFC3CF10924E08C0CF8C3D35
:101E500019F41916CCF3BBCF9FE2980F983090F489
:101E6000815D990B21E030E0A90102C0440F551FAC
:101E70008A95E2F7CA01809590914A088923809358
:101E80004A08A5CF8D3D31F4809143088E7F809321
:101E900043089DCF8E3D21F4809143088D7FF7CF7D
:101EA0008F3D09F094CF809143088B7FF0CFB0E055
:101EB000A0E0EDE5FFE00C94EC318C01EB01742E19
:101EC000690167EF4602500111248BE8E82E87E094
:101ED000F82E8091C6088170C017D10739F04E01E5
:101EE0008A0C9B1CF4019581911130C0882331F13B
:101EF0009E01201B310B89E39EE8289FA001299FAA
:101F0000500D389F500D1124672D64039001659F7B
:101F1000300D112481E0781619F182E03F932F9360
:101F20001F928F9381E697E09F938F930E94D30532
:101F30000F900F900F900F900F900F90F601D1839C
:101F4000C083CDB7DEB7EDE00C940832882331F0C2
:101F5000FF92EF920E94D3050F900F90E401B9CF4A
:101F600081E0DCCFB0E0A0E0E8EBFFE00C94EC31E6
:101F70007C015B01842E752E69018091880701E048
:101F800010E08A3010F40AE010E0C1E0D0E0B501C2
:101F9000C701F6010995982E811114C021960C17DE
:101FA0001D07B4F48091C60880FF0CC07F928F9209
:101FB00086EA94E09F938F930E94D3050F900F9031
:101FC0000F900F90892DCDB7DEB7EDE00C9408325D
:101FD000CC9F9001CD9F300D300D112490E080E01A
:101FE00045E34A95F1F70000019628173907C1F734
:101FF000CECFCF93C82F6FEF811164E285E290E0DE
:102000000E949B326FEFC11167E086E290E00E9470
:102010009B326FEFC11163E087E290E00E949B3238
:10202000CF910895CF93DF93C9ECD2E060E0CE0169
:102030000E949B322196C11584E0D807B9F7DF9141
:10204000CF9108951F93CF93DF93122F8730E0F441
:102050006830D0F44630C0F4C42FD0E0CC0FDD1F80
:102060009CE0699FC00DD11D112490E6899FC00D91
:10207000D11D1124632FCE0189960E949B32612FBE
:10208000CE018A960E949B32DF91CF911F910895D5
:10209000B0E0A0E0EEE4F0E10C94F13190E0E92E44
:1020A00095E0F92ED12C8701C12C1CC04C2F86E065
:1020B00021E030E0D81641F0FE01EE0FFF1FE00FE7
:1020C000F11F859194919C016C2D8D2D0E94221001
:1020D0002196C630D10551F7C394045F1F4F88E0A5
:1020E000C81619F0D0E0C0E0E1CFD39480E6E80E46
:1020F000F11C87E0D812D7CFCDB7DEB7E8E00C945B
:102100000D3280E00E94F90F60E088E290E00E94CA
:102110009B320E9448100E94121081E00E94F90F29
:10212000089585E290E00E947D32843289F486E24F
:1021300090E00E947D32873059F487E290E00E945F
:102140007D3291E0833009F090E0892F817008950D
:1021500080E0FCCF0F931F93CF93DF93873030F550
:10216000683020F5463010F5C42FD0E0CC0FDD1FCD
:102170002CE0629FC00DD11D112430E6839FC00D5D
:10218000D11D1124CE0189960E947D32082F10E0C6
:10219000102F0027CE018A960E947D329801282BAD
:1021A000C901DF91CF911F910F91089590E080E0D8
:1021B000F8CF462F783040F4663030F4873020F482
:1021C000672F0E94AA10089590E080E00895CF92B2
:1021D000DF92FF920F931F93CF93DF936C010091D7
:1021E0003C0880917B07082BC6E0D0E010E0FC2E75
:1021F000C8010C2E02C0959587950A94E2F780FDE0
:102200000CC02197A0F7F12C8F2DDF91CF911F915A
:102210000F91FF90DF90CF900895B6018C2F0E9410
:10222000D9100E94170A019761F3EECFCF93DF9385
:10223000EC010E94E710BE010E94D9100E94170A0B
:10224000DF91CF910895FC0184818823F9F0878183
:102250009085009791F00E94170A92959F70963092
:10226000B9F080F4925F9F70923080F4803F19F053
:1022700058F4883E58F481E00895808191810E944D
:102280001611EBCF9A5FEFCF843FA9F380E008955A
:10229000883E88F3813FD1F7EECFA6E0B0E0E3E5DA
:1022A000F1E10C94F6319C01FC0187819085009747
:1022B000E1F486E0DE01119601900D928A95E1F736
:1022C000F901258189819A81222399F0662389F079
:1022D0000E94E710182F682F89819A810E94C60BEF
:1022E00069817A81812F0E94D9102696E3E00C94AF
:1022F00012320E94920B182FF3CF90E080E00E94E0
:102300008532863E9E4F19F40E949110089580E018
:102310000895A4E0B0E0EFE8F1E10C94F6314091CB
:102320009A0750919B0760919C0770919D072FB76A
:10233000F89480915C0890915D08A0915E08B0913E
:102340005F082FBF841B950BA60BB70B11E08436DB
:102350009105A105B10570F10E940C096E5F7F4FD8
:102360008F4F9F4F69837A838B839C838091250154
:10237000909126018F56984F4091240150E04530AE
:10238000510510F044E050E0BE016F5F7F4F0E94A6
:10239000DC3282E090E00E947131182F882351F0E6
:1023A0000E947F0760939A0770939B0780939C0716
:1023B00090939D07812F2496E3E00C941232EF92C4
:1023C000FF921F93CF93DF9300D000D00F92CDB731
:1023D000DEB77B0190E080E00E947131182F8823E6
:1023E00009F487C04091170150E04115510511F0E3
:1023F00041E050E060911801709119016F56784FDB
:10240000CE0105960E94DC3240918D0750918E07D7
:1024100060918F07709190072FB7F89480915C08B6
:1024200090915D08A0915E08B0915F082FBF841B5A
:10243000950BA60BB70B84369105A105B10540F4A9
:1024400082E997E00E94FB059D81891709F451C03C
:1024500081E090E00E94713181111AC010E08091FA
:10246000890790918A07A0918B07B0918C07F7019B
:1024700080839183A283B383812F0F900F900F905D
:102480000F900F90DF91CF911F91FF90EF900895E3
:1024900040911F0150E04530510510F044E050E0FC
:1024A00060912001709121016F56784FCE01019605
:1024B0000E94DC3282E997E00E94FB059D8189132E
:1024C000CDCF0E947F0760938D0770938E07809316
:1024D0008F079093900789819A81AB81BC8180930B
:1024E000890790938A07A0938B07B0938C0711E01C
:1024F000B6CF8091920790919307A0919407B091E5
:10250000950789839A83AB83BC831111E4CFA7CF4E
:10251000ACE0B0E0EEE8F2E10C94EC318E010F5F3C
:102520001F4F88E0D8011D928A95E9F782E3C82EF3
:1025300081E0D82EF12CE12CAA24A394B12C22E323
:10254000822E21E0922EF60181916F018F3F09F4D6
:1025500042C0F894E82FE295EF70F0E021A18F706F
:10256000A50102C0440F551F8A95E2F7CA01922FB8
:10257000982B91A392A18095892382A3789400C07F
:10258000ECE2F1E0712C31E021912F3F09F496C08B
:10259000A22FA295AF70B0E090968C9190E02F7032
:1025A00002C0959587952A95E2F780FD87C0832F15
:1025B000782A330F8E169F0639F7F60131978081FE
:1025C0008F3F11F00E94F50850EA5A95F1F7F80193
:1025D000EE0DFF1D70828FEFE81AF80AA4E0EA16EC
:1025E000F10409F0B0CF48E050E0B80182EA97E08A
:1025F0000E94CF32009741F028E0F801A2EAB7E04C
:1026000001900D922A95E1F70091AB0710E0075475
:10261000184F892B09F454C081E0809380070E94F1
:102620008B0790937F0780937E07E12CF0905308EF
:10263000FF2009F4B8C019861A861B861C86D09024
:102640008807B9E0BD1508F45FC02FED31E14DE515
:1026500052E0BE01675F7F4FC8010E94B20F88231E
:1026600009F477C029E831E14AE652E0BE01675F2C
:102670007F4FC8010E94B20F882309F46AC0F9E0B5
:10268000FD1508F483C0109288078091AA0790E096
:1026900044E050E0BE01675F7F4F8754984F0E942F
:1026A000CF3221E020938707892B09F044C0F12C19
:1026B0008F2D8E292C96EDE00C94083280E078CF97
:1026C000E0908007EE2009F4B0CF80917E079091D2
:1026D0007F070E947007059708F4A7CF44E050E0F9
:1026E00062EA77E0C8010E94CF32892B59F084E07A
:1026F000E2EAF7E0D80101900D928A95E1F7109295
:10270000800794CFE12CFBCF8091810790918207C5
:102710000E947007843F914008F097CF809187070F
:10272000882329F2FE01399684E0DF011D928A9503
:10273000E9F710928707E091AA07F0E0E754F84F15
:1027400089859A85AB85BC8580839183A283B38379
:10275000AFCF809188078F3F31F08F5F80938807DC
:102760008A3008F492CF0E948B079093820780935F
:1027700081078091C60880FFD1CF80E794E09F93C6
:102780008F930E94D3050F900F90C8CF8091C608F9
:1027900080FF79CF8DE594E09F938F930E94D305BE
:1027A0000F900F9070CF84E0F801A2E9B7E001909C
:1027B0000D928A95E1F782E997E00E94FB058093EC
:1027C00091078090960790909707A0909807B090F7
:1027D00099078091830790918407A0918507B09114
:1027E000860788169906AA06BB0609F461CF80926F
:1027F000830790928407A0928507B09286070E9473
:102800007F07861A970AA80AB90A80929E079092B3
:102810009F07A092A007B092A1074ACF0F931F93E2
:10282000CF93DF93C091500880914F08C82B8091BF
:102830007A07882359F10E948B07209178073091FD
:102840007907821B930B843F914070F08091C608FA
:1028500080FF08C08AE294E09F938F930E94D30583
:102860000F900F900E94350B80917A07C82B20E0C3
:1028700088EC92E0FC013191CF0131112F5FF2E041
:102880008E3C9F07B9F721110E94350BC093C602F9
:1028900048E050E060E777E086EC92E00E94CF32BB
:1028A000892B09F44DC088E0E6ECF2E0A0E7B7E040
:1028B00001900D928A95E1F7E0915708F091580840
:1028C0003097F1F10280F381E02D86EC92E00995DA
:1028D0008091C60882FF34C080FF0EC08091C6027E
:1028E0001F928F9384E494E09F938F930E94D3056B
:1028F0000F900F900F900F90C6ECD2E00EE314E013
:102900008091C60880FF0BC08A811F928F931F930E
:102910000F930E94D3050F900F900F900F90219668
:1029200022E0CC3CD20761F78091C60880FF08C046
:102930008CE394E09F938F930E94D3050F900F90A8
:10294000DF91CF911F910F910895CF93109250086E
:10295000C6E0E8ECF2E0DF018C2F1D928A95E9F7E2
:1029600090E080E00E94D60790E080E00E94B107EE
:1029700010924F080E940E14E9E4F8E0DF011D9266
:10298000CA95E9F710924408109242081092430841
:1029900010923D0810923F081092410810923E0894
:1029A000109240080E94AE0DCF910895AAE2B0E0C7
:1029B000ECEDF4E10C94F63182E798E02091F1001F
:1029C000DC012D93CD01B8E08A379B07B9F78091E0
:1029D0007308833009F472C0B8F4813009F449C037
:1029E000823009F4B3C08091E80083FF91C28091E6
:1029F0007208909173089A3008F08AC2E92FF0E0CB
:102A0000E951FD4C0C943E328A3009F48EC08B3073
:102A100009F471C0893039F780917208813219F751
:102A20008091760890917708009711F00297D9F677
:102A30008091E800877F8093E8008091E80082FF22
:102A400038C09091F3008091F200029731F48091A8
:102A5000F100813011F0863021F48091F1008093F3
:102A600065088091E8008B778093E8000E946206F9
:102A7000BACF80917208813A09F0B5CF8091E80011
:102A8000877F8093E8008091760890917708892B62
:102A900061F468E086E698E070E00E940E0780919D
:102AA000E8008B778093E8009ECF60E090E080E0C4
:102AB000F3CF809170088111C0CF95CF80917208BB
:102AC000813A09F090CF8091760890917708892B10
:102AD00009F089CF8091E800877F8093E80080919A
:102AE000E80080FFFCCF809156028093F100809136
:102AF000E8008E77B9CF80917208813209F073CFE8
:102B00008091760890917708892B09F06CCF80919D
:102B1000E800877F8093E8000E9462068091740835
:102B2000809356020E94A5145ECF80917208813274
:102B300009F059CF8091E800877F8093E8000E94D8
:102B4000620680917508809364084DCF8091720869
:102B5000813A09F048CF8091E800877F8093E800B0
:102B60008091E80080FFFCCF80916408BECF803860
:102B700099F0823809F0CCC1809176088F70873047
:102B800008F0C6C18093E9008091EB0085FB88279F
:102B900080F91092E90006C080916E0890916F084C
:102BA000911182609091E800977F9093E800809364
:102BB000F1001092F1008091E8008E77A5C1882382
:102BC00009F493C1823009F0A3C180917408811186
:102BD00096C1809176088F702FEF280F263008F06D
:102BE00097C18093E9002091EB0020FF88C19330CA
:102BF00031F48091EB0080628093EB0080C1909172
:102C0000EB0090619093EB0021E030E001C0220FD7
:102C10008A95EAF72093EA001092EA008091EB008F
:102C20008860EACF811174C1109174081F77809178
:102C3000E3008078812B8093E3008091E800877F18
:102C40008093E8000E9462068091E80080FFFCCF3C
:102C50008091E30080688093E30082E0111183E0BB
:102C60008093700855C18058823008F051C120917E
:102C70007408309175082C3DE3E03E07A1F583E030
:102C80008A838AE289834FB7F894DE01139620E0A5
:102C90003EE051E2E32FF0E050935700E49120FF33
:102CA00003C0E295EF703F5FEF708E2F90E0EA3047
:102CB000C0F0C7968D939D932F5F243159F74FBF76
:102CC0008091E800877F8093E8006AE270E0CE019F
:102CD00001960E940E078091E8008B778093E800B0
:102CE00017C1C096E7CF8091760890917708432F5F
:102CF00055274330510509F44AC078F54130510554
:102D000009F47AC084E790E0EDE1F8E04230510543
:102D100009F0FEC02091E800277F2093E800209171
:102D20007808309179088217930708F49C0140E0F5
:102D30002115310509F065C0411163C08091E8009B
:102D400082FDC9CF80917008882329F2853019F25D
:102D50008091E80083FFF2CFBECF4132510509F4E4
:102D60003CC04232510509F0D3C08430910508F0CF
:102D7000CFC0FC01EE0FFF1FEC54FD4F0190F0811E
:102D8000E02D80559D4FDC018C9190E01AC03327D7
:102D900021303105D1F02115310561F022303105A6
:102DA00009F0B6C0E3EAF8E0E4918E2F90E0E3EAA0
:102DB000F8E007C0EDEDF8E0E4918E2F90E0EDED46
:102DC000F8E0009709F4A4C0A5CFE3EBF8E0E491A4
:102DD0008E2F90E0E3EBF8E0F4CF8430910508F01B
:102DE00097C0880F991FFC01E454FD4F0190F081BA
:102DF000E02D89E090E08ECF82E190E0E1E9F8E01B
:102E000089CF80917008882309F465CF853009F453
:102E100062CF8091E80083FD5ECF8091E80082FD63
:102E20008DCF8091E80080FF83CF9091F300809157
:102E3000F2002115310519F08830910550F041E07C
:102E4000089709F040E08091E8008E778093E800D1
:102E50006FCF44914093F100319621503109019692
:102E6000E8CF803809F054C08091E800877F8093D4
:102E7000E800809171088093F1009DCE811148C0D7
:102E800010917408123008F043C08091E800877FE9
:102E90008093E800109371080E946206112311F0DC
:102EA00084E005C08091E30087FDFACF81E0809344
:102EB000700842E061EC81E00E94810642E261EC30
:102EC00084E00E94810642E261EC82E00E94810679
:102ED00042E260EC83E00E94810642E261EC85E020
:102EE0000E9481068091700813C08091740881301F
:102EF00079F481E0933009F080E080936F081092BC
:102F0000E9008091E800877F8093E8000E946206D4
:102F10008091E80083FF0AC08091E800877F80935A
:102F2000E8008091EB0080628093EB00AA96E3E0DA
:102F30000C9412320E94A5142FEF84E39CE02150E0
:102F400080409040E1F700C0000088E19CE00FB6AF
:102F5000F894A895809360000FBE90936000FFCF17
:102F6000CF93DF93EC014A855B856E857F850E9458
:102F70000C088B810E94690B8C810E94700B0E944F
:102F80000E1486E0FE0111928A95E9F7DF91CF9148
:102F90000895CF93DF93EC018D8181FD17C082608E
:102FA0008D8380914F089B81892B80934F0880915E
:102FB00050089C81892B809350080E940E144885EC
:102FC00059856E857F85CE010E940C0810925208AB
:102FD000109251088D8180FD03C0CE010E94B01770
:102FE000DF91CF910895882321F00E94690B0E9400
:102FF0000E1408958091C307882329F082E20E946D
:10300000F3171092C3070895882339F090914F0861
:10301000982B90934F080E940E140895882321F056
:103020000E94700B0E940E140895882339F090912D
:103030005008982B909350080E940E1408958823EE
:10304000D1F19CEF980F913A78F4E8ECF2E091918D
:10305000891303C0DF0111971C9292E0EE3CF9073F
:10306000B1F70E940E14089590E2980F983050F432
:10307000877091E001C0990F8A95EAF7892F0E9425
:10308000700BEFCF9BE5980F933028F490E080E031
:103090000E94D607089598E5980F9B3128F490E098
:1030A00080E00E94B107089593E3980F933118F4DC
:1030B00060E00E946F0E0895CF93DF93EC010E94B1
:1030C0001F18CE010E94180C9E01205E3109283085
:1030D000310510F0CD2B29F40E940E18DF91CF910D
:1030E00008950E94F317FACFFC018281813031F4F8
:1030F000FB01808191810E945C1808958230E9F77C
:10310000FB0182819381F7CFCF93C82F8823B1F041
:103110008CEF8C0F813A00F5E8ECF2E08EEC92E057
:10312000DF012D91C21761F08A179B07D1F76C2F31
:1031300086EC92E00E9497070E940E14CF910895AA
:103140002191C21303C0DF0111971C928E179F07B4
:10315000B9F70E940E14EBCF80E28C0F883068F430
:10316000C77021E030E001C0220FCA95EAF78091D4
:103170005008822B80935008DFCFEBE5EC0FE33053
:1031800040F4F0E0EB58FD4F808190E00E94D607BC
:10319000D5CFE8E5EC0FEB3150F4F0E0EE0FFF1F78
:1031A000E858FD4F808191810E94B107C7CF83E32A
:1031B0008C0F833118F661E08C2F0E946F0EBECF0A
:1031C0001F93CF93DF93182FEB010E948418209751
:1031D00039F4812F0E941F18DF91CF911F9108951C
:1031E0008FE99FE00197F1F700C000002197EFCF32
:1031F00070E060E0893311F460E570E00E94E0184F
:103200000895B0E0A0E0E7E0F9E10C94F231E82F96
:10321000F0E0E859F64FD490282F2695269526956C
:1032200030E0F901E85AF64F0491877010E0082E5B
:1032300002C0159507950A94E2F701701127F9016C
:10324000E85BF64FE490F12C082E02C0F594E79469
:103250000A94E2F791E0E922FF24F901E85CF64FD5
:10326000C491D0E002C0D595C7958A95E2F7C170A8
:10327000DD270115110519F081EE0E948418E11473
:10328000F10419F086EE0E94841870E060E08D2D44
:103290000E94E018E114F10419F086EE0E941F1854
:1032A0000115110519F081EE0E941F18CD2B19F0A0
:1032B0008CE20E94F818CDB7DEB7E7E00C940E322E
:1032C000FF920F931F93CF93DF938C018AE0F82E28
:1032D000F8018491882309F44BC0813009F044C07F
:1032E000E8012196FE018491813049F42196FE0186
:1032F00084910E94F8188E010F5F1F4FE9CF823032
:1033000039F4E8012296FE0184910E948418F3CFDB
:10331000833039F4E8012296FE0184910E941F183F
:10332000EACF843041F7E8012296FE01249190E033
:1033300080E0FE0131962053330B2A30310548F0EE
:103340000197C8F2EFE9FFE03197F1F700C0000004
:10335000F7CFF89EA001F99E500D1124C901840FEA
:10336000951F2491EF01E5CF0E940119E801C3CF19
:10337000CDB7DEB7E5E00C941032CF93C82F91E0C3
:103380008111982F8091CE029170891751F091E0B0
:1033900089278093CE02882321F08AE492E00E945C
:1033A00060198C2FCF9108950E94BD1980933C081D
:1033B000089590913C0821E030E0F90101C0EE0F42
:1033C0008A95EAF7D90102C0AA0FBB1F6A95E2F7F6
:1033D000EA2B01C0220F4A95EAF7892F8E23E813C2
:1033E00005C0292B822F0E94D419089520952923E6
:1033F000F9CF21E030E001C0220F8A95EAF720954D
:1034000080913C0882230E94D419089590916F07FF
:103410008095892380936F07282F277069F4891777
:1034200059F09091AD0792FF07C0869586958695D5
:103430000E94F9190E94770B0895CF93C82F8091AD
:10344000AD0782FB992790F99C17F9F0C0FB82F930
:103450008093AD076091AC077091AD0784E090E078
:103460000E94B93282E00E94061A8091C60880FF4D
:103470000CC01F92CF9385E194E09F938F930E949D
:10348000D3050F900F900F900F90CF91089521E0EA
:1034900030E001C0220F8A95EAF780913C08822B28
:1034A0000E94D41908959091AD0792FF10C098E042
:1034B000899F90011124622B60936F070E94471A25
:1034C0000E948B0790936E0780936D0708950E946A
:1034D000471A08950F931F93CF93DF93C62FD42FCE
:1034E000022FFC0185818823A9F06093C9080E94FE
:1034F0008B079093C8088093C708C77081E001C00C
:10350000880FCA95EAF70E941518DF91CF911F9195
:103510000F9108958091C908681332C08091C7083F
:103520009091C8080E9470078C3D910548F510E203
:103530001D0FCD17B9F080E28C0F883040F4C770B2
:1035400081E001C0880FCA95EAF70E940E18183072
:1035500048F481E09D2F977001C0880F9A95EAF793
:103560000E941518802F0E94F818183070F6D77036
:1035700081E001C0880FDA95EAF70E940E18C5CFE6
:10358000C77081E001C0880FCA95EAF7F6CFCF93E4
:10359000DF93EC010E94180C9E01205E3109283057
:1035A000310510F0209741F40E9415188C2F0E94CD
:1035B0008418DF91CF9108950E940418F7CFFB0182
:1035C000808191810E94C71A0895CF93DF93EC0107
:1035D0008A81823041F4FB01828193810E94C71A63
:1035E0008D8182608D83DF91CF910895A8E0B0E056
:1035F000ECEFFAE10C94ED317C01DC0114968C9136
:10360000882309F4E2C061E0C7010E944D118C01DA
:10361000F7018581882319F1809151089091520812
:103620000097E9F008171907D1F0992774E0880F7F
:10363000991F7A95E1F7FC01EA5BFE4F2081246037
:1036400020838F5B9E4FDC010D931C930E94C91752
:1036500010924F0861E0C7010E944D118C018091CA
:103660004F078111D9C0F701858181110CC0043544
:10367000FCE71F0709F4ADC008F06BC003353CE759
:10368000130709F478C0D70115968C91882309F4A3
:10369000F8C6980137572038310508F0FDC60031CB
:1036A00008F083C08FEF93E00E947D3281117DC0CE
:1036B00069ECC62E62E0D62E0111F5C0FE013396EC
:1036C00086E0DF011D928A95E9F75AE0B52E860162
:1036D0000F5F1F4FC6010E947D3289831A828823A3
:1036E00009F463C0813009F015C14601B2E08B0EC8
:1036F000911CC8010E947D328A83882309F455C039
:103700009FEF980F933008F0DDC0E3E0CE0ED11CA0
:10371000C4010E947D328B83882309F446C01C8239
:103720008E010F5F1F4FD8018C91882381F2813069
:1037300009F02BC111969C91119712968C919130A2
:1037400009F0EAC00E5F1F4F0E94F8180F5F1F4F6D
:10375000EACF06358CE7180709F454C007359CE713
:10376000190709F090CF60911001709111014FEF8E
:1037700086E497E04EC08091C60880FF08C084E5CB
:1037800092E09F938F930E94D3050F900F900E9419
:10379000A51480E00E94D4198FEC92E09093C508A4
:1037A0008093C40881E080934F0780916F078770F2
:1037B00061F0D70115968C91882339F08091AD077F
:1037C00082FF03C082E00E94061A2896ECE00C9467
:1037D00009328091C60880FF08C084E592E09F937B
:1037E0008F930E94D3050F900F900E94A51480E044
:1037F0000E94D41986E497E09093C5088093C4088A
:1038000082E0D1CF609112017091130141E08FEC01
:1038100092E00E94C022C9CF980123553C47233033
:10382000310540F591E00535ACE71A0709F490E061
:10383000F7012581291709F4B8CF813029F08230AA
:1038400079F010924F07B1CF6091C4087091C5080C
:1038500022E131E041E08FEC92E00E94570FF1CF7E
:103860006091C4087091C50820E131E04FEF86E413
:1038700097E0F3CF813061F0823009F004CF60919E
:1038800012017091130197014FEF86E497E008C091
:103890006091100170911101970141E08FEC92E06D
:1038A0000E942C0DF0CEC114B4E0DB0609F47DCFEC
:1038B000C6010E947D32811101C00150EFEFCE1A86
:1038C000DE0AFACE6401843009F02ACF02E010E06B
:1038D0006401FFEFCF1ADF0AC4010E947D32E1E0EC
:1038E000F0E0EC0FFD1FE00FF11F8083882309F447
:1038F0005CCF8C3741F4E2E0F0E0EC0FFD1FE00F0D
:10390000F11F10820DCF0F5F1F4F460107301105C9
:10391000F9F64BCF680104CF923029F40E5F1F4FA8
:103920000E94841813CF933029F40E5F1F4F0E941A
:103930001F180CCF943019F00F5F1F4F07CF0E5F89
:103940001F4F30E020E0B8016F5F7F4FF8014181E9
:103950008053990B8A30910568F02115310509F4DF
:10396000F5CE8FE99FE00197F1F700C000002150EC
:103970003109F3CFB29EF001B39EF00D11249C01EA
:103980002E0F3F1F842F8B01DECF0E940119DECE48
:10399000882309F484C089EE93E00E9460197FC0F7
:1039A00084EE93E0FACF882309F479C08FED93E099
:1039B000F4CF882309F473C081EC93E0EECF882321
:1039C00009F46DC087EB93E0E8CF882309F467C062
:1039D0008CEA93E0E2CF882309F461C083EA93E0A4
:1039E000DCCF882309F45BC087E993E0D6CF882336
:1039F00009F455C080E993E0D0CF882309F44FC083
:103A000089E893E0CACF89E793E00E94601982E7D2
:103A100093E0C3CF882309F442C080E593E00E947D
:103A2000601986E493E0B9CF8823C9F18EE393E06F
:103A30000E9460198AE393E00E94601986E393E094
:103A40000E94601982E393E0A8CF882341F182E2CB
:103A500093E0A3CF882319F182E193E09ECF8823DE
:103A6000F1F089E093E099CF8823C9F08DEF92E0DF
:103A700094CF882319F081EF92E08FCF8AEE92E005
:103A80008CCF882361F080EE92E00E9460198AED6D
:103A900092E09F938F930E94D3050F900F90D09048
:103AA0007A0780915008D82A8091C30781116DC090
:103AB000A2E2DA1204C00E94400B1092C908C801A9
:103AC00097558F3F910509F008F4E8C0F801E851D7
:103AD000FC47E730F10508F01DC1EF50FD4C0C9498
:103AE0003E328823E1F280ED92E057CF8823B9F28D
:103AF00086EC92E052CF882391F28CEB92E04DCF8E
:103B0000882369F285EB92E048CF882341F288EA66
:103B100092E043CF882319F281EA92E03ECF8823D6
:103B200009F4BDCF8AE992E038CF882309F4B7CFF2
:103B300083E992E032CF882309F4B1CF8CE892E098
:103B40002CCF882309F4ABCF85E892E026CF8823D9
:103B500009F4A5CF8EE792E020CF882309F49FCF08
:103B600087E792E01ACF03379CE7190709F097CF50
:103B7000882309F41ACE8091C307882319F00E9484
:103B8000FA1713CE0E94400B10CE0E948B07885765
:103B90009C4E9093C2078093C107F70185818823CB
:103BA00009F48DCF8D2D8D7909F05DC00034F2E5DB
:103BB0001F0778F5011522E5120708F080CF0115DF
:103BC00030E4130758F4011580E2180708F03FC0ED
:103BD000063E110509F473CFC8010BC0011590E52D
:103BE0001907D0F7F7018681807F09F468CFC801F3
:103BF000992710924F088832910508F03FC08E3106
:103C0000910508F041C0049770F182E080934F085D
:103C10003BC0003EA2E51A07A0F4003CB2E51B073A
:103C200008F04DCF0036E2E51E07B0F2003AF2E5AB
:103C30001F0708F444CF043B22E5120709F43FCFE5
:103C4000CBCFC80187579C47029730F638CFD701B2
:103C500016968C91807F59F6812F8F71823159F0A1
:103C600028F4823041F00E94FA1729CF843109F4F8
:103C700026CF8631C1F710924F08F5CF8D329105CE
:103C800021F228F48A9779F70E940E1418CF8C3409
:103C90009105D1F38D329240B9F3E5CFF801FF27BA
:103CA00044E0EE0FFF1F4A95E1F79F012F5B3E4F67
:103CB0006901D70115968C91EA5BFE4F908180FBDC
:103CC00090F99083882309F447C00E948B07909352
:103CD000B7078093B607F60182818F5F8283809158
:103CE0004F0890915008892B838380917A078483B1
:103CF0004681578166857785C6010E940C08D601EA
:103D000015968C9181FF25C090E080E0909351083A
:103D100080935208F7018581882309F49BC3109290
:103D2000C908C8019057839708F07DC384E090E0EC
:103D30000E9485329093AD078093AC07F801E15063
:103D4000F047E232F10508F042C0E850FD4C0C9417
:103D50003E32902F812FDACFF90144855585668553
:103D60007785C9010E940C08D60115968C9181FFB8
:103D7000ADCEC6010E94B0178091510890915208B3
:103D80000817190709F0A2CE109252081092510894
:103D9000C1CF26E241EE61EEC7010E946A1A05CD4D
:103DA00027E245EE65EEF8CF26E241EE60EEF4CF75
:103DB00027E245EE64EEF0CF26E241EE62EEECCF74
:103DC00027E245EE66EEE8CF28E241E0EBCF8091B6
:103DD000AC0781608093AC0795C08091AD07886087
:103DE0008093AD078FC08091AC078260F3CF809144
:103DF000AC078460EFCF8091AC078860EBCF8091F7
:103E0000AD078160EDCF8091AD078260E9CF8091F1
:103E1000AC078061DFCF8091AC078062DBCF8091FF
:103E2000AC078064D7CF0E94A5148091AC0780684E
:103E3000D1CF8091AC078C60CDCF8091AD078360EE
:103E4000CFCF8091AC078E7FC5CF8091AD07877FA4
:103E5000C7CF8091AC078D7FBDCF8091AC078B7FA2
:103E6000B9CF8091AC07877FB5CF8091AD078E7FAA
:103E7000B7CF8091AD078D7FB3CF8091AC078F7E98
:103E8000A9CF8091AC078F7DA5CF8091AC078F7BA8
:103E9000A1CF0E94A5148091AC078F779BCF809112
:103EA000AC07837F97CF8091AD078C7F99CF8091AE
:103EB000AC0782FB992790F921E0922790FB82F9C9
:103EC00090FB83F987CF8091AD07982F90959170E3
:103ED0008E7F892B90FB81F983CF9091AC07892F3E
:103EE0008F7B96FF806476CF0E94A5149091AC07DB
:103EF000892F97FB87F980586DCF61E08EE090E0C5
:103F00000E949B326091AC077091AD0784E090E015
:103F10000E94B9320E94A51448CC60E0EFCF909186
:103F2000AC07892F8F7E94FF806154CF9091AC07AE
:103F3000892F8E7F90FF81604DCF9091AD07892FA3
:103F4000877F93FF88604CCF85E38DC281E00E941C
:103F5000471A43E062E081E00E94D91926CC81E053
:103F60000E94F919F6CF82E0F2CF0B35ACE71A07C1
:103F700009F43FC00C35BCE71B0789F10A351C4723
:103F800009F0BCC281E032C00E94A514FFEF24E317
:103F90003CE0F15020403040E1F700C000000E94BA
:103FA000080D9091C608892F8E7F90FF81608093C5
:103FB000C60880FF09C084E094E09F938F930E941D
:103FC000D3050F900F90F1CB82EF93E0F6CF6FEF18
:103FD0007FEF90E080E00E94B9320E949A178091B2
:103FE000AD0782FB882780F991E089270E941D1A7E
:103FF00085C280E0FBCF858100811181882369F033
:10400000C8010E94E710D82E682FC8010E94C60B75
:10401000B8018D2D0E94D91077C2C8010E94920B61
:10402000D82EF6CF212F2F70D22E107F19F0D294D8
:1040300090EFD922CC20B9F0DD2069F080E2800F2A
:10404000883010F0011109C080915008D82AD09210
:1040500050080E940E14802F40C080914F08D82A2B
:10406000D0924F08F6CF802F0E941F18DD20B9F1A3
:1040700080E2800F883010F0011104C08D2D0E9465
:10408000700B03C08D2D0E94690B0E940E1427C077
:10409000312F3F70D32E107F103219F0D29480EF61
:1040A000D822002351F0013009F486C0CC2009F455
:1040B00092C0BB2009F440C0CECF8091AD0782FDF5
:1040C00037C0CC2079F1DD2039F080915008D82A12
:1040D000D09250080E940E1480E00E948418A92DEE
:1040E000A850BB0B149710F40E94FB07AA20A9F05C
:1040F00080916F0780FD11C0F70115828695869526
:1041000086950E94471AC7010E94F61A80916F0790
:104110008695869586950E94F91960E0C7010E94F0
:104120004D1153CB80E00E941F18DD20C1F2A6CFB5
:10413000CC2069F1B11004C08D2D0E941518CFCF8D
:1041400081E0B81210C010917A078D2D8123D81606
:1041500031F20E948B079093790780937807D12AD8
:10416000D0927A07BCCF93E0B912B9CF8D2D0E94BF
:1041700015188D2D0E94540B80916C079D2D98234E
:10418000D91609F4ACCFD82AD0926C07A8CFB110B9
:104190000AC08D2D0E940E188D2D0E94540B8D2D5E
:1041A0000E947E0B9CCFA1E0BA1299CF809150085B
:1041B0008D2109F494CFEDCFCC2029F0B3E0BB15CD
:1041C00008F48DCFB9CFE2E0EB1508F488CF8D2D40
:1041D0000E940E1884CFBB20D1F3093349F4FFEFBE
:1041E00027EE33E0F15020403040E1F700C00000FE
:1041F000802F0E941F1873CF812F8695869583701C
:1042000061F0813009F06BCFC8019370C11002C01A
:1042100080E090E00E94B10762CFC8019370C110A6
:1042200002C080E090E00E94D60759CF6C2D802F0D
:104230000E946F0E54CF812F837089F5C1104FCF2C
:10424000402F429546954770440F440F802F8F7042
:10425000042E01C0880F0A94EAF7202F207104FF72
:1042600007C02FE030E001C0220F4A95EAF7209501
:10427000169516951370123069F050F430917B0743
:10428000113029F0822B83230E94FD0B28CF832B32
:10429000822BFACF282B80917B078227F5CF86953A
:1042A000CC2011F0812F8170882309F418CF402F82
:1042B000429546954770440F440F802F8F70042E0F
:1042C00001C0880F0A94EAF7202F207104FF07C06D
:1042D0002FE030E001C0220F4A95EAF720951695AD
:1042E00016951370123069F050F430913C0811307B
:1042F00029F0822B83230E94D419F1CE832B822BA9
:10430000FACF282B80913C088227F5CF1F70CC2054
:1043100029F0812F0E94471A802F0FCF802F0E94F3
:104320000E18812F0E94F919DACE023F89F160F44C
:10433000003FB9F0013F81F0CC2009F464C0B11016
:104340008ACE812F8F7128C0033F49F1043FA1F726
:104350008091AD0782FD2FC0812F8F71CC2011F38A
:104360001BC0CC2081F082E08B1508F4B8CE1F7101
:1043700081E090E0012E01C0880F0A94EAF7909145
:104380003C088927B8CF93E09B1508F4A8CEEFCF5F
:10439000812F8F71C110C6CF0E94471AA0CE80E036
:1043A000CC2009F4A8CF1F7181E0012E01C0880F35
:1043B0000A94EAF7A0CFCC20C9F080916F078770EC
:1043C000843041F40E94770B812F8F710E94F9197C
:1043D000A12C85CEA2E0AB15D8F31F71812F0E94CE
:1043E000471A63E0812F0E94531AF2CFB2E0BB1547
:1043F00030F40E94770B64E0812F8F71F4CF81E05D
:104400000E94061AE5CFBB2059F0093309F0F0CE1F
:10441000EFEFF7EE23E0E150F0402040E1F7E6CE89
:10442000812F8F717FCF0631FCE71F0709F04AC04B
:10443000809150088A7A91E009F490E090935007B7
:1044400069E2811165E386EC92E00E9497070E9481
:104450000E14ABC906312CE7120749F580915007BD
:10446000811172CD89E2E8ECF2E02EEC32E091911C
:10447000891303C0DF0111971C922E173F07B9F76C
:10448000E6CFF801E054FE47E032F10508F06BCBCF
:10449000E65EFC4C0C943E32F801E054FE47E032FC
:1044A000F10508F060CBE65CFC4C0C943E3207371B
:1044B0003CE7130709F453CD08378CE71807F1F4EC
:1044C00082E04ECD07379CE7190709F43FCD083746
:1044D000ACE71A0709F447CD0330FCE71F0709F4DE
:1044E00076CD08F042CD01303CE7130709F475CDD5
:1044F00008F057CD01151C4709F446CDF701878117
:104500009085009709F477CD0E94170A8C01F70176
:10451000C580B680B2943FE0B32280916F07877068
:1045200001F1AC2CCC20F1F0812F807F803461F040
:1045300080E2800F8830A8F0812F807E803221F4C5
:10454000023078F0BB2069F08091AD0782FF09C08E
:1045500082E00E94061A80916F078770AA24A394B4
:104560008111A12C912E92942FE09222FBE0F9155B
:1045700008F4B5CDE92DF0E0E65AFC4C0C943E323F
:10458000B0E0A0E0E6ECF2E20C94F231EC017B0149
:10459000042F8091C60880FF10C082E0413009F4EA
:1045A00081E01F928F9380E497E09F938F930E9406
:1045B000D3050F900F900F900F90D0903C080E9461
:1045C000A51480E00E94D41929E002028001112480
:1045D000CE15DF0551F40E94A5148D2D0E94D4192B
:1045E000CDB7DEB7E7E00C940E32CE010E94F61A8A
:1045F000C00FD11F8FEF90E722E081509040204004
:10460000E1F700C00000E4CFCF93DF93809169070A
:10461000807F09F04DC080916807882309F448C065
:10462000E091C30850917A08C0916407D091630764
:10463000609165077091660749E05E17C9F18E2F9A
:1046400090E0E49FF0011124E558F74F24812223E4
:1046500091F1489FF001499FF00D1124DF01A55809
:10466000B74F11962C9111972C1325C02C912D1317
:1046700022C015962C91159721111DC012962D91CF
:104680003C91261B370B2C3D3105A8F4809169071E
:104690008F70806180936907EF57F74F80818F702B
:1046A0008061808383E697E00E94F61A0E94880B5F
:1046B000DF91CF910895FC013196E770BECFA8E15C
:1046C000B0E0E5E6F3E20C94EA318C0186E0F80113
:1046D000DE01539601900D928A95E1F7D801149668
:1046E000FC9014971596EC9083E6682E87E0782E60
:1046F0008091670781112AC0F11003C0FF24F39451
:104700001CC0EE20F9F0C8010E942311F82E882366
:10471000C9F089E0F801A3E6B7E001900D928A950F
:10472000E1F780916707813031F4809163079091C0
:1047300064070E9416110E9404238F2D6896EFE0F3
:104740000C940632C8010E94F61AD8CFF8015080A6
:10475000A180C280D38060E083E697E00E944D1183
:104760004C01B09068078091650790916607BB2067
:1047700009F444C19601281B390B2C3D310508F082
:10478000E2C0FF2009F4BACF20916407D801119646
:104790009C91119780916907382F307F09F081C073
:1047A000FE2C29131EC0209163079C91291319C068
:1047B00040916A0750916B0717962D913C914217D3
:1047C000530779F4E1105BC08F70806180936907B3
:1047D00083E697E00E94F61A80916907F8018683C4
:1047E000ACCFE1104CC06A2D852D0E94DC05E82E6F
:1047F0008823C1F0F4E08F16F1E29F0631F023E345
:10480000821621E2920609F098CF83E697E00E9493
:10481000F61A89E0E3E6F7E0DF011D928A95E9F7F1
:10482000F12C8BCF5B8AAC8A8B899C890E941611F4
:10483000292F22952F70243058F49F70223088F051
:10484000992399F0F8019681907F79F4FE2C75CF29
:104850002A5F2F70223068F0C8010E94F61AEB2CF4
:10486000F5CF992311F0882389F3805E883070F3A7
:10487000F3CF803F58F3815F833070F7E7CF8091AB
:104880006907816080936907FDE18F16F2E29F0658
:1048900009F4BBCF28E3821622E2920609F0C0CFCA
:1048A000B4CF291321C0209163079C9129131CC008
:1048B00040916A0750916B0717962D913C9118977C
:1048C0004217530789F4E1100FC016968C93C80164
:1048D0000E94F61A89E0F801A3E6B7E001900D9274
:1048E0008A95E1F7FB2C29CFC8010E942311882368
:1048F00009F428CFEE2009F425CF80916907803292
:10490000B8F020916307309164073B872A87DD86E2
:10491000CC86909167079E871F86888B80916A0757
:1049200090916B079A8B898BCE010A960E94F61A9A
:1049300089E0F801A3E6B7E001900D928A95E1F7CE
:104940000E940423DBCE80916907982F907F51F459
:1049500083E697E00E94F61A89E0F30111928A95A6
:10496000E9F75ECFFF2009F4C9CE20916407D80192
:1049700011969C91119729131DC0209163079C915A
:10498000291318C040916A0750916B0717962D9113
:104990003C9118974217530769F4E1100BC0169623
:1049A0008C93C8010E94F61A89E0F30111928A954E
:1049B000E9F798CFC8010E942311882309F4C2CED9
:1049C000EE2009F4BFCE80916907803208F4B0CFA1
:1049D00020916307309164073A832983DC82CB827C
:1049E000909167079D831E828F8380916A079091C3
:1049F0006B0799878887CE01019698CFC81AD90A84
:104A0000FCEDCF16D10408F0A7CFFF2009F476CE35
:104A1000FE2CEE2009F496CE90916407D8011196F1
:104A20008C911197981330C0909163078C919813D3
:104A30002BC020916A0730916B0717968D919C913E
:104A400018972817390701F59091690790FD13C051
:104A5000907F89F08091690716968C931697903F06
:104A600039F0982F907F905F8F70892B16968C93DA
:104A7000C8010E94F61A89E0F801A3E6B7E00190A8
:104A80000D928A95E1F759CEC8010E942311811138
:104A90004FCF80916907816080936907C8010E94A8
:104AA000F61A4BCEA2E1B0E0E8E5F5E20C94F53160
:104AB0000A871B872C873D874E875F87688B798B9A
:104AC0008A8BCE010A960E945F2381110CC089E077
:104AD000FE013A96DE01119601900D928A95E1F75A
:104AE0008E8581110BC019E08091C30890917A08DE
:104AF000891331C06296E4E00C94113220917A0857
:104B000030E0C9010196877099274091C308481782
:104B1000190699F099E0929FD001939FB00D11244E
:104B2000A558B74FFE01319601900D929A95E1F785
:104B300080937A080E94880BD6CF0E94A514109209
:104B40007A081092C30889E0E3E6F7E0DF011D92DE
:104B50008A95E9F7C8CF819FC00111248558974FE6
:104B60000E945F23882331F28091C30890E0019670
:104B7000877099278093C308B7CFEF92FF920F9366
:104B80001F93CF93DF938091C707882361F0E09153
:104B9000C6078DE0F82E8091C707E81748F01092FD
:104BA000C7071092C607CDB7DEB7E6E00C940F3208
:104BB000EE24E394EE0EE092C607CE2FD0E0EF9DF8
:104BC000F0011124E853F84F84818823E9F08781AC
:104BD0009085892B21F481859285019659F4008175
:104BE000118122813381448155816681778180855D
:104BF0000E945225FC9EF001FD9EF00D1124E85309
:104C0000F84F148210924F08EE2DC5CF10923B083A
:104C100010923A0810925502809139088093380812
:104C20000E94E3080E94BD250895B0E0A0E0EBE1FA
:104C3000F6E20C94E731C0913808E7E0FE2E01E07F
:104C400010E0FDE02F2EEE24E394809139088C13C0
:104C500009C00E94BD250E94E308CDB7DEB7E2E19E
:104C60000C940332D0E0FE01EE0FFF1FE05DF74F22
:104C700080819181F89EF001F99EF00D1124EF568C
:104C8000FE4F248121115AC03090C707A8ECB7E02D
:104C900030E020E0412C5F01231508F04DC01B9649
:104CA0006D907C901C97F501808091804FEF5FEFB5
:104CB000512CC52CD12CF601EE0FFF1FE80DF91D6C
:104CC000659174916616770609F4A601672B11F0B9
:104CD0005394EFCF4F3F5407B9F1B80102C0660FAC
:104CE000771F4A95E2F7462AA801052C02C0440F17
:104CF000551F0A94E2F7415051094416150609F56B
:104D0000229EF001239EF00D1124E853F84FF89EE7
:104D1000D001F99EB00D1124AF56BE4F12962D91C1
:104D20003C9113973087278374E07483108211823B
:104D3000928781871596EC920E94B5082196C370E0
:104D400084CF14961C9214972F5F3F4F1D96A4CFCB
:104D5000AEE1B0E0EEEAF6E20C94E7314B8B5C8B0F
:104D60006D8B7E8B8F8B988F911110924F08188AC4
:104D7000198A1A8A86E0FE017396DE011A9601905E
:104D80000D928A95E1F78091AD0782FF1CC00E94C9
:104D90008B0720916D0730916E07821B930B843F28
:104DA000914020F080916F0782FFE8C10E948B073D
:104DB0002091780730917907821B930B843F9140B3
:104DC00010F00E94350B8E85882389F061E0CE01BA
:104DD0000A960E944D115C018F8540E5A4164CE7B0
:104DE000B40689F4882329F181E0809355020A856D
:104DF0001B852C853D854E855F85688979898A89E3
:104E00000E945225C8C051E5A5165CE7B50629F4F5
:104E1000882379F00E940626EACF92E5A9169CE73E
:104E2000B90639F4882329F0809155028111F2CF17
:104E3000DBCFF1E9EF2EF1E0FF2E512CD12CC12C6C
:104E400088248394912CB7E04B2EFE013196FA8F83
:104E5000E98F33243394F7014081518166246A94A9
:104E6000762C60E0262F30E0F901EE0FFF1FE40FF3
:104E7000F51F85919491A816B90609F43901892B7B
:104E800011F06F5FEFCF10E0FFEF6F167F0609F4B0
:104E900043C0F701448110915502812F411180E0F8
:104EA000182F1170F701258086819F85992309F4B9
:104EB000F2C0112309F4EFC0211014C09401062C94
:104EC00001C0220F0A94EAF7822B86838091C407DF
:104ED0009091C507C29730F422E330E03093C507C4
:104EE0002093C407C40102C0880F991F6A95E2F796
:104EF0000197F70126812817190671F480913A0865
:104F000090913B08009709F44AC00E947007C3972C
:104F100008F445C0F7013482512AFFEFCF1ADF0AA7
:104F200027E0E20EF11C3CE1C316D10409F093CF57
:104F30008F85882309F40EC1552009F40BC10E9406
:104F40008B0790933B0880933A088091C70788307D
:104F500010F591E0980F9093C70799E0FE013A96FB
:104F6000DE01119601900D929A95E1F74DE0849F34
:104F7000C00111248853984F29E0FE013196DC01CD
:104F800001900D922A95E1F72FEF3FEFFC01328758
:104F90002187B486A3866E96E2E10C940332809159
:104FA000380860913908982FF0E0E0E0861314C0CB
:104FB00090933808EE16FF0609F4AECF90E0FC019E
:104FC000EE0FFF1FE05DF74FD182C0820196837024
:104FD000992780933908A0CF682E712CF301EE0F2A
:104FE000FF1FE05DF74F20813181429ED001439E3B
:104FF000B00D1124AF56BE4F2D913C9111973E8FAD
:105000002D8F00E070E0212CE22DF0E0EE0FFF1F6D
:105010002D8D3E8DE20FF31F259134912115310521
:10502000E1F0F7010190F081E02DFC8FEB8F70E053
:1050300005C02417350709F4012F7F5FE72FF0E043
:10504000EE0FFF1F4B8D5C8DE40FF51F45915491C2
:105050004115510571F72394D7CF0023C9F0F7010B
:10506000721508F0FD013482EE16FF0621F49093CC
:105070003808102F51CF981305C0AE17BF0711F491
:105080009F5F937093012F5F3F4F822F83708ECF6E
:10509000F0E0E0E0F7CF90E021101FC0940102C0E3
:1050A000220F331F6A95E2F72150310982179307C7
:1050B00031F4442309F44CC0C6010E94B508C40170
:1050C000062C01C0880F0A94EAF7982F9095F701F3
:1050D000868189238683122D1FCFAC01062C02C046
:1050E000559547950A94E2F7BA01617077279C01BC
:1050F0002150310982239323892B31F5672B21F12C
:10510000F70182819381892BE1F0E98DFA8D242DBD
:1051100011922A95E9F70E948B07282F8B839C8395
:1051200034E03D83F70182819381782F88879987C6
:1051300009811A813C8144E05E816F81892F0E9440
:105140005225F7011582BBCFF42FF1702F2EB7CF68
:10515000212EB5CF9091380880913908981729F001
:105160000E941526511017CF42CE0E94BD251092E5
:105170003B0810923A080E94E308F4CF82E00E94B4
:10518000061A14CEA6E0B0E0E8ECF8E20C94F53193
:105190000E948B078C0180917C0790917D0780177E
:1051A000910781F019821A820E948B07682F49812A
:1051B0005A81792F80E090E00E94A82610937D0705
:1051C00000937C072696E4E00C941132A8E0B0E04E
:1051D000ECEEF8E20C94F73166EE7EEF90E080E0C2
:1051E0000E94B93260E082E090E00E949B3281E050
:1051F00080937B0761E083E090E00E949B3260E057
:1052000074E184E090E00E94B93260E086E090E0D2
:105210000E949B3260E087E090E00E949B3240E079
:1052200050E0BA0188E090E00E94AD3260E084E294
:1052300090E00E949B3260E087E190E00E949B3208
:1052400060E08CE090E00E949B3260E08DE090E0B6
:105250000E949B3219821A821B821C821D821E822E
:105260001F82188648E050E068E170E0CE010196A8
:105270000E948B3240E050E0BA0180E290E00E9450
:10528000AD3280E00E94F90F0E94811040E050E0B2
:10529000BA018FE090E00E94AD3240E050E0BA01E8
:1052A00083E190E00E94AD322896E2E00C94133244
:1052B0001F920F920FB60F9211242F933F934F938B
:1052C0005F936F937F938F939F93AF93BF93CF938E
:1052D000DF93EF93FF93D091E900DF708091EC00B2
:1052E000C82FC17080FDC0E81092E9008091F000E5
:1052F000877F8093F00078940E94D6141092E90082
:105300008091F00088608093F000CD2BCF70C09327
:10531000E900FF91EF91DF91CF91BF91AF919F9104
:105320008F917F916F915F914F913F912F910F904E
:105330000FBE0F901F9018951F920F920FB60F92ED
:1053400011242F933F934F935F936F937F938F938A
:105350009F93AF93BF93EF93FF938091E10082FF00
:1053600015C08091E20082FF11C08091E1008B7F27
:105370008093E100209162082F5F822F62E30E94F8
:105380001E32992309F4D0C0209362088091DA007C
:1053900080FF2CC08091D80080FF28C08091DA0067
:1053A0008E7F8093DA008091D90080FFF3C080E186
:1053B00089BD82E189BD09B400FEFDCF81E0809303
:1053C000700889E098E09F938F930E94D3058091A5
:1053D00063080F900F90811109C00E9412060E946D
:1053E000B3068091E20084608093E2008091E10046
:1053F00080FF1FC08091E20080FF1BC08091E2000F
:105400008E7F8093E2008091E20080618093E200D1
:105410008091D80080628093D80019BC85E0809389
:10542000700881E198E09F938F930E94D3050F90BD
:105430000F908091E10084FF33C08091E20084FFEF
:105440002FC080E189BD82E189BD89B5982F917017
:1054500080FFFBCF8091D8008F7D8093D800809112
:10546000E1008F7E8093E1008091E2008F7E809347
:10547000E2008091E20081608093E20080917108F7
:10548000882309F495C084E08093700885E198E052
:105490009F938F930E94D305809170080F900F9077
:1054A0008091E10083FF2FC08091E20083FF2BC039
:1054B0008091E100877F8093E10082E08093700813
:1054C000109271088091E1008E7F8093E1008091BD
:1054D000E2008E7F8093E2008091E2008061809301
:1054E000E20042E060E080E00E9481068091F000EE
:1054F00088608093F00089E198E09F938F930E94E9
:10550000D3050F900F90FF91EF91BF91AF919F91B5
:105510008F917F916F915F914F913F912F910F905C
:105520000FBE0F901F90189510926208809161082D
:10553000882309F42BCF809170088430C1F49091B6
:10554000E9009F702091EC00822F817020FD80E89F
:10555000892B95E09093E9009091EB0090FF04C0B7
:105560009091EE0097FD08C08F708093E900109233
:1055700061080CCF1092F1009091E80095FDFACFF0
:105580009091E80090FFF0CF9091E8009E77909383
:10559000E800EACF19BC109270088DE098E09F9364
:1055A0008F930E94D305109263080F900F901ECF27
:1055B0008091E30087FD93E09093700867CF789423
:1055C0001F921FB61F9211248F939F93AF93BF9387
:1055D00080915C0890915D08A0915E08B0915F0891
:1055E0000196A11DB11D80935C0890935D08A09366
:1055F0005E08B0935F08BF91AF919F918F911F900C
:105600001FBE1F9018951F921FB61F9211248F93D3
:105610009F93AF93BF9380915B08811113C08091DA
:105620005C0890915D08A0915E08B0915F0841967A
:10563000A11DB11D80935C0890935D08A0935E0846
:10564000B0935F08BF91AF919F918F911F901FBE44
:105650001F901895CDB7DEB7A6970FB6F894DEBFAA
:105660000FBECDBF85B7806885BF85B7806885BF11
:1056700084B7877F84BF0FB6F894A89580916000A7
:10568000886180936000109260000FBE80E890E017
:105690000FB6F89480936100909361000FBE89E487
:1056A0009CE09093C5028093C4020E9412060E945F
:1056B000B3068091E20084608093E2007894809148
:1056C00070088823A1F01091E9001F709091EC0000
:1056D000892F817090FD80E8182B1092E90080914D
:1056E000E80083FD0E94D6141F701093E90082E049
:1056F00084BD93E095BD9AEF97BD80936E001092A4
:105700009E0710929F071092A0071092A1070E9477
:105710009110811102C00E94811088EC90E01091DC
:10572000E300111F1127111F61F4AFE3BCE91197CA
:10573000F1F700C00000019791F70E941206109245
:105740007008109353080E947D11811102C00E94BD
:10575000E6288EE090E00E947D3291E0811101C048
:1057600090E09093540890933601809153088111F2
:105770000E94853080913601811120C080EF809396
:10578000320181EF8093330184EF8093340185EF00
:105790008093350186E0E7E5F2E0DE0111960190A5
:1057A0000D928A95E1F7FE013196ACE2B1E0CE01AF
:1057B000079621912D93E817F907D9F780913601C3
:1057C00094E0811190E09093AB0784E0891B809373
:1057D000AA0702E311E0F80181918F018F3F11F0D8
:1057E0000E94F508F1E006331F07A9F70CE211E06B
:1057F000D8018D918D018F3F11F00E94F508B1E025
:1058000002331B07A9F788E0E9EBF7E0DF01282F57
:105810001D922A95E9F7E2EAF7E0DF011D928A95E9
:10582000E9F70E947D11811102C00E94E62882E002
:1058300090E00E947D328093C60884E090E00E9450
:1058400085329093AD078093AC070E948812BFEF1A
:10585000E6E7F1E0B150E040F040E1F700C00000C1
:105860000E94881280915408E4E08111E0E0F0E0A9
:10587000E754F84F808181FF08C06FEF7FEF90E021
:1058800080E00E94B9320E94080D83E090E00E94FF
:105890007D320E94FD0B80913C080E94BD198091D1
:1058A0005308811102C00E94883087E391E09093F1
:1058B000580880935708809170088530B9F480911A
:1058C000C60880FF08C02CEB34E03F932F930E9462
:1058D000D3050F900F9000E112E1809170088530A0
:1058E00009F455C00E94A5140E94FB070E9488126B
:1058F000EEEA4E2EE7E05E2EF9EB2F2EF7E03F2E7C
:10590000D101F20191918D9137E0E63BF30709F463
:1059100078C09817B9F38091C60881FDF9C1B0909D
:10592000530810E0CC24C394D1010D911D01F20164
:10593000D1902F01D01629F1D026F12CEE24E3943A
:105940008D2D8E21B1F0BB20A1F0F9A21AA30E94E7
:105950008B079CA38BA3CDA291E0802F8E2109F40D
:1059600090E09EA349A15AA16BA17CA18DA10E94A8
:10597000A826F394EE0CF6E0FF12E2CFF201319785
:1059800000831F5F183081F60E940C093EC0809191
:105990007008843021F110925B0888E190E0A0E467
:1059A0000FB6F894A895809360000FBEA093600096
:1059B00083B7817F846083BF83B7816083BF78941E
:1059C000889583B78E7F83BF0FB6F894A895809192
:1059D0006000886180936000109260000FBE80912B
:1059E0006F08882309F479CF0E948812E9EBF7E069
:1059F0008191811107C321EC37E02E173F07C1F7D2
:105A00006CCF981388CF0E94C228809153088823B6
:105A100009F456C000915108109152080115110562
:105A2000D1F08091B6079091B7070E9470078D3D25
:105A3000910588F0C801992724E0880F991F2A95BD
:105A4000E1F7FC01EA5BFE4F208122FD04C08F5B81
:105A50009E4F0E94C91780915502882301F18091C1
:105A60003A0890913B080097D1F00E94700720916E
:105A7000C4073091C5072817390788F49091380872
:105A800080913908981709F485C10E941526109253
:105A9000C5071092C40710923B0810923A088091F3
:105AA000C307882369F00E948B072091C1073091BA
:105AB000C207821B930B8F3F9F4710F40E94FA1777
:105AC00086E0E9E4F8E0DE01119601900D928A95F6
:105AD000E1F7E0904A08F0904B0800914C08D09014
